{
  "_format": "hh-sol-artifact-1",
  "contractName": "UniversalRouterExecutor",
  "sourceName": "src/sample-executors/UniversalRouterExecutor.sol",
  "abi": [
    {
      "inputs": [
        {
          "internalType": "address[]",
          "name": "_whitelistedCallers",
          "type": "address[]"
        },
        {
          "internalType": "contract IReactor",
          "name": "_reactor",
          "type": "address"
        },
        {
          "internalType": "address",
          "name": "_owner",
          "type": "address"
        },
        {
          "internalType": "address",
          "name": "_universalRouter",
          "type": "address"
        },
        {
          "internalType": "contract IPermit2",
          "name": "_permit2",
          "type": "address"
        }
      ],
      "stateMutability": "nonpayable",
      "type": "constructor"
    },
    {
      "inputs": [],
      "name": "CallerNotWhitelisted",
      "type": "error"
    },
    {
      "inputs": [],
      "name": "MsgSenderNotReactor",
      "type": "error"
    },
    {
      "inputs": [],
      "name": "NativeTransferFailed",
      "type": "error"
    },
    {
      "anonymous": false,
      "inputs": [
        {
          "indexed": true,
          "internalType": "address",
          "name": "user",
          "type": "address"
        },
        {
          "indexed": true,
          "internalType": "address",
          "name": "newOwner",
          "type": "address"
        }
      ],
      "name": "OwnershipTransferred",
      "type": "event"
    },
    {
      "inputs": [
        {
          "components": [
            {
              "internalType": "bytes",
              "name": "order",
              "type": "bytes"
            },
            {
              "internalType": "bytes",
              "name": "sig",
              "type": "bytes"
            }
          ],
          "internalType": "struct SignedOrder",
          "name": "order",
          "type": "tuple"
        },
        {
          "internalType": "bytes",
          "name": "callbackData",
          "type": "bytes"
        }
      ],
      "name": "execute",
      "outputs": [],
      "stateMutability": "nonpayable",
      "type": "function"
    },
    {
      "inputs": [
        {
          "components": [
            {
              "internalType": "bytes",
              "name": "order",
              "type": "bytes"
            },
            {
              "internalType": "bytes",
              "name": "sig",
              "type": "bytes"
            }
          ],
          "internalType": "struct SignedOrder[]",
          "name": "orders",
          "type": "tuple[]"
        },
        {
          "internalType": "bytes",
          "name": "callbackData",
          "type": "bytes"
        }
      ],
      "name": "executeBatch",
      "outputs": [],
      "stateMutability": "nonpayable",
      "type": "function"
    },
    {
      "inputs": [],
      "name": "owner",
      "outputs": [
        {
          "internalType": "address",
          "name": "",
          "type": "address"
        }
      ],
      "stateMutability": "view",
      "type": "function"
    },
    {
      "inputs": [],
      "name": "permit2",
      "outputs": [
        {
          "internalType": "contract IPermit2",
          "name": "",
          "type": "address"
        }
      ],
      "stateMutability": "view",
      "type": "function"
    },
    {
      "inputs": [],
      "name": "reactor",
      "outputs": [
        {
          "internalType": "contract IReactor",
          "name": "",
          "type": "address"
        }
      ],
      "stateMutability": "view",
      "type": "function"
    },
    {
      "inputs": [
        {
          "components": [
            {
              "components": [
                {
                  "internalType": "contract IReactor",
                  "name": "reactor",
                  "type": "address"
                },
                {
                  "internalType": "address",
                  "name": "swapper",
                  "type": "address"
                },
                {
                  "internalType": "uint256",
                  "name": "nonce",
                  "type": "uint256"
                },
                {
                  "internalType": "uint256",
                  "name": "deadline",
                  "type": "uint256"
                },
                {
                  "internalType": "contract IValidationCallback",
                  "name": "additionalValidationContract",
                  "type": "address"
                },
                {
                  "internalType": "bytes",
                  "name": "additionalValidationData",
                  "type": "bytes"
                }
              ],
              "internalType": "struct OrderInfo",
              "name": "info",
              "type": "tuple"
            },
            {
              "components": [
                {
                  "internalType": "contract ERC20",
                  "name": "token",
                  "type": "address"
                },
                {
                  "internalType": "uint256",
                  "name": "amount",
                  "type": "uint256"
                },
                {
                  "internalType": "uint256",
                  "name": "maxAmount",
                  "type": "uint256"
                }
              ],
              "internalType": "struct InputToken",
              "name": "input",
              "type": "tuple"
            },
            {
              "components": [
                {
                  "internalType": "address",
                  "name": "token",
                  "type": "address"
                },
                {
                  "internalType": "uint256",
                  "name": "amount",
                  "type": "uint256"
                },
                {
                  "internalType": "address",
                  "name": "recipient",
                  "type": "address"
                }
              ],
              "internalType": "struct OutputToken[]",
              "name": "outputs",
              "type": "tuple[]"
            },
            {
              "internalType": "bytes",
              "name": "sig",
              "type": "bytes"
            },
            {
              "internalType": "bytes32",
              "name": "hash",
              "type": "bytes32"
            }
          ],
          "internalType": "struct ResolvedOrder[]",
          "name": "",
          "type": "tuple[]"
        },
        {
          "internalType": "bytes",
          "name": "callbackData",
          "type": "bytes"
        }
      ],
      "name": "reactorCallback",
      "outputs": [],
      "stateMutability": "nonpayable",
      "type": "function"
    },
    {
      "inputs": [
        {
          "internalType": "address",
          "name": "newOwner",
          "type": "address"
        }
      ],
      "name": "transferOwnership",
      "outputs": [],
      "stateMutability": "nonpayable",
      "type": "function"
    },
    {
      "inputs": [],
      "name": "universalRouter",
      "outputs": [
        {
          "internalType": "address",
          "name": "",
          "type": "address"
        }
      ],
      "stateMutability": "view",
      "type": "function"
    },
    {
      "inputs": [
        {
          "internalType": "contract ERC20",
          "name": "token",
          "type": "address"
        },
        {
          "internalType": "address",
          "name": "to",
          "type": "address"
        }
      ],
      "name": "withdrawERC20",
      "outputs": [],
      "stateMutability": "nonpayable",
      "type": "function"
    },
    {
      "inputs": [
        {
          "internalType": "address",
          "name": "recipient",
          "type": "address"
        }
      ],
      "name": "withdrawETH",
      "outputs": [],
      "stateMutability": "nonpayable",
      "type": "function"
    },
    {
      "stateMutability": "payable",
      "type": "receive"
    }
  ],
  "bytecode": "0x60e060405234801561001057600080fd5b5060405161218338038061218383398181016040528101906100329190610447565b82806000806101000a81548173ffffffffffffffffffffffffffffffffffffffff021916908373ffffffffffffffffffffffffffffffffffffffff1602179055508073ffffffffffffffffffffffffffffffffffffffff16600073ffffffffffffffffffffffffffffffffffffffff167f8be0079c531659141344cd1fd0a4f28419497f9722a3daafe3b4186f6b6457e060405160405180910390a35060005b85518110156101595760018060008884815181106100f3576100f26104de565b5b602002602001015173ffffffffffffffffffffffffffffffffffffffff1673ffffffffffffffffffffffffffffffffffffffff16815260200190815260200160002060006101000a81548160ff02191690831515021790555080806001019150506100d2565b508373ffffffffffffffffffffffffffffffffffffffff1660a08173ffffffffffffffffffffffffffffffffffffffff16815250508173ffffffffffffffffffffffffffffffffffffffff1660808173ffffffffffffffffffffffffffffffffffffffff16815250508073ffffffffffffffffffffffffffffffffffffffff1660c08173ffffffffffffffffffffffffffffffffffffffff1681525050505050505061050d565b6000604051905090565b600080fd5b600080fd5b600080fd5b6000601f19601f8301169050919050565b7f4e487b7100000000000000000000000000000000000000000000000000000000600052604160045260246000fd5b61026282610219565b810181811067ffffffffffffffff821117156102815761028061022a565b5b80604052505050565b6000610294610200565b90506102a08282610259565b919050565b600067ffffffffffffffff8211156102c0576102bf61022a565b5b602082029050602081019050919050565b600080fd5b600073ffffffffffffffffffffffffffffffffffffffff82169050919050565b6000610301826102d6565b9050919050565b610311816102f6565b811461031c57600080fd5b50565b60008151905061032e81610308565b92915050565b6000610347610342846102a5565b61028a565b9050808382526020820190506020840283018581111561036a576103696102d1565b5b835b81811015610393578061037f888261031f565b84526020840193505060208101905061036c565b5050509392505050565b600082601f8301126103b2576103b1610214565b5b81516103c2848260208601610334565b91505092915050565b60006103d6826102f6565b9050919050565b6103e6816103cb565b81146103f157600080fd5b50565b600081519050610403816103dd565b92915050565b6000610414826102f6565b9050919050565b61042481610409565b811461042f57600080fd5b50565b6000815190506104418161041b565b92915050565b600080600080600060a086880312156104635761046261020a565b5b600086015167ffffffffffffffff8111156104815761048061020f565b5b61048d8882890161039d565b955050602061049e888289016103f4565b94505060406104af8882890161031f565b93505060606104c08882890161031f565b92505060806104d188828901610432565b9150509295509295909350565b7f4e487b7100000000000000000000000000000000000000000000000000000000600052603260045260246000fd5b60805160a05160c051611c0861057b600039600081816102450152818161033b01526103bd01526000818161028d015281816104bf015281816105f70152818161081f015281816108cd01526109eb0152600081816102690152818161041401526105520152611c086000f3fe6080604052600436106100955760003560e01c80639456fbcc116100595780639456fbcc14610174578063ab5726501461019d578063d0f2d8ac146101c8578063e5135ec6146101f1578063f2fde38b1461021a5761009c565b806312261ee7146100a157806335a9e4df146100cc578063585da628146100f7578063690d8320146101205780638da5cb5b146101495761009c565b3661009c57005b600080fd5b3480156100ad57600080fd5b506100b6610243565b6040516100c39190610e81565b60405180910390f35b3480156100d857600080fd5b506100e1610267565b6040516100ee9190610ebd565b60405180910390f35b34801561010357600080fd5b5061011e60048036038101906101199190610fa7565b61028b565b005b34801561012c57600080fd5b5061014760048036038101906101429190611054565b610628565b005b34801561015557600080fd5b5061015e6106c3565b60405161016b9190610ebd565b60405180910390f35b34801561018057600080fd5b5061019b600480360381019061019691906110bf565b6106e7565b005b3480156101a957600080fd5b506101b261081d565b6040516101bf9190611120565b60405180910390f35b3480156101d457600080fd5b506101ef60048036038101906101ea919061115f565b610841565b005b3480156101fd57600080fd5b5061021860048036038101906102139190611231565b61095f565b005b34801561022657600080fd5b50610241600480360381019061023c9190611054565b610a80565b005b7f000000000000000000000000000000000000000000000000000000000000000081565b7f000000000000000000000000000000000000000000000000000000000000000081565b7f000000000000000000000000000000000000000000000000000000000000000073ffffffffffffffffffffffffffffffffffffffff163373ffffffffffffffffffffffffffffffffffffffff1614610310576040517f933fe52f00000000000000000000000000000000000000000000000000000000815260040160405180910390fd5b6000806000848481019061032491906114b6565b92509250925060005b83518110156104ad576103bb7f00000000000000000000000000000000000000000000000000000000000000007fffffffffffffffffffffffffffffffffffffffffffffffffffffffffffffffff86848151811061038e5761038d61155d565b5b602002602001015173ffffffffffffffffffffffffffffffffffffffff16610bab9092919063ffffffff16565b7f000000000000000000000000000000000000000000000000000000000000000073ffffffffffffffffffffffffffffffffffffffff166387517c4585838151811061040a5761040961155d565b5b60200260200101517f000000000000000000000000000000000000000000000000000000000000000073ffffffffffffffffffffffffffffffffffffffff65ffffffffffff6040518563ffffffff1660e01b815260040161046e94939291906115bc565b600060405180830381600087803b15801561048857600080fd5b505af115801561049c573d6000803e3d6000fd5b50505050808060010191505061032d565b5060005b825181101561054c5761053f7f00000000000000000000000000000000000000000000000000000000000000007fffffffffffffffffffffffffffffffffffffffffffffffffffffffffffffffff8584815181106105125761051161155d565b5b602002602001015173ffffffffffffffffffffffffffffffffffffffff16610bab9092919063ffffffff16565b80806001019150506104b1565b506000807f000000000000000000000000000000000000000000000000000000000000000073ffffffffffffffffffffffffffffffffffffffff16836040516105959190611672565b6000604051808303816000865af19150503d80600081146105d2576040519150601f19603f3d011682016040523d82523d6000602084013e6105d7565b606091505b5091509150816105e957805160208201fd5b600047111561061d5761061c7f000000000000000000000000000000000000000000000000000000000000000047610c59565b5b505050505050505050565b60008054906101000a900473ffffffffffffffffffffffffffffffffffffffff1673ffffffffffffffffffffffffffffffffffffffff163373ffffffffffffffffffffffffffffffffffffffff16146106b6576040517f08c379a00000000000000000000000000000000000000000000000000000000081526004016106ad906116e6565b60405180910390fd5b6106c08147610d01565b50565b60008054906101000a900473ffffffffffffffffffffffffffffffffffffffff1681565b60008054906101000a900473ffffffffffffffffffffffffffffffffffffffff1673ffffffffffffffffffffffffffffffffffffffff163373ffffffffffffffffffffffffffffffffffffffff1614610775576040517f08c379a000000000000000000000000000000000000000000000000000000000815260040161076c906116e6565b60405180910390fd5b610819818373ffffffffffffffffffffffffffffffffffffffff166370a08231306040518263ffffffff1660e01b81526004016107b29190610ebd565b602060405180830381865afa1580156107cf573d6000803e3d6000fd5b505050506040513d601f19601f820116820180604052508101906107f3919061173c565b8473ffffffffffffffffffffffffffffffffffffffff16610d549092919063ffffffff16565b5050565b7f000000000000000000000000000000000000000000000000000000000000000081565b60001515600160003373ffffffffffffffffffffffffffffffffffffffff1673ffffffffffffffffffffffffffffffffffffffff16815260200190815260200160002060009054906101000a900460ff161515036108cb576040517f8c6e5d7100000000000000000000000000000000000000000000000000000000815260040160405180910390fd5b7f000000000000000000000000000000000000000000000000000000000000000073ffffffffffffffffffffffffffffffffffffffff16630d3358848484846040518463ffffffff1660e01b8152600401610928939291906118af565b600060405180830381600087803b15801561094257600080fd5b505af1158015610956573d6000803e3d6000fd5b50505050505050565b60001515600160003373ffffffffffffffffffffffffffffffffffffffff1673ffffffffffffffffffffffffffffffffffffffff16815260200190815260200160002060009054906101000a900460ff161515036109e9576040517f8c6e5d7100000000000000000000000000000000000000000000000000000000815260040160405180910390fd5b7f000000000000000000000000000000000000000000000000000000000000000073ffffffffffffffffffffffffffffffffffffffff166313fb72c7858585856040518563ffffffff1660e01b8152600401610a489493929190611a18565b600060405180830381600087803b158015610a6257600080fd5b505af1158015610a76573d6000803e3d6000fd5b5050505050505050565b60008054906101000a900473ffffffffffffffffffffffffffffffffffffffff1673ffffffffffffffffffffffffffffffffffffffff163373ffffffffffffffffffffffffffffffffffffffff1614610b0e576040517f08c379a0000000000000000000000000000000000000000000000000000000008152600401610b05906116e6565b60405180910390fd5b806000806101000a81548173ffffffffffffffffffffffffffffffffffffffff021916908373ffffffffffffffffffffffffffffffffffffffff1602179055508073ffffffffffffffffffffffffffffffffffffffff163373ffffffffffffffffffffffffffffffffffffffff167f8be0079c531659141344cd1fd0a4f28419497f9722a3daafe3b4186f6b6457e060405160405180910390a350565b60006040517f095ea7b300000000000000000000000000000000000000000000000000000000815273ffffffffffffffffffffffffffffffffffffffff84166004820152826024820152602060006044836000895af13d15601f3d1160016000511416171691505080610c53576040517f08c379a0000000000000000000000000000000000000000000000000000000008152600401610c4a90611a9f565b60405180910390fd5b50505050565b60008273ffffffffffffffffffffffffffffffffffffffff1682604051610c7f90611ae5565b60006040518083038185875af1925050503d8060008114610cbc576040519150601f19603f3d011682016040523d82523d6000602084013e610cc1565b606091505b5050905080610cfc576040517ff4b3b1bc00000000000000000000000000000000000000000000000000000000815260040160405180910390fd5b505050565b600080600080600085875af1905080610d4f576040517f08c379a0000000000000000000000000000000000000000000000000000000008152600401610d4690611b46565b60405180910390fd5b505050565b60006040517fa9059cbb00000000000000000000000000000000000000000000000000000000815273ffffffffffffffffffffffffffffffffffffffff84166004820152826024820152602060006044836000895af13d15601f3d1160016000511416171691505080610dfc576040517f08c379a0000000000000000000000000000000000000000000000000000000008152600401610df390611bb2565b60405180910390fd5b50505050565b600073ffffffffffffffffffffffffffffffffffffffff82169050919050565b6000819050919050565b6000610e47610e42610e3d84610e02565b610e22565b610e02565b9050919050565b6000610e5982610e2c565b9050919050565b6000610e6b82610e4e565b9050919050565b610e7b81610e60565b82525050565b6000602082019050610e966000830184610e72565b92915050565b6000610ea782610e02565b9050919050565b610eb781610e9c565b82525050565b6000602082019050610ed26000830184610eae565b92915050565b6000604051905090565b600080fd5b600080fd5b600080fd5b600080fd5b600080fd5b60008083601f840112610f1157610f10610eec565b5b8235905067ffffffffffffffff811115610f2e57610f2d610ef1565b5b602083019150836020820283011115610f4a57610f49610ef6565b5b9250929050565b60008083601f840112610f6757610f66610eec565b5b8235905067ffffffffffffffff811115610f8457610f83610ef1565b5b602083019150836001820283011115610fa057610f9f610ef6565b5b9250929050565b60008060008060408587031215610fc157610fc0610ee2565b5b600085013567ffffffffffffffff811115610fdf57610fde610ee7565b5b610feb87828801610efb565b9450945050602085013567ffffffffffffffff81111561100e5761100d610ee7565b5b61101a87828801610f51565b925092505092959194509250565b61103181610e9c565b811461103c57600080fd5b50565b60008135905061104e81611028565b92915050565b60006020828403121561106a57611069610ee2565b5b60006110788482850161103f565b91505092915050565b600061108c82610e9c565b9050919050565b61109c81611081565b81146110a757600080fd5b50565b6000813590506110b981611093565b92915050565b600080604083850312156110d6576110d5610ee2565b5b60006110e4858286016110aa565b92505060206110f58582860161103f565b9150509250929050565b600061110a82610e4e565b9050919050565b61111a816110ff565b82525050565b60006020820190506111356000830184611111565b92915050565b600080fd5b6000604082840312156111565761115561113b565b5b81905092915050565b60008060006040848603121561117857611177610ee2565b5b600084013567ffffffffffffffff81111561119657611195610ee7565b5b6111a286828701611140565b935050602084013567ffffffffffffffff8111156111c3576111c2610ee7565b5b6111cf86828701610f51565b92509250509250925092565b60008083601f8401126111f1576111f0610eec565b5b8235905067ffffffffffffffff81111561120e5761120d610ef1565b5b60208301915083602082028301111561122a57611229610ef6565b5b9250929050565b6000806000806040858703121561124b5761124a610ee2565b5b600085013567ffffffffffffffff81111561126957611268610ee7565b5b611275878288016111db565b9450945050602085013567ffffffffffffffff81111561129857611297610ee7565b5b6112a487828801610f51565b925092505092959194509250565b6000601f19601f8301169050919050565b7f4e487b7100000000000000000000000000000000000000000000000000000000600052604160045260246000fd5b6112fb826112b2565b810181811067ffffffffffffffff8211171561131a576113196112c3565b5b80604052505050565b600061132d610ed8565b905061133982826112f2565b919050565b600067ffffffffffffffff821115611359576113586112c3565b5b602082029050602081019050919050565b600061137d6113788461133e565b611323565b905080838252602082019050602084028301858111156113a05761139f610ef6565b5b835b818110156113c957806113b5888261103f565b8452602084019350506020810190506113a2565b5050509392505050565b600082601f8301126113e8576113e7610eec565b5b81356113f884826020860161136a565b91505092915050565b600080fd5b600067ffffffffffffffff821115611421576114206112c3565b5b61142a826112b2565b9050602081019050919050565b82818337600083830152505050565b600061145961145484611406565b611323565b90508281526020810184848401111561147557611474611401565b5b611480848285611437565b509392505050565b600082601f83011261149d5761149c610eec565b5b81356114ad848260208601611446565b91505092915050565b6000806000606084860312156114cf576114ce610ee2565b5b600084013567ffffffffffffffff8111156114ed576114ec610ee7565b5b6114f9868287016113d3565b935050602084013567ffffffffffffffff81111561151a57611519610ee7565b5b611526868287016113d3565b925050604084013567ffffffffffffffff81111561154757611546610ee7565b5b61155386828701611488565b9150509250925092565b7f4e487b7100000000000000000000000000000000000000000000000000000000600052603260045260246000fd5b61159581610e02565b82525050565b600065ffffffffffff82169050919050565b6115b68161159b565b82525050565b60006080820190506115d16000830187610eae565b6115de6020830186610eae565b6115eb604083018561158c565b6115f860608301846115ad565b95945050505050565b600081519050919050565b600081905092915050565b60005b8381101561163557808201518184015260208101905061161a565b60008484015250505050565b600061164c82611601565b611656818561160c565b9350611666818560208601611617565b80840191505092915050565b600061167e8284611641565b915081905092915050565b600082825260208201905092915050565b7f554e415554484f52495a45440000000000000000000000000000000000000000600082015250565b60006116d0600c83611689565b91506116db8261169a565b602082019050919050565b600060208201905081810360008301526116ff816116c3565b9050919050565b6000819050919050565b61171981611706565b811461172457600080fd5b50565b60008151905061173681611710565b92915050565b60006020828403121561175257611751610ee2565b5b600061176084828501611727565b91505092915050565b600080fd5b600080fd5b600080fd5b6000808335600160200384360303811261179557611794611773565b5b83810192508235915060208301925067ffffffffffffffff8211156117bd576117bc611769565b5b6001820236038313156117d3576117d261176e565b5b509250929050565b600082825260208201905092915050565b60006117f883856117db565b9350611805838584611437565b61180e836112b2565b840190509392505050565b60006040830161182c6000840184611778565b858303600087015261183f8382846117ec565b925050506118506020840184611778565b85830360208701526118638382846117ec565b925050508091505092915050565b600082825260208201905092915050565b600061188e8385611871565b935061189b838584611437565b6118a4836112b2565b840190509392505050565b600060408201905081810360008301526118c98186611819565b905081810360208301526118de818486611882565b9050949350505050565b600082825260208201905092915050565b6000819050919050565b6000604083016119166000840184611778565b85830360008701526119298382846117ec565b9250505061193a6020840184611778565b858303602087015261194d8382846117ec565b925050508091505092915050565b60006119678383611903565b905092915050565b60008235600160400383360303811261198b5761198a611773565b5b82810191505092915050565b6000602082019050919050565b60006119b083856118e8565b9350836020840285016119c2846118f9565b8060005b87811015611a065784840389526119dd828461196f565b6119e7858261195b565b94506119f283611997565b925060208a019950506001810190506119c6565b50829750879450505050509392505050565b60006040820190508181036000830152611a338186886119a4565b90508181036020830152611a48818486611882565b905095945050505050565b7f415050524f56455f4641494c4544000000000000000000000000000000000000600082015250565b6000611a89600e83611689565b9150611a9482611a53565b602082019050919050565b60006020820190508181036000830152611ab881611a7c565b9050919050565b50565b6000611acf60008361160c565b9150611ada82611abf565b600082019050919050565b6000611af082611ac2565b9150819050919050565b7f4554485f5452414e534645525f4641494c454400000000000000000000000000600082015250565b6000611b30601383611689565b9150611b3b82611afa565b602082019050919050565b60006020820190508181036000830152611b5f81611b23565b9050919050565b7f5452414e534645525f4641494c45440000000000000000000000000000000000600082015250565b6000611b9c600f83611689565b9150611ba782611b66565b602082019050919050565b60006020820190508181036000830152611bcb81611b8f565b905091905056fea26469706673582212208e02209cd11801b3acaf89ad347c848cec2d8b789a1149d20e28d2ead806adb164736f6c634300081c0033",
  "linkReferences": {},
  "deployedLinkReferences": {}
}