{
  "_format": "hh-sol-artifact-1",
  "contractName": "OrderQuoter",
  "sourceName": "src/lens/OrderQuoter.sol",
  "abi": [
    {
      "inputs": [],
      "name": "OrdersLengthIncorrect",
      "type": "error"
    },
    {
      "inputs": [
        {
          "internalType": "bytes",
          "name": "order",
          "type": "bytes"
        }
      ],
      "name": "getReactor",
      "outputs": [
        {
          "internalType": "contract IReactor",
          "name": "reactor",
          "type": "address"
        }
      ],
      "stateMutability": "pure",
      "type": "function"
    },
    {
      "inputs": [
        {
          "internalType": "bytes",
          "name": "order",
          "type": "bytes"
        },
        {
          "internalType": "bytes",
          "name": "sig",
          "type": "bytes"
        }
      ],
      "name": "quote",
      "outputs": [
        {
          "components": [
            {
              "components": [
                {
                  "internalType": "contract IReactor",
                  "name": "reactor",
                  "type": "address"
                },
                {
                  "internalType": "address",
                  "name": "swapper",
                  "type": "address"
                },
                {
                  "internalType": "uint256",
                  "name": "nonce",
                  "type": "uint256"
                },
                {
                  "internalType": "uint256",
                  "name": "deadline",
                  "type": "uint256"
                },
                {
                  "internalType": "contract IValidationCallback",
                  "name": "additionalValidationContract",
                  "type": "address"
                },
                {
                  "internalType": "bytes",
                  "name": "additionalValidationData",
                  "type": "bytes"
                }
              ],
              "internalType": "struct OrderInfo",
              "name": "info",
              "type": "tuple"
            },
            {
              "components": [
                {
                  "internalType": "contract ERC20",
                  "name": "token",
                  "type": "address"
                },
                {
                  "internalType": "uint256",
                  "name": "amount",
                  "type": "uint256"
                },
                {
                  "internalType": "uint256",
                  "name": "maxAmount",
                  "type": "uint256"
                }
              ],
              "internalType": "struct InputToken",
              "name": "input",
              "type": "tuple"
            },
            {
              "components": [
                {
                  "internalType": "address",
                  "name": "token",
                  "type": "address"
                },
                {
                  "internalType": "uint256",
                  "name": "amount",
                  "type": "uint256"
                },
                {
                  "internalType": "address",
                  "name": "recipient",
                  "type": "address"
                }
              ],
              "internalType": "struct OutputToken[]",
              "name": "outputs",
              "type": "tuple[]"
            },
            {
              "internalType": "bytes",
              "name": "sig",
              "type": "bytes"
            },
            {
              "internalType": "bytes32",
              "name": "hash",
              "type": "bytes32"
            }
          ],
          "internalType": "struct ResolvedOrder",
          "name": "result",
          "type": "tuple"
        }
      ],
      "stateMutability": "nonpayable",
      "type": "function"
    },
    {
      "inputs": [
        {
          "components": [
            {
              "components": [
                {
                  "internalType": "contract IReactor",
                  "name": "reactor",
                  "type": "address"
                },
                {
                  "internalType": "address",
                  "name": "swapper",
                  "type": "address"
                },
                {
                  "internalType": "uint256",
                  "name": "nonce",
                  "type": "uint256"
                },
                {
                  "internalType": "uint256",
                  "name": "deadline",
                  "type": "uint256"
                },
                {
                  "internalType": "contract IValidationCallback",
                  "name": "additionalValidationContract",
                  "type": "address"
                },
                {
                  "internalType": "bytes",
                  "name": "additionalValidationData",
                  "type": "bytes"
                }
              ],
              "internalType": "struct OrderInfo",
              "name": "info",
              "type": "tuple"
            },
            {
              "components": [
                {
                  "internalType": "contract ERC20",
                  "name": "token",
                  "type": "address"
                },
                {
                  "internalType": "uint256",
                  "name": "amount",
                  "type": "uint256"
                },
                {
                  "internalType": "uint256",
                  "name": "maxAmount",
                  "type": "uint256"
                }
              ],
              "internalType": "struct InputToken",
              "name": "input",
              "type": "tuple"
            },
            {
              "components": [
                {
                  "internalType": "address",
                  "name": "token",
                  "type": "address"
                },
                {
                  "internalType": "uint256",
                  "name": "amount",
                  "type": "uint256"
                },
                {
                  "internalType": "address",
                  "name": "recipient",
                  "type": "address"
                }
              ],
              "internalType": "struct OutputToken[]",
              "name": "outputs",
              "type": "tuple[]"
            },
            {
              "internalType": "bytes",
              "name": "sig",
              "type": "bytes"
            },
            {
              "internalType": "bytes32",
              "name": "hash",
              "type": "bytes32"
            }
          ],
          "internalType": "struct ResolvedOrder[]",
          "name": "resolvedOrders",
          "type": "tuple[]"
        },
        {
          "internalType": "bytes",
          "name": "",
          "type": "bytes"
        }
      ],
      "name": "reactorCallback",
      "outputs": [],
      "stateMutability": "pure",
      "type": "function"
    }
  ],
  "bytecode": "0x6080604052348015600f57600080fd5b506114c38061001f6000396000f3fe608060405234801561001057600080fd5b50600436106100415760003560e01c806341d88d6914610046578063585da628146100765780637671d07b14610092575b600080fd5b610060600480360381019061005b91906104ba565b6100c2565b60405161006d9190610905565b60405180910390f35b610090600480360381019061008b9190610e7c565b6101a9565b005b6100ac60048036038101906100a79190610ef4565b61022b565b6040516100b99190610f4c565b60405180910390f35b6100ca610273565b6100d38361022b565b73ffffffffffffffffffffffffffffffffffffffff16630d335884604051806040016040528086815260200185815250604051806020016040528060008152506040518363ffffffff1660e01b8152600401610130929190610ff5565b600060405180830381600087803b15801561014a57600080fd5b505af192505050801561015b575060015b6101a2573d806000811461018b576040519150601f19603f3d011682016040523d82523d6000602084013e610190565b606091505b5061019a8161023e565b9150506101a3565b5b92915050565b60018251146101e4576040517f06ee987800000000000000000000000000000000000000000000000000000000815260040160405180910390fd5b6000826000815181106101fa576101f961102c565b5b60200260200101516040516020016102129190610905565b6040516020818303038152906040529050805181602001fd5b6000604082018051810151915050919050565b610246610273565b60c08251101561025857815182602001fd5b8180602001905181019061026c9190611444565b9050919050565b6040518060a001604052806102866102b1565b8152602001610293610329565b81526020016060815260200160608152602001600080191681525090565b6040518060c00160405280600073ffffffffffffffffffffffffffffffffffffffff168152602001600073ffffffffffffffffffffffffffffffffffffffff1681526020016000815260200160008152602001600073ffffffffffffffffffffffffffffffffffffffff168152602001606081525090565b6040518060600160405280600073ffffffffffffffffffffffffffffffffffffffff16815260200160008152602001600081525090565b6000604051905090565b600080fd5b600080fd5b600080fd5b600080fd5b6000601f19601f8301169050919050565b7f4e487b7100000000000000000000000000000000000000000000000000000000600052604160045260246000fd5b6103c78261037e565b810181811067ffffffffffffffff821117156103e6576103e561038f565b5b80604052505050565b60006103f9610360565b905061040582826103be565b919050565b600067ffffffffffffffff8211156104255761042461038f565b5b61042e8261037e565b9050602081019050919050565b82818337600083830152505050565b600061045d6104588461040a565b6103ef565b90508281526020810184848401111561047957610478610379565b5b61048484828561043b565b509392505050565b600082601f8301126104a1576104a0610374565b5b81356104b184826020860161044a565b91505092915050565b600080604083850312156104d1576104d061036a565b5b600083013567ffffffffffffffff8111156104ef576104ee61036f565b5b6104fb8582860161048c565b925050602083013567ffffffffffffffff81111561051c5761051b61036f565b5b6105288582860161048c565b9150509250929050565b600073ffffffffffffffffffffffffffffffffffffffff82169050919050565b6000819050919050565b600061057761057261056d84610532565b610552565b610532565b9050919050565b60006105898261055c565b9050919050565b600061059b8261057e565b9050919050565b6105ab81610590565b82525050565b60006105bc82610532565b9050919050565b6105cc816105b1565b82525050565b6000819050919050565b6105e5816105d2565b82525050565b60006105f68261057e565b9050919050565b610606816105eb565b82525050565b600081519050919050565b600082825260208201905092915050565b60005b8381101561064657808201518184015260208101905061062b565b60008484015250505050565b600061065d8261060c565b6106678185610617565b9350610677818560208601610628565b6106808161037e565b840191505092915050565b600060c0830160008301516106a360008601826105a2565b5060208301516106b660208601826105c3565b5060408301516106c960408601826105dc565b5060608301516106dc60608601826105dc565b5060808301516106ef60808601826105fd565b5060a083015184820360a08601526107078282610652565b9150508091505092915050565b600061071f8261057e565b9050919050565b61072f81610714565b82525050565b60608201600082015161074b6000850182610726565b50602082015161075e60208501826105dc565b50604082015161077160408501826105dc565b50505050565b600081519050919050565b600082825260208201905092915050565b6000819050602082019050919050565b6060820160008201516107b960008501826105c3565b5060208201516107cc60208501826105dc565b5060408201516107df60408501826105c3565b50505050565b60006107f183836107a3565b60608301905092915050565b6000602082019050919050565b600061081582610777565b61081f8185610782565b935061082a83610793565b8060005b8381101561085b57815161084288826107e5565b975061084d836107fd565b92505060018101905061082e565b5085935050505092915050565b6000819050919050565b61087b81610868565b82525050565b600060e083016000830151848203600086015261089e828261068b565b91505060208301516108b36020860182610735565b50604083015184820360808601526108cb828261080a565b915050606083015184820360a08601526108e58282610652565b91505060808301516108fa60c0860182610872565b508091505092915050565b6000602082019050818103600083015261091f8184610881565b905092915050565b600067ffffffffffffffff8211156109425761094161038f565b5b602082029050602081019050919050565b600080fd5b600080fd5b600080fd5b600061096d826105b1565b9050919050565b61097d81610962565b811461098857600080fd5b50565b60008135905061099a81610974565b92915050565b6109a9816105b1565b81146109b457600080fd5b50565b6000813590506109c6816109a0565b92915050565b6109d5816105d2565b81146109e057600080fd5b50565b6000813590506109f2816109cc565b92915050565b6000610a03826105b1565b9050919050565b610a13816109f8565b8114610a1e57600080fd5b50565b600081359050610a3081610a0a565b92915050565b600060c08284031215610a4c57610a4b610958565b5b610a5660c06103ef565b90506000610a668482850161098b565b6000830152506020610a7a848285016109b7565b6020830152506040610a8e848285016109e3565b6040830152506060610aa2848285016109e3565b6060830152506080610ab684828501610a21565b60808301525060a082013567ffffffffffffffff811115610ada57610ad961095d565b5b610ae68482850161048c565b60a08301525092915050565b6000610afd826105b1565b9050919050565b610b0d81610af2565b8114610b1857600080fd5b50565b600081359050610b2a81610b04565b92915050565b600060608284031215610b4657610b45610958565b5b610b5060606103ef565b90506000610b6084828501610b1b565b6000830152506020610b74848285016109e3565b6020830152506040610b88848285016109e3565b60408301525092915050565b600067ffffffffffffffff821115610baf57610bae61038f565b5b602082029050602081019050919050565b600060608284031215610bd657610bd5610958565b5b610be060606103ef565b90506000610bf0848285016109b7565b6000830152506020610c04848285016109e3565b6020830152506040610c18848285016109b7565b60408301525092915050565b6000610c37610c3284610b94565b6103ef565b90508083825260208201905060608402830185811115610c5a57610c59610953565b5b835b81811015610c835780610c6f8882610bc0565b845260208401935050606081019050610c5c565b5050509392505050565b600082601f830112610ca257610ca1610374565b5b8135610cb2848260208601610c24565b91505092915050565b610cc481610868565b8114610ccf57600080fd5b50565b600081359050610ce181610cbb565b92915050565b600060e08284031215610cfd57610cfc610958565b5b610d0760a06103ef565b9050600082013567ffffffffffffffff811115610d2757610d2661095d565b5b610d3384828501610a36565b6000830152506020610d4784828501610b30565b602083015250608082013567ffffffffffffffff811115610d6b57610d6a61095d565b5b610d7784828501610c8d565b60408301525060a082013567ffffffffffffffff811115610d9b57610d9a61095d565b5b610da78482850161048c565b60608301525060c0610dbb84828501610cd2565b60808301525092915050565b6000610dda610dd584610927565b6103ef565b90508083825260208201905060208402830185811115610dfd57610dfc610953565b5b835b81811015610e4457803567ffffffffffffffff811115610e2257610e21610374565b5b808601610e2f8982610ce7565b85526020850194505050602081019050610dff565b5050509392505050565b600082601f830112610e6357610e62610374565b5b8135610e73848260208601610dc7565b91505092915050565b60008060408385031215610e9357610e9261036a565b5b600083013567ffffffffffffffff811115610eb157610eb061036f565b5b610ebd85828601610e4e565b925050602083013567ffffffffffffffff811115610ede57610edd61036f565b5b610eea8582860161048c565b9150509250929050565b600060208284031215610f0a57610f0961036a565b5b600082013567ffffffffffffffff811115610f2857610f2761036f565b5b610f348482850161048c565b91505092915050565b610f4681610590565b82525050565b6000602082019050610f616000830184610f3d565b92915050565b60006040830160008301518482036000860152610f848282610652565b91505060208301518482036020860152610f9e8282610652565b9150508091505092915050565b600082825260208201905092915050565b6000610fc78261060c565b610fd18185610fab565b9350610fe1818560208601610628565b610fea8161037e565b840191505092915050565b6000604082019050818103600083015261100f8185610f67565b905081810360208301526110238184610fbc565b90509392505050565b7f4e487b7100000000000000000000000000000000000000000000000000000000600052603260045260246000fd5b60008151905061106a81610974565b92915050565b60008151905061107f816109a0565b92915050565b600081519050611094816109cc565b92915050565b6000815190506110a981610a0a565b92915050565b60006110c26110bd8461040a565b6103ef565b9050828152602081018484840111156110de576110dd610379565b5b6110e9848285610628565b509392505050565b600082601f83011261110657611105610374565b5b81516111168482602086016110af565b91505092915050565b600060c0828403121561113557611134610958565b5b61113f60c06103ef565b9050600061114f8482850161105b565b600083015250602061116384828501611070565b602083015250604061117784828501611085565b604083015250606061118b84828501611085565b606083015250608061119f8482850161109a565b60808301525060a082015167ffffffffffffffff8111156111c3576111c261095d565b5b6111cf848285016110f1565b60a08301525092915050565b6000815190506111ea81610b04565b92915050565b60006060828403121561120657611205610958565b5b61121060606103ef565b90506000611220848285016111db565b600083015250602061123484828501611085565b602083015250604061124884828501611085565b60408301525092915050565b60006060828403121561126a57611269610958565b5b61127460606103ef565b9050600061128484828501611070565b600083015250602061129884828501611085565b60208301525060406112ac84828501611070565b60408301525092915050565b60006112cb6112c684610b94565b6103ef565b905080838252602082019050606084028301858111156112ee576112ed610953565b5b835b8181101561131757806113038882611254565b8452602084019350506060810190506112f0565b5050509392505050565b600082601f83011261133657611335610374565b5b81516113468482602086016112b8565b91505092915050565b60008151905061135e81610cbb565b92915050565b600060e0828403121561137a57611379610958565b5b61138460a06103ef565b9050600082015167ffffffffffffffff8111156113a4576113a361095d565b5b6113b08482850161111f565b60008301525060206113c4848285016111f0565b602083015250608082015167ffffffffffffffff8111156113e8576113e761095d565b5b6113f484828501611321565b60408301525060a082015167ffffffffffffffff8111156114185761141761095d565b5b611424848285016110f1565b60608301525060c06114388482850161134f565b60808301525092915050565b60006020828403121561145a5761145961036a565b5b600082015167ffffffffffffffff8111156114785761147761036f565b5b61148484828501611364565b9150509291505056fea2646970667358221220abb1fe81fdb0f69faf214bf8fe17539ea31407c3c01ccee66afe27b5d61b9e8964736f6c634300081c0033",
  "linkReferences": {},
  "deployedLinkReferences": {}
}