{
  "_format": "hh-sol-artifact-1",
  "contractName": "V3DutchOrderReactor",
  "sourceName": "src/reactors/V3DutchOrderReactor.sol",
  "abi": [
    {
      "inputs": [
        {
          "internalType": "contract IPermit2",
          "name": "_permit2",
          "type": "address"
        },
        {
          "internalType": "address",
          "name": "_protocolFeeOwner",
          "type": "address"
        }
      ],
      "stateMutability": "nonpayable",
      "type": "constructor"
    },
    {
      "inputs": [],
      "name": "DeadlineReached",
      "type": "error"
    },
    {
      "inputs": [
        {
          "internalType": "address",
          "name": "duplicateToken",
          "type": "address"
        }
      ],
      "name": "DuplicateFeeOutput",
      "type": "error"
    },
    {
      "inputs": [
        {
          "internalType": "address",
          "name": "token",
          "type": "address"
        },
        {
          "internalType": "uint256",
          "name": "amount",
          "type": "uint256"
        },
        {
          "internalType": "address",
          "name": "recipient",
          "type": "address"
        }
      ],
      "name": "FeeTooLarge",
      "type": "error"
    },
    {
      "inputs": [],
      "name": "IndexOutOfBounds",
      "type": "error"
    },
    {
      "inputs": [],
      "name": "InputAndOutputFees",
      "type": "error"
    },
    {
      "inputs": [],
      "name": "InvalidCosignature",
      "type": "error"
    },
    {
      "inputs": [],
      "name": "InvalidCosignerInput",
      "type": "error"
    },
    {
      "inputs": [],
      "name": "InvalidCosignerOutput",
      "type": "error"
    },
    {
      "inputs": [],
      "name": "InvalidDecayCurve",
      "type": "error"
    },
    {
      "inputs": [
        {
          "internalType": "address",
          "name": "feeToken",
          "type": "address"
        }
      ],
      "name": "InvalidFeeToken",
      "type": "error"
    },
    {
      "inputs": [],
      "name": "InvalidReactor",
      "type": "error"
    },
    {
      "inputs": [],
      "name": "NativeTransferFailed",
      "type": "error"
    },
    {
      "inputs": [],
      "name": "NoExclusiveOverride",
      "type": "error"
    },
    {
      "anonymous": false,
      "inputs": [
        {
          "indexed": true,
          "internalType": "bytes32",
          "name": "orderHash",
          "type": "bytes32"
        },
        {
          "indexed": true,
          "internalType": "address",
          "name": "filler",
          "type": "address"
        },
        {
          "indexed": true,
          "internalType": "address",
          "name": "swapper",
          "type": "address"
        },
        {
          "indexed": false,
          "internalType": "uint256",
          "name": "nonce",
          "type": "uint256"
        }
      ],
      "name": "Fill",
      "type": "event"
    },
    {
      "anonymous": false,
      "inputs": [
        {
          "indexed": true,
          "internalType": "address",
          "name": "user",
          "type": "address"
        },
        {
          "indexed": true,
          "internalType": "address",
          "name": "newOwner",
          "type": "address"
        }
      ],
      "name": "OwnershipTransferred",
      "type": "event"
    },
    {
      "anonymous": false,
      "inputs": [
        {
          "indexed": false,
          "internalType": "address",
          "name": "oldFeeController",
          "type": "address"
        },
        {
          "indexed": false,
          "internalType": "address",
          "name": "newFeeController",
          "type": "address"
        }
      ],
      "name": "ProtocolFeeControllerSet",
      "type": "event"
    },
    {
      "inputs": [
        {
          "components": [
            {
              "internalType": "bytes",
              "name": "order",
              "type": "bytes"
            },
            {
              "internalType": "bytes",
              "name": "sig",
              "type": "bytes"
            }
          ],
          "internalType": "struct SignedOrder",
          "name": "order",
          "type": "tuple"
        }
      ],
      "name": "execute",
      "outputs": [],
      "stateMutability": "payable",
      "type": "function"
    },
    {
      "inputs": [
        {
          "components": [
            {
              "internalType": "bytes",
              "name": "order",
              "type": "bytes"
            },
            {
              "internalType": "bytes",
              "name": "sig",
              "type": "bytes"
            }
          ],
          "internalType": "struct SignedOrder[]",
          "name": "orders",
          "type": "tuple[]"
        }
      ],
      "name": "executeBatch",
      "outputs": [],
      "stateMutability": "payable",
      "type": "function"
    },
    {
      "inputs": [
        {
          "components": [
            {
              "internalType": "bytes",
              "name": "order",
              "type": "bytes"
            },
            {
              "internalType": "bytes",
              "name": "sig",
              "type": "bytes"
            }
          ],
          "internalType": "struct SignedOrder[]",
          "name": "orders",
          "type": "tuple[]"
        },
        {
          "internalType": "bytes",
          "name": "callbackData",
          "type": "bytes"
        }
      ],
      "name": "executeBatchWithCallback",
      "outputs": [],
      "stateMutability": "payable",
      "type": "function"
    },
    {
      "inputs": [
        {
          "components": [
            {
              "internalType": "bytes",
              "name": "order",
              "type": "bytes"
            },
            {
              "internalType": "bytes",
              "name": "sig",
              "type": "bytes"
            }
          ],
          "internalType": "struct SignedOrder",
          "name": "order",
          "type": "tuple"
        },
        {
          "internalType": "bytes",
          "name": "callbackData",
          "type": "bytes"
        }
      ],
      "name": "executeWithCallback",
      "outputs": [],
      "stateMutability": "payable",
      "type": "function"
    },
    {
      "inputs": [],
      "name": "feeController",
      "outputs": [
        {
          "internalType": "contract IProtocolFeeController",
          "name": "",
          "type": "address"
        }
      ],
      "stateMutability": "view",
      "type": "function"
    },
    {
      "inputs": [],
      "name": "owner",
      "outputs": [
        {
          "internalType": "address",
          "name": "",
          "type": "address"
        }
      ],
      "stateMutability": "view",
      "type": "function"
    },
    {
      "inputs": [],
      "name": "permit2",
      "outputs": [
        {
          "internalType": "contract IPermit2",
          "name": "",
          "type": "address"
        }
      ],
      "stateMutability": "view",
      "type": "function"
    },
    {
      "inputs": [
        {
          "internalType": "address",
          "name": "_newFeeController",
          "type": "address"
        }
      ],
      "name": "setProtocolFeeController",
      "outputs": [],
      "stateMutability": "nonpayable",
      "type": "function"
    },
    {
      "inputs": [
        {
          "internalType": "address",
          "name": "newOwner",
          "type": "address"
        }
      ],
      "name": "transferOwnership",
      "outputs": [],
      "stateMutability": "nonpayable",
      "type": "function"
    },
    {
      "stateMutability": "payable",
      "type": "receive"
    }
  ],
  "bytecode": "0x60c060405234801561001057600080fd5b50604051615a88380380615a8883398181016040528101906100329190610291565b81818080806000806101000a81548173ffffffffffffffffffffffffffffffffffffffff021916908373ffffffffffffffffffffffffffffffffffffffff1602179055508073ffffffffffffffffffffffffffffffffffffffff16600073ffffffffffffffffffffffffffffffffffffffff167f8be0079c531659141344cd1fd0a4f28419497f9722a3daafe3b4186f6b6457e060405160405180910390a3505060016002819055508173ffffffffffffffffffffffffffffffffffffffff1660808173ffffffffffffffffffffffffffffffffffffffff1681525050505061a4b146036101445761017160201b6108ad1767ffffffffffffffff1660a08167ffffffffffffffff168152505061016a565b6101e860201b6109241767ffffffffffffffff1660a08167ffffffffffffffff16815250505b5050610334565b6000606473ffffffffffffffffffffffffffffffffffffffff1663a3b1b31d6040518163ffffffff1660e01b8152600401602060405180830381865afa1580156101bf573d6000803e3d6000fd5b505050506040513d601f19601f820116820180604052508101906101e39190610307565b905090565b600043905090565b600080fd5b600073ffffffffffffffffffffffffffffffffffffffff82169050919050565b6000610220826101f5565b9050919050565b600061023282610215565b9050919050565b61024281610227565b811461024d57600080fd5b50565b60008151905061025f81610239565b92915050565b61026e81610215565b811461027957600080fd5b50565b60008151905061028b81610265565b92915050565b600080604083850312156102a8576102a76101f0565b5b60006102b685828601610250565b92505060206102c78582860161027c565b9150509250929050565b6000819050919050565b6102e4816102d1565b81146102ef57600080fd5b50565b600081519050610301816102db565b92915050565b60006020828403121561031d5761031c6101f0565b5b600061032b848285016102f2565b91505092915050565b60805160a05161572861036060003960006109d20152600081816103df015261189701526157286000f3fe60806040526004361061008a5760003560e01c80632d771389116100595780632d771389146101155780633f62192e1461013e5780636999b3771461015a5780638da5cb5b14610185578063f2fde38b146101b057610091565b80630d335884146100965780630d7a16c3146100b257806312261ee7146100ce57806313fb72c7146100f957610091565b3661009157005b600080fd5b6100b060048036038101906100ab9190612da8565b6101d9565b005b6100cc60048036038101906100c79190612e7a565b6102f1565b005b3480156100da57600080fd5b506100e36103dd565b6040516100f09190612f46565b60405180910390f35b610113600480360381019061010e9190612f61565b610401565b005b34801561012157600080fd5b5061013c60048036038101906101379190613020565b61055e565b005b6101586004803603810190610153919061304d565b610691565b005b34801561016657600080fd5b5061016f610738565b60405161017c91906130b7565b60405180910390f35b34801561019157600080fd5b5061019a61075e565b6040516101a791906130e1565b60405180910390f35b3480156101bc57600080fd5b506101d760048036038101906101d29190613020565b610782565b005b6101e161092c565b6000600167ffffffffffffffff8111156101fe576101fd6130fc565b5b60405190808252806020026020018201604052801561023757816020015b610224612b4a565b81526020019060019003908161021c5790505b50905061024384610979565b816000815181106102575761025661312b565b5b602002602001018190525061026b81610af3565b3373ffffffffffffffffffffffffffffffffffffffff1663585da6288285856040518463ffffffff1660e01b81526004016102a8939291906135dd565b600060405180830381600087803b1580156102c257600080fd5b505af11580156102d6573d6000803e3d6000fd5b505050506102e381610b5c565b506102ec610cc6565b505050565b6102f961092c565b600082829050905060008167ffffffffffffffff81111561031d5761031c6130fc565b5b60405190808252806020026020018201604052801561035657816020015b610343612b4a565b81526020019060019003908161033b5790505b50905060005b828110156103bc5761039185858381811061037a5761037961312b565b5b905060200281019061038c9190613625565b610979565b8282815181106103a4576103a361312b565b5b6020026020010181905250808060010191505061035c565b506103c681610af3565b6103cf81610b5c565b50506103d9610cc6565b5050565b7f000000000000000000000000000000000000000000000000000000000000000081565b61040961092c565b600084849050905060008167ffffffffffffffff81111561042d5761042c6130fc565b5b60405190808252806020026020018201604052801561046657816020015b610453612b4a565b81526020019060019003908161044b5790505b50905060005b828110156104cc576104a187878381811061048a5761048961312b565b5b905060200281019061049c9190613625565b610979565b8282815181106104b4576104b361312b565b5b6020026020010181905250808060010191505061046c565b506104d681610af3565b3373ffffffffffffffffffffffffffffffffffffffff1663585da6288286866040518463ffffffff1660e01b8152600401610513939291906135dd565b600060405180830381600087803b15801561052d57600080fd5b505af1158015610541573d6000803e3d6000fd5b5050505061054e81610b5c565b5050610558610cc6565b50505050565b60008054906101000a900473ffffffffffffffffffffffffffffffffffffffff1673ffffffffffffffffffffffffffffffffffffffff163373ffffffffffffffffffffffffffffffffffffffff16146105ec576040517f08c379a00000000000000000000000000000000000000000000000000000000081526004016105e3906136aa565b60405180910390fd5b6000600160009054906101000a900473ffffffffffffffffffffffffffffffffffffffff16905081600160006101000a81548173ffffffffffffffffffffffffffffffffffffffff021916908373ffffffffffffffffffffffffffffffffffffffff1602179055507fb904ae9529e373e48bc82df4326cceaf1b4c472babf37f5b7dec46fecc6b53e081836040516106859291906136ca565b60405180910390a15050565b61069961092c565b6000600167ffffffffffffffff8111156106b6576106b56130fc565b5b6040519080825280602002602001820160405280156106ef57816020015b6106dc612b4a565b8152602001906001900390816106d45790505b5090506106fb82610979565b8160008151811061070f5761070e61312b565b5b602002602001018190525061072381610af3565b61072c81610b5c565b50610735610cc6565b50565b600160009054906101000a900473ffffffffffffffffffffffffffffffffffffffff1681565b60008054906101000a900473ffffffffffffffffffffffffffffffffffffffff1681565b60008054906101000a900473ffffffffffffffffffffffffffffffffffffffff1673ffffffffffffffffffffffffffffffffffffffff163373ffffffffffffffffffffffffffffffffffffffff1614610810576040517f08c379a0000000000000000000000000000000000000000000000000000000008152600401610807906136aa565b60405180910390fd5b806000806101000a81548173ffffffffffffffffffffffffffffffffffffffff021916908373ffffffffffffffffffffffffffffffffffffffff1602179055508073ffffffffffffffffffffffffffffffffffffffff163373ffffffffffffffffffffffffffffffffffffffff167f8be0079c531659141344cd1fd0a4f28419497f9722a3daafe3b4186f6b6457e060405160405180910390a350565b6000606473ffffffffffffffffffffffffffffffffffffffff1663a3b1b31d6040518163ffffffff1660e01b8152600401602060405180830381865afa1580156108fb573d6000803e3d6000fd5b505050506040513d601f19601f8201168201806040525081019061091f919061371f565b905090565b600043905090565b6002805403610970576040517f08c379a000000000000000000000000000000000000000000000000000000000815260040161096790613798565b60405180910390fd5b60028081905550565b610981612b4a565b600082806000019061099391906137b8565b8101906109a091906140f7565b905060006109ad82610cd0565b90506109b98183610df0565b6109c282610e5b565b6109cb82610fd7565b60006109f97f000000000000000000000000000000000000000000000000000000000000000063ffffffff16565b90506040518060a0016040528084600001518152602001610a318560a00151600001518487606001516111039092919063ffffffff16565b8152602001610a578560a00151600001518487608001516111a29092919063ffffffff16565b8152602001868060200190610a6c91906137b8565b8080601f016020809104026020016040519081016040528093929190818152602001838380828437600081840152601f19601f820116905080830192505050505050508152602001838152509350610aeb8360a00151602001518460a00151600001518560a0015160400151848861126490949392919063ffffffff16565b505050919050565b60008151905060005b81811015610b57576000838281518110610b1957610b1861312b565b5b60200260200101519050610b2c81611278565b610b3f338261177490919063ffffffff16565b610b498133611895565b508080600101915050610afc565b505050565b60008151905060005b81811015610cad576000838281518110610b8257610b8161312b565b5b602002602001015190506000816040015151905060005b81811015610c0957600083604001518281518110610bba57610bb961312b565b5b60200260200101519050610bfb81604001518260200151836000015173ffffffffffffffffffffffffffffffffffffffff16611a259092919063ffffffff16565b508080600101915050610b99565b5081600001516020015173ffffffffffffffffffffffffffffffffffffffff163373ffffffffffffffffffffffffffffffffffffffff16868581518110610c5357610c5261312b565b5b6020026020010151608001517f78ad7ec0e9f89e74012afa58738b6b661c024cb0fd185ee2f616c0a28924bd66856000015160400151604051610c96919061414f565b60405180910390a450508080600101915050610b65565b506000471115610cc257610cc13347611a75565b5b5050565b6001600281905550565b6000604051602001610ce19061433d565b604051602081830303815290604052604051602001610cff9061446d565b6040516020818303038152906040526040518060c00160405280608d8152602001615666608d9139604051602001610d3690614686565b604051602081830303815290604052604051602001610d54906147b6565b604051602081830303815290604052604051602001610d77959493929190614849565b60405160208183030381529060405280519060200120610d9a8360000151611b1d565b83602001518460400151610db18660600151611b97565b610dbe8760800151611c4f565b604051602001610dd3969594939291906148a3565b604051602081830303815290604052805190602001209050919050565b428160000151606001511015610e32576040517fb08ce5b300000000000000000000000000000000000000000000000000000000815260040160405180910390fd5b610e578160200151610e4d8484611d0890919063ffffffff16565b8360c00151611d60565b5050565b60008160a001516060015114610ecc578060600151602001518160a00151606001511115610eb5576040517fac9143e700000000000000000000000000000000000000000000000000000000815260040160405180910390fd5b8060a0015160600151816060015160200181815250505b8060800151518160a00151608001515114610f13576040517fa305df8200000000000000000000000000000000000000000000000000000000815260040160405180910390fd5b6000816080015151905060005b81811015610fd257600083608001518281518110610f4157610f4061312b565b5b6020026020010151905060008460a00151608001518381518110610f6857610f6761312b565b5b6020026020010151905060008114610fc3578160200151811015610fb8576040517fa305df8200000000000000000000000000000000000000000000000000000000815260040160405180910390fd5b808260200181815250505b50508080600101915050610f20565b505050565b6000610ff0826040015148611e9b90919063ffffffff16565b905060008260600151608001511461104f57600061101683606001516080015183611ee9565b9050611040816000856060015160600151866060015160200151611f46909392919063ffffffff16565b83606001516020018181525050505b6000826080015151905060005b818110156110fd5760008460800151828151811061107d5761107c61312b565b5b6020026020010151905060008160a00151146110ef5760006110a38260a0015186611ee9565b90506110e48183608001517fffffffffffffffffffffffffffffffffffffffffffffffffffffffffffffffff8560200151611f6a909392919063ffffffff16565b826020018181525050505b50808060010191505061105c565b50505050565b61110b612b88565b60006040518060e00160405280866040015181526020018660200151815260200185815260200184815260200160008152602001866060015181526020016120078152509050600061115c826120b0565b90506040518060600160405280876000015173ffffffffffffffffffffffffffffffffffffffff1681526020018281526020018760600151815250925050509392505050565b60606000845190508067ffffffffffffffff8111156111c4576111c36130fc565b5b6040519080825280602002602001820160405280156111fd57816020015b6111ea612bbf565b8152602001906001900390816111e25790505b50915060005b8181101561125b576112308682815181106112215761122061312b565b5b602002602001015186866121da565b8382815181106112435761124261312b565b5b60200260200101819052508080600101915050611203565b50509392505050565b61127185858585856122ae565b5050505050565b600073ffffffffffffffffffffffffffffffffffffffff16600160009054906101000a900473ffffffffffffffffffffffffffffffffffffffff1673ffffffffffffffffffffffffffffffffffffffff160315611771576000600160009054906101000a900473ffffffffffffffffffffffffffffffffffffffff1673ffffffffffffffffffffffffffffffffffffffff16638aa6cf03836040518263ffffffff1660e01b815260040161132c9190614988565b600060405180830381865afa158015611349573d6000803e3d6000fd5b505050506040513d6000823e3d601f19601f820116820180604052508101906113729190614ae6565b905060008260400151519050600082519050600081836113929190614b5e565b67ffffffffffffffff8111156113ab576113aa6130fc565b5b6040519080825280602002602001820160405280156113e457816020015b6113d1612bbf565b8152602001906001900390816113c95790505b50905060005b8381101561143c57856040015181815181106114095761140861312b565b5b60200260200101518282815181106114245761142361312b565b5b602002602001018190525080806001019150506113ea565b5060008060005b848110156117605760008782815181106114605761145f61312b565b5b6020026020010151905060005b82811015611518578881815181106114885761148761312b565b5b60200260200101516000015173ffffffffffffffffffffffffffffffffffffffff16826000015173ffffffffffffffffffffffffffffffffffffffff160361150b5781600001516040517ffff0830300000000000000000000000000000000000000000000000000000000815260040161150291906130e1565b60405180910390fd5b808060010191505061146d565b50600080600090505b888110156115e45760008b6040015182815181106115425761154161312b565b5b60200260200101519050836000015173ffffffffffffffffffffffffffffffffffffffff16816000015173ffffffffffffffffffffffffffffffffffffffff16036115d65785156115bf576040517fedc7e2e400000000000000000000000000000000000000000000000000000000815260040160405180910390fd5b8060200151836115cf9190614b5e565b9250600196505b508080600101915050611521565b50816000015173ffffffffffffffffffffffffffffffffffffffff168a602001516000015173ffffffffffffffffffffffffffffffffffffffff160361167757841561165c576040517fedc7e2e400000000000000000000000000000000000000000000000000000000815260040160405180910390fd5b896020015160200151816116709190614b5e565b9050600193505b600081036116c05781600001516040517feddf07f50000000000000000000000000000000000000000000000000000000081526004016116b791906130e1565b60405180910390fd5b6116d86005612710836123749092919063ffffffff16565b82602001511115611730578160000151826020015183604001516040517f82e7565600000000000000000000000000000000000000000000000000000000815260040161172793929190614b92565b60405180910390fd5b8186848a01815181106117465761174561312b565b5b602002602001018190525050508080600101915050611443565b508287604001819052505050505050505b50565b81600001516000015173ffffffffffffffffffffffffffffffffffffffff163073ffffffffffffffffffffffffffffffffffffffff16146117e1576040517f4ddf4a6400000000000000000000000000000000000000000000000000000000815260040160405180910390fd5b600073ffffffffffffffffffffffffffffffffffffffff1682600001516080015173ffffffffffffffffffffffffffffffffffffffff16146118915781600001516080015173ffffffffffffffffffffffffffffffffffffffff16636e84ba2b82846040518363ffffffff1660e01b8152600401611860929190614bc9565b60006040518083038186803b15801561187857600080fd5b505afa15801561188c573d6000803e3d6000fd5b505050505b5050565b7f000000000000000000000000000000000000000000000000000000000000000073ffffffffffffffffffffffffffffffffffffffff1663137c29fe6118da846123b7565b6118ed848661242b90919063ffffffff16565b856000015160200151866080015160405160200161190a9061446d565b6040516020818303038152906040526040518060c00160405280608d8152602001615666608d91396040518060600160405280602e8152602001615638602e913960405160200161195a90614686565b6040516020818303038152906040526040516020016119789061433d565b604051602081830303815290604052604051602001611996906147b6565b6040516020818303038152906040526040516020016119ba96959493929190614c81565b60405160208183030381529060405288606001516040518763ffffffff1660e01b81526004016119ef96959493929190614df6565b600060405180830381600087803b158015611a0957600080fd5b505af1158015611a1d573d6000803e3d6000fd5b505050505050565b611a2e8361246e565b15611a4257611a3d8282611a75565b611a70565b611a6f3383838673ffffffffffffffffffffffffffffffffffffffff166124a6909392919063ffffffff16565b5b505050565b60008273ffffffffffffffffffffffffffffffffffffffff1682604051611a9b90614e8e565b60006040518083038185875af1925050503d8060008114611ad8576040519150601f19603f3d011682016040523d82523d6000602084013e611add565b606091505b5050905080611b18576040517ff4b3b1bc00000000000000000000000000000000000000000000000000000000815260040160405180910390fd5b505050565b60006040518060c00160405280608d8152602001615666608d913980519060200120826000015183602001518460400151856060015186608001518760a0015180519060200120604051602001611b7a9796959493929190614ec1565b604051602081830303815290604052805190602001209050919050565b6000604051602001611ba890614686565b604051602081830303815290604052604051602001611bc69061446d565b604051602081830303815290604052604051602001611be6929190614f30565b6040516020818303038152906040528051906020012082600001518360200151611c138560400151612571565b85606001518660800151604051602001611c3296959493929190614f63565b604051602081830303815290604052805190602001209050919050565b600080825160200267ffffffffffffffff811115611c7057611c6f6130fc565b5b6040519080825280601f01601f191660200182016040528015611ca25781602001600182028036833780820191505090505b50905060008351905060005b81811015611cf6576000611cdb868381518110611cce57611ccd61312b565b5b60200260200101516125f7565b90508060208302602086010152508080600101915050611cae565b50818051906020012092505050919050565b600081468460a00151604051602001611d2191906150e9565b604051602081830303815290604052604051602001611d429392919061514d565b60405160208183030381529060405280519060200120905092915050565b60008082806020019051810190611d7791906151b2565b91509150600083604081518110611d9157611d9061312b565b5b602001015160f81c60f81b60f81c9050600060018683868660405160008152602001604052604051611dc6949392919061520e565b6020604051602081039080840390855afa158015611de8573d6000803e3d6000fd5b5050506020604051035190508073ffffffffffffffffffffffffffffffffffffffff168773ffffffffffffffffffffffffffffffffffffffff16141580611e5b5750600073ffffffffffffffffffffffffffffffffffffffff168173ffffffffffffffffffffffffffffffffffffffff16145b15611e92576040517fd7815be100000000000000000000000000000000000000000000000000000000815260040160405180910390fd5b50505050505050565b600081831015611ecc57611eb98383611eb49190615253565b6126b5565b6000611ec59190615287565b9050611ee3565b611ee08284611edb9190615253565b6126b5565b90505b92915050565b6000808212611f1257611f0b82633b9aca00856123749092919063ffffffff16565b9050611f40565b611f3482611f1f906152ca565b633b9aca00856127229092919063ffffffff16565b611f3d906152ca565b90505b92915050565b6000611f6085856000611f599190615287565b8585611f6a565b9050949350505050565b600080841215611fd257600084611f80906152ca565b905085817fffffffffffffffffffffffffffffffffffffffffffffffffffffffffffffffff611faf9190615253565b1015611fbe5782915050611fff565b8086611fca9190614b5e565b915050611ff1565b83851015611fe257829050611fff565b8385611fee9190615253565b90505b611ffc81848461276e565b90505b949350505050565b6000848410612018578190506120a7565b600086856120269190615253565b9050600087876120369190615253565b905060008585121561207257612062838387896120539190615287565b6123749092919063ffffffff16565b61206b906152ca565b9050612095565b612092838388886120839190615287565b6127229092919063ffffffff16565b90505b80866120a19190615312565b93505050505b95945050505050565b600060108260000151602001515111156120f6576040517f0e99676600000000000000000000000000000000000000000000000000000000815260040160405180910390fd5b816060015182604001511015806121165750600082600001516020015151145b156121435761213c82608001518360a00151846020015161276e9092919063ffffffff16565b90506121d5565b60006121668360400151846060015161215c9190615253565b61ffff801661278c565b905060008060008061217c8760000151866127a5565b935093509350935060006121a78561ffff168561ffff168861ffff1686868d60c0015163ffffffff16565b90506121cc8189608001518a60a001518b60200151611f6a909392919063ffffffff16565b96505050505050505b919050565b6121e2612bbf565b60006040518060e001604052808660400151815260200186602001518152602001858152602001848152602001866080015181526020017fffffffffffffffffffffffffffffffffffffffffffffffffffffffffffffffff81526020016129ad81525090506000612252826120b0565b90506040518060600160405280876000015173ffffffffffffffffffffffffffffffffffffffff168152602001828152602001876060015173ffffffffffffffffffffffffffffffffffffffff16815250925050509392505050565b6122b9848483612a56565b61236d57600082036122f7576040517fb9ec1e9600000000000000000000000000000000000000000000000000000000815260040160405180910390fd5b60008560400151905060005b815181101561236a5760008282815181106123215761232061312b565b5b602002602001015190506123538561271061233c9190614b5e565b61271083602001516127229092919063ffffffff16565b816020018181525050818060010192505050612303565b50505b5050505050565b6000827fffffffffffffffffffffffffffffffffffffffffffffffffffffffffffffffff04841183021582026123a957600080fd5b818385020490509392505050565b6123bf612c0c565b6040518060600160405280604051806040016040528085602001516000015173ffffffffffffffffffffffffffffffffffffffff168152602001856020015160400151815250815260200183600001516040015181526020018360000151606001518152509050919050565b612433612c33565b60405180604001604052808373ffffffffffffffffffffffffffffffffffffffff168152602001846020015160200151815250905092915050565b60008073ffffffffffffffffffffffffffffffffffffffff168273ffffffffffffffffffffffffffffffffffffffff16149050919050565b60006040517f23b872dd00000000000000000000000000000000000000000000000000000000815273ffffffffffffffffffffffffffffffffffffffff8516600482015273ffffffffffffffffffffffffffffffffffffffff841660248201528260448201526020600060648360008a5af13d15601f3d116001600051141617169150508061256a576040517f08c379a0000000000000000000000000000000000000000000000000000000008152600401612561906153a2565b60405180910390fd5b5050505050565b60006040516020016125829061446d565b60405160208183030381529060405280519060200120826000015183602001516040516020016125b2919061547a565b604051602081830303815290604052805190602001206040516020016125da93929190615491565b604051602081830303815290604052805190602001209050919050565b6000604051602001612608906147b6565b6040516020818303038152906040526040516020016126269061446d565b604051602081830303815290604052604051602001612646929190614f30565b60405160208183030381529060405280519060200120826000015183602001516126738560400151612571565b856060015186608001518760a0015160405160200161269897969594939291906154c8565b604051602081830303815290604052805190602001209050919050565b60007f7fffffffffffffffffffffffffffffffffffffffffffffffffffffffffffffff82111561271a576040517f08c379a0000000000000000000000000000000000000000000000000000000008152600401612711906155a9565b60405180910390fd5b819050919050565b6000827fffffffffffffffffffffffffffffffffffffffffffffffffffffffffffffffff048411830215820261275757600080fd5b818385020460008385870206110190509392505050565b600061278361277d8585612ad0565b8361278c565b90509392505050565b600081831061279b578161279d565b825b905092915050565b60008060008060006127ba8760000151612ae9565b90508561ffff166127d5600083612af390919063ffffffff16565b61ffff16106128245760006127f4600083612af390919063ffffffff16565b6000896020015160008151811061280e5761280d61312b565b5b60200260200101519450945094509450506129a4565b6000600188602001515161283891906155d7565b90506000600190505b8161ffff168161ffff1611612924578761ffff1661286c8261ffff1685612af390919063ffffffff16565b61ffff16106129115761289860018261288591906155d7565b61ffff1684612af390919063ffffffff16565b6128af8261ffff1685612af390919063ffffffff16565b8a602001516001846128c191906155d7565b61ffff16815181106128d6576128d561312b565b5b60200260200101518b602001518461ffff16815181106128f9576128f861312b565b5b602002602001015196509650965096505050506129a4565b808061291c9061560d565b915050612841565b5061293c8161ffff1683612af390919063ffffffff16565b6129538261ffff1684612af390919063ffffffff16565b89602001518361ffff168151811061296e5761296d61312b565b5b60200260200101518a602001518461ffff16815181106129915761299061312b565b5b6020026020010151955095509550955050505b92959194509250565b60008484106129be57819050612a4d565b600086856129cc9190615253565b9050600087876129dc9190615253565b9050600085851215612a1857612a08838387896129f99190615287565b6127229092919063ffffffff16565b612a11906152ca565b9050612a3b565b612a3883838888612a299190615287565b6123749092919063ffffffff16565b90505b8086612a479190615312565b93505050505b95945050505050565b60008073ffffffffffffffffffffffffffffffffffffffff168473ffffffffffffffffffffffffffffffffffffffff161480612a9157508282115b80612ac757503373ffffffffffffffffffffffffffffffffffffffff168473ffffffffffffffffffffffffffffffffffffffff16145b90509392505050565b6000818311612adf5781612ae1565b825b905092915050565b6000819050919050565b600060108210612b2f576040517f4e23d03500000000000000000000000000000000000000000000000000000000815260040160405180910390fd5b600060108302905060008185901c9050809250505092915050565b6040518060a00160405280612b5d612c63565b8152602001612b6a612b88565b81526020016060815260200160608152602001600080191681525090565b6040518060600160405280600073ffffffffffffffffffffffffffffffffffffffff16815260200160008152602001600081525090565b6040518060600160405280600073ffffffffffffffffffffffffffffffffffffffff16815260200160008152602001600073ffffffffffffffffffffffffffffffffffffffff1681525090565b6040518060600160405280612c1f612cdb565b815260200160008152602001600081525090565b6040518060400160405280600073ffffffffffffffffffffffffffffffffffffffff168152602001600081525090565b6040518060c00160405280600073ffffffffffffffffffffffffffffffffffffffff168152602001600073ffffffffffffffffffffffffffffffffffffffff1681526020016000815260200160008152602001600073ffffffffffffffffffffffffffffffffffffffff168152602001606081525090565b6040518060400160405280600073ffffffffffffffffffffffffffffffffffffffff168152602001600081525090565b6000604051905090565b600080fd5b600080fd5b600080fd5b600060408284031215612d3a57612d39612d1f565b5b81905092915050565b600080fd5b600080fd5b600080fd5b60008083601f840112612d6857612d67612d43565b5b8235905067ffffffffffffffff811115612d8557612d84612d48565b5b602083019150836001820283011115612da157612da0612d4d565b5b9250929050565b600080600060408486031215612dc157612dc0612d15565b5b600084013567ffffffffffffffff811115612ddf57612dde612d1a565b5b612deb86828701612d24565b935050602084013567ffffffffffffffff811115612e0c57612e0b612d1a565b5b612e1886828701612d52565b92509250509250925092565b60008083601f840112612e3a57612e39612d43565b5b8235905067ffffffffffffffff811115612e5757612e56612d48565b5b602083019150836020820283011115612e7357612e72612d4d565b5b9250929050565b60008060208385031215612e9157612e90612d15565b5b600083013567ffffffffffffffff811115612eaf57612eae612d1a565b5b612ebb85828601612e24565b92509250509250929050565b600073ffffffffffffffffffffffffffffffffffffffff82169050919050565b6000819050919050565b6000612f0c612f07612f0284612ec7565b612ee7565b612ec7565b9050919050565b6000612f1e82612ef1565b9050919050565b6000612f3082612f13565b9050919050565b612f4081612f25565b82525050565b6000602082019050612f5b6000830184612f37565b92915050565b60008060008060408587031215612f7b57612f7a612d15565b5b600085013567ffffffffffffffff811115612f9957612f98612d1a565b5b612fa587828801612e24565b9450945050602085013567ffffffffffffffff811115612fc857612fc7612d1a565b5b612fd487828801612d52565b925092505092959194509250565b6000612fed82612ec7565b9050919050565b612ffd81612fe2565b811461300857600080fd5b50565b60008135905061301a81612ff4565b92915050565b60006020828403121561303657613035612d15565b5b60006130448482850161300b565b91505092915050565b60006020828403121561306357613062612d15565b5b600082013567ffffffffffffffff81111561308157613080612d1a565b5b61308d84828501612d24565b91505092915050565b60006130a182612f13565b9050919050565b6130b181613096565b82525050565b60006020820190506130cc60008301846130a8565b92915050565b6130db81612fe2565b82525050565b60006020820190506130f660008301846130d2565b92915050565b7f4e487b7100000000000000000000000000000000000000000000000000000000600052604160045260246000fd5b7f4e487b7100000000000000000000000000000000000000000000000000000000600052603260045260246000fd5b600081519050919050565b600082825260208201905092915050565b6000819050602082019050919050565b600061319182612f13565b9050919050565b6131a181613186565b82525050565b6131b081612fe2565b82525050565b6000819050919050565b6131c9816131b6565b82525050565b60006131da82612f13565b9050919050565b6131ea816131cf565b82525050565b600081519050919050565b600082825260208201905092915050565b60005b8381101561322a57808201518184015260208101905061320f565b60008484015250505050565b6000601f19601f8301169050919050565b6000613252826131f0565b61325c81856131fb565b935061326c81856020860161320c565b61327581613236565b840191505092915050565b600060c0830160008301516132986000860182613198565b5060208301516132ab60208601826131a7565b5060408301516132be60408601826131c0565b5060608301516132d160608601826131c0565b5060808301516132e460808601826131e1565b5060a083015184820360a08601526132fc8282613247565b9150508091505092915050565b600061331482612f13565b9050919050565b61332481613309565b82525050565b606082016000820151613340600085018261331b565b50602082015161335360208501826131c0565b50604082015161336660408501826131c0565b50505050565b600081519050919050565b600082825260208201905092915050565b6000819050602082019050919050565b6060820160008201516133ae60008501826131a7565b5060208201516133c160208501826131c0565b5060408201516133d460408501826131a7565b50505050565b60006133e68383613398565b60608301905092915050565b6000602082019050919050565b600061340a8261336c565b6134148185613377565b935061341f83613388565b8060005b8381101561345057815161343788826133da565b9750613442836133f2565b925050600181019050613423565b5085935050505092915050565b6000819050919050565b6134708161345d565b82525050565b600060e08301600083015184820360008601526134938282613280565b91505060208301516134a8602086018261332a565b50604083015184820360808601526134c082826133ff565b915050606083015184820360a08601526134da8282613247565b91505060808301516134ef60c0860182613467565b508091505092915050565b60006135068383613476565b905092915050565b6000602082019050919050565b60006135268261315a565b6135308185613165565b93508360208202850161354285613176565b8060005b8581101561357e578484038952815161355f85826134fa565b945061356a8361350e565b925060208a01995050600181019050613546565b50829750879550505050505092915050565b600082825260208201905092915050565b82818337600083830152505050565b60006135bc8385613590565b93506135c98385846135a1565b6135d283613236565b840190509392505050565b600060408201905081810360008301526135f7818661351b565b9050818103602083015261360c8184866135b0565b9050949350505050565b600080fd5b600080fd5b600080fd5b60008235600160400383360303811261364157613640613616565b5b80830191505092915050565b600082825260208201905092915050565b7f554e415554484f52495a45440000000000000000000000000000000000000000600082015250565b6000613694600c8361364d565b915061369f8261365e565b602082019050919050565b600060208201905081810360008301526136c381613687565b9050919050565b60006040820190506136df60008301856130d2565b6136ec60208301846130d2565b9392505050565b6136fc816131b6565b811461370757600080fd5b50565b600081519050613719816136f3565b92915050565b60006020828403121561373557613734612d15565b5b60006137438482850161370a565b91505092915050565b7f5265656e7472616e637947756172643a207265656e7472616e742063616c6c00600082015250565b6000613782601f8361364d565b915061378d8261374c565b602082019050919050565b600060208201905081810360008301526137b181613775565b9050919050565b600080833560016020038436030381126137d5576137d4613616565b5b80840192508235915067ffffffffffffffff8211156137f7576137f661361b565b5b60208301925060018202360383131561381357613812613620565b5b509250929050565b600080fd5b61382982613236565b810181811067ffffffffffffffff82111715613848576138476130fc565b5b80604052505050565b600061385b612d0b565b90506138678282613820565b919050565b600080fd5b600061387c82612fe2565b9050919050565b61388c81613871565b811461389757600080fd5b50565b6000813590506138a981613883565b92915050565b6000813590506138be816136f3565b92915050565b60006138cf82612fe2565b9050919050565b6138df816138c4565b81146138ea57600080fd5b50565b6000813590506138fc816138d6565b92915050565b600080fd5b600067ffffffffffffffff821115613922576139216130fc565b5b61392b82613236565b9050602081019050919050565b600061394b61394684613907565b613851565b90508281526020810184848401111561396757613966613902565b5b6139728482856135a1565b509392505050565b600082601f83011261398f5761398e612d43565b5b813561399f848260208601613938565b91505092915050565b600060c082840312156139be576139bd61381b565b5b6139c860c0613851565b905060006139d88482850161389a565b60008301525060206139ec8482850161300b565b6020830152506040613a00848285016138af565b6040830152506060613a14848285016138af565b6060830152506080613a28848285016138ed565b60808301525060a082013567ffffffffffffffff811115613a4c57613a4b61386c565b5b613a588482850161397a565b60a08301525092915050565b6000613a6f82612fe2565b9050919050565b613a7f81613a64565b8114613a8a57600080fd5b50565b600081359050613a9c81613a76565b92915050565b600067ffffffffffffffff821115613abd57613abc6130fc565b5b602082029050602081019050919050565b6000819050919050565b613ae181613ace565b8114613aec57600080fd5b50565b600081359050613afe81613ad8565b92915050565b6000613b17613b1284613aa2565b613851565b90508083825260208201905060208402830185811115613b3a57613b39612d4d565b5b835b81811015613b635780613b4f8882613aef565b845260208401935050602081019050613b3c565b5050509392505050565b600082601f830112613b8257613b81612d43565b5b8135613b92848260208601613b04565b91505092915050565b600060408284031215613bb157613bb061381b565b5b613bbb6040613851565b90506000613bcb848285016138af565b600083015250602082013567ffffffffffffffff811115613bef57613bee61386c565b5b613bfb84828501613b6d565b60208301525092915050565b600060a08284031215613c1d57613c1c61381b565b5b613c2760a0613851565b90506000613c3784828501613a8d565b6000830152506020613c4b848285016138af565b602083015250604082013567ffffffffffffffff811115613c6f57613c6e61386c565b5b613c7b84828501613b9b565b6040830152506060613c8f848285016138af565b6060830152506080613ca3848285016138af565b60808301525092915050565b600067ffffffffffffffff821115613cca57613cc96130fc565b5b602082029050602081019050919050565b600060c08284031215613cf157613cf061381b565b5b613cfb60c0613851565b90506000613d0b8482850161300b565b6000830152506020613d1f848285016138af565b602083015250604082013567ffffffffffffffff811115613d4357613d4261386c565b5b613d4f84828501613b9b565b6040830152506060613d638482850161300b565b6060830152506080613d77848285016138af565b60808301525060a0613d8b848285016138af565b60a08301525092915050565b6000613daa613da584613caf565b613851565b90508083825260208201905060208402830185811115613dcd57613dcc612d4d565b5b835b81811015613e1457803567ffffffffffffffff811115613df257613df1612d43565b5b808601613dff8982613cdb565b85526020850194505050602081019050613dcf565b5050509392505050565b600082601f830112613e3357613e32612d43565b5b8135613e43848260208601613d97565b91505092915050565b600067ffffffffffffffff821115613e6757613e666130fc565b5b602082029050602081019050919050565b6000613e8b613e8684613e4c565b613851565b90508083825260208201905060208402830185811115613eae57613ead612d4d565b5b835b81811015613ed75780613ec388826138af565b845260208401935050602081019050613eb0565b5050509392505050565b600082601f830112613ef657613ef5612d43565b5b8135613f06848260208601613e78565b91505092915050565b600060a08284031215613f2557613f2461381b565b5b613f2f60a0613851565b90506000613f3f848285016138af565b6000830152506020613f538482850161300b565b6020830152506040613f67848285016138af565b6040830152506060613f7b848285016138af565b606083015250608082013567ffffffffffffffff811115613f9f57613f9e61386c565b5b613fab84828501613ee1565b60808301525092915050565b600060e08284031215613fcd57613fcc61381b565b5b613fd760e0613851565b9050600082013567ffffffffffffffff811115613ff757613ff661386c565b5b614003848285016139a8565b60008301525060206140178482850161300b565b602083015250604061402b848285016138af565b604083015250606082013567ffffffffffffffff81111561404f5761404e61386c565b5b61405b84828501613c07565b606083015250608082013567ffffffffffffffff81111561407f5761407e61386c565b5b61408b84828501613e1e565b60808301525060a082013567ffffffffffffffff8111156140af576140ae61386c565b5b6140bb84828501613f0f565b60a08301525060c082013567ffffffffffffffff8111156140df576140de61386c565b5b6140eb8482850161397a565b60c08301525092915050565b60006020828403121561410d5761410c612d15565b5b600082013567ffffffffffffffff81111561412b5761412a612d1a565b5b61413784828501613fb7565b91505092915050565b614149816131b6565b82525050565b60006020820190506141646000830184614140565b92915050565b600081905092915050565b7f563344757463684f726465722800000000000000000000000000000000000000600082015250565b60006141ab600d8361416a565b91506141b682614175565b600d82019050919050565b7f4f72646572496e666f20696e666f2c0000000000000000000000000000000000600082015250565b60006141f7600f8361416a565b9150614202826141c1565b600f82019050919050565b7f6164647265737320636f7369676e65722c000000000000000000000000000000600082015250565b600061424360118361416a565b915061424e8261420d565b601182019050919050565b7f75696e74323536207374617274696e67426173654665652c0000000000000000600082015250565b600061428f60188361416a565b915061429a82614259565b601882019050919050565b7f56334475746368496e7075742062617365496e7075742c000000000000000000600082015250565b60006142db60178361416a565b91506142e6826142a5565b601782019050919050565b7f563344757463684f75747075745b5d20626173654f7574707574732900000000600082015250565b6000614327601c8361416a565b9150614332826142f1565b601c82019050919050565b60006143488261419e565b9150614353826141ea565b915061435e82614236565b915061436982614282565b9150614374826142ce565b915061437f8261431a565b9150819050919050565b7f4e6f6e6c696e6561724475746368446563617928000000000000000000000000600082015250565b60006143bf60148361416a565b91506143ca82614389565b601482019050919050565b7f75696e743235362072656c6174697665426c6f636b732c000000000000000000600082015250565b600061440b60178361416a565b9150614416826143d5565b601782019050919050565b7f696e743235365b5d2072656c6174697665416d6f756e74732900000000000000600082015250565b600061445760198361416a565b915061446282614421565b601982019050919050565b6000614478826143b2565b9150614483826143fe565b915061448e8261444a565b9150819050919050565b7f56334475746368496e7075742800000000000000000000000000000000000000600082015250565b60006144ce600d8361416a565b91506144d982614498565b600d82019050919050565b7f6164647265737320746f6b656e2c000000000000000000000000000000000000600082015250565b600061451a600e8361416a565b9150614525826144e4565b600e82019050919050565b7f75696e74323536207374617274416d6f756e742c000000000000000000000000600082015250565b600061456660148361416a565b915061457182614530565b601482019050919050565b7f4e6f6e6c696e656172447574636844656361792063757276652c000000000000600082015250565b60006145b2601a8361416a565b91506145bd8261457c565b601a82019050919050565b7f75696e74323536206d6178416d6f756e742c0000000000000000000000000000600082015250565b60006145fe60128361416a565b9150614609826145c8565b601282019050919050565b7f75696e743235362061646a7573746d656e74506572477765694261736546656560008201527f2900000000000000000000000000000000000000000000000000000000000000602082015250565b600061467060218361416a565b915061467b82614614565b602182019050919050565b6000614691826144c1565b915061469c8261450d565b91506146a782614559565b91506146b2826145a5565b91506146bd826145f1565b91506146c882614663565b9150819050919050565b7f563344757463684f757470757428000000000000000000000000000000000000600082015250565b6000614708600e8361416a565b9150614713826146d2565b600e82019050919050565b7f6164647265737320726563697069656e742c0000000000000000000000000000600082015250565b600061475460128361416a565b915061475f8261471e565b601282019050919050565b7f75696e74323536206d696e416d6f756e742c0000000000000000000000000000600082015250565b60006147a060128361416a565b91506147ab8261476a565b601282019050919050565b60006147c1826146fb565b91506147cc8261450d565b91506147d782614559565b91506147e2826145a5565b91506147ed82614747565b91506147f882614793565b915061480382614663565b9150819050919050565b600081905092915050565b6000614823826131f0565b61482d818561480d565b935061483d81856020860161320c565b80840191505092915050565b60006148558288614818565b91506148618287614818565b915061486d8286614818565b91506148798285614818565b91506148858284614818565b91508190509695505050505050565b61489d8161345d565b82525050565b600060c0820190506148b86000830189614894565b6148c56020830188614894565b6148d260408301876130d2565b6148df6060830186614140565b6148ec6080830185614894565b6148f960a0830184614894565b979650505050505050565b600060e08301600083015184820360008601526149218282613280565b9150506020830151614936602086018261332a565b506040830151848203608086015261494e82826133ff565b915050606083015184820360a08601526149688282613247565b915050608083015161497d60c0860182613467565b508091505092915050565b600060208201905081810360008301526149a28184614904565b905092915050565b600067ffffffffffffffff8211156149c5576149c46130fc565b5b602082029050602081019050919050565b6000815190506149e581612ff4565b92915050565b600060608284031215614a0157614a0061381b565b5b614a0b6060613851565b90506000614a1b848285016149d6565b6000830152506020614a2f8482850161370a565b6020830152506040614a43848285016149d6565b60408301525092915050565b6000614a62614a5d846149aa565b613851565b90508083825260208201905060608402830185811115614a8557614a84612d4d565b5b835b81811015614aae5780614a9a88826149eb565b845260208401935050606081019050614a87565b5050509392505050565b600082601f830112614acd57614acc612d43565b5b8151614add848260208601614a4f565b91505092915050565b600060208284031215614afc57614afb612d15565b5b600082015167ffffffffffffffff811115614b1a57614b19612d1a565b5b614b2684828501614ab8565b91505092915050565b7f4e487b7100000000000000000000000000000000000000000000000000000000600052601160045260246000fd5b6000614b69826131b6565b9150614b74836131b6565b9250828201905080821115614b8c57614b8b614b2f565b5b92915050565b6000606082019050614ba760008301866130d2565b614bb46020830185614140565b614bc160408301846130d2565b949350505050565b6000604082019050614bde60008301856130d2565b8181036020830152614bf08184614904565b90509392505050565b7f563344757463684f72646572207769746e657373290000000000000000000000600082015250565b6000614c2f60158361416a565b9150614c3a82614bf9565b601582019050919050565b600081519050919050565b6000614c5b82614c45565b614c65818561416a565b9350614c7581856020860161320c565b80840191505092915050565b6000614c8c82614c22565b9150614c988289614818565b9150614ca48288614818565b9150614cb08287614c50565b9150614cbc8286614818565b9150614cc88285614818565b9150614cd48284614818565b9150819050979650505050505050565b604082016000820151614cfa60008501826131a7565b506020820151614d0d60208501826131c0565b50505050565b608082016000820151614d296000850182614ce4565b506020820151614d3c60408501826131c0565b506040820151614d4f60608501826131c0565b50505050565b604082016000820151614d6b60008501826131a7565b506020820151614d7e60208501826131c0565b50505050565b6000614d8f82614c45565b614d99818561364d565b9350614da981856020860161320c565b614db281613236565b840191505092915050565b6000614dc8826131f0565b614dd28185613590565b9350614de281856020860161320c565b614deb81613236565b840191505092915050565b600061014082019050614e0c6000830189614d13565b614e196080830188614d55565b614e2660c08301876130d2565b614e3360e0830186614894565b818103610100830152614e468185614d84565b9050818103610120830152614e5b8184614dbd565b9050979650505050505050565b50565b6000614e7860008361480d565b9150614e8382614e68565b600082019050919050565b6000614e9982614e6b565b9150819050919050565b614eac81613186565b82525050565b614ebb816131cf565b82525050565b600060e082019050614ed6600083018a614894565b614ee36020830189614ea3565b614ef060408301886130d2565b614efd6060830187614140565b614f0a6080830186614140565b614f1760a0830185614eb2565b614f2460c0830184614894565b98975050505050505050565b6000614f3c8285614818565b9150614f488284614818565b91508190509392505050565b614f5d81613309565b82525050565b600060c082019050614f786000830189614894565b614f856020830188614f54565b614f926040830187614140565b614f9f6060830186614894565b614fac6080830185614140565b614fb960a0830184614140565b979650505050505050565b600081519050919050565b600082825260208201905092915050565b6000819050602082019050919050565b6000614ffc83836131c0565b60208301905092915050565b6000602082019050919050565b600061502082614fc4565b61502a8185614fcf565b935061503583614fe0565b8060005b8381101561506657815161504d8882614ff0565b975061505883615008565b925050600181019050615039565b5085935050505092915050565b600060a08301600083015161508b60008601826131c0565b50602083015161509e60208601826131a7565b5060408301516150b160408601826131c0565b5060608301516150c460608601826131c0565b50608083015184820360808601526150dc8282615015565b9150508091505092915050565b600060208201905081810360008301526151038184615073565b905092915050565b6000819050919050565b6151266151218261345d565b61510b565b82525050565b6000819050919050565b615147615142826131b6565b61512c565b82525050565b60006151598286615115565b6020820191506151698285615136565b6020820191506151798284614818565b9150819050949350505050565b61518f8161345d565b811461519a57600080fd5b50565b6000815190506151ac81615186565b92915050565b600080604083850312156151c9576151c8612d15565b5b60006151d78582860161519d565b92505060206151e88582860161519d565b9150509250929050565b600060ff82169050919050565b615208816151f2565b82525050565b60006080820190506152236000830187614894565b61523060208301866151ff565b61523d6040830185614894565b61524a6060830184614894565b95945050505050565b600061525e826131b6565b9150615269836131b6565b925082820390508181111561528157615280614b2f565b5b92915050565b600061529282613ace565b915061529d83613ace565b92508282039050818112600084121682821360008512151617156152c4576152c3614b2f565b5b92915050565b60006152d582613ace565b91507f8000000000000000000000000000000000000000000000000000000000000000820361530757615306614b2f565b5b816000039050919050565b600061531d82613ace565b915061532883613ace565b9250828201905082811215600083121683821260008412151617156153505761534f614b2f565b5b92915050565b7f5452414e534645525f46524f4d5f4641494c4544000000000000000000000000600082015250565b600061538c60148361364d565b915061539782615356565b602082019050919050565b600060208201905081810360008301526153bb8161537f565b9050919050565b600081519050919050565b600081905092915050565b6000819050602082019050919050565b6153f181613ace565b82525050565b600061540383836153e8565b60208301905092915050565b6000602082019050919050565b6000615427826153c2565b61543181856153cd565b935061543c836153d8565b8060005b8381101561546d57815161545488826153f7565b975061545f8361540f565b925050600181019050615440565b5085935050505092915050565b6000615486828461541c565b915081905092915050565b60006060820190506154a66000830186614894565b6154b36020830185614140565b6154c06040830184614894565b949350505050565b600060e0820190506154dd600083018a614894565b6154ea60208301896130d2565b6154f76040830188614140565b6155046060830187614894565b61551160808301866130d2565b61551e60a0830185614140565b61552b60c0830184614140565b98975050505050505050565b7f53616665436173743a2076616c756520646f65736e27742066697420696e206160008201527f6e20696e74323536000000000000000000000000000000000000000000000000602082015250565b600061559360288361364d565b915061559e82615537565b604082019050919050565b600060208201905081810360008301526155c281615586565b9050919050565b600061ffff82169050919050565b60006155e2826155c9565b91506155ed836155c9565b9250828203905061ffff81111561560757615606614b2f565b5b92915050565b6000615618826155c9565b915061ffff820361562c5761562b614b2f565b5b60018201905091905056fe546f6b656e5065726d697373696f6e73286164647265737320746f6b656e2c75696e7432353620616d6f756e74294f72646572496e666f28616464726573732072656163746f722c6164647265737320737761707065722c75696e74323536206e6f6e63652c75696e7432353620646561646c696e652c61646472657373206164646974696f6e616c56616c69646174696f6e436f6e74726163742c6279746573206164646974696f6e616c56616c69646174696f6e4461746129a26469706673582212205dadfb70e6bd1e27bfb0104ac1f758ec372cfd40190ca5e18e5b1e42debf7d5064736f6c634300081c0033",
  "linkReferences": {},
  "deployedLinkReferences": {}
}