{
  "_format": "hh-sol-artifact-1",
  "contractName": "LimitOrderReactor",
  "sourceName": "src/reactors/LimitOrderReactor.sol",
  "abi": [
    {
      "inputs": [
        {
          "internalType": "contract IPermit2",
          "name": "_permit2",
          "type": "address"
        },
        {
          "internalType": "address",
          "name": "_protocolFeeOwner",
          "type": "address"
        }
      ],
      "stateMutability": "nonpayable",
      "type": "constructor"
    },
    {
      "inputs": [
        {
          "internalType": "address",
          "name": "duplicateToken",
          "type": "address"
        }
      ],
      "name": "DuplicateFeeOutput",
      "type": "error"
    },
    {
      "inputs": [
        {
          "internalType": "address",
          "name": "token",
          "type": "address"
        },
        {
          "internalType": "uint256",
          "name": "amount",
          "type": "uint256"
        },
        {
          "internalType": "address",
          "name": "recipient",
          "type": "address"
        }
      ],
      "name": "FeeTooLarge",
      "type": "error"
    },
    {
      "inputs": [],
      "name": "InputAndOutputFees",
      "type": "error"
    },
    {
      "inputs": [
        {
          "internalType": "address",
          "name": "feeToken",
          "type": "address"
        }
      ],
      "name": "InvalidFeeToken",
      "type": "error"
    },
    {
      "inputs": [],
      "name": "InvalidReactor",
      "type": "error"
    },
    {
      "inputs": [],
      "name": "NativeTransferFailed",
      "type": "error"
    },
    {
      "anonymous": false,
      "inputs": [
        {
          "indexed": true,
          "internalType": "bytes32",
          "name": "orderHash",
          "type": "bytes32"
        },
        {
          "indexed": true,
          "internalType": "address",
          "name": "filler",
          "type": "address"
        },
        {
          "indexed": true,
          "internalType": "address",
          "name": "swapper",
          "type": "address"
        },
        {
          "indexed": false,
          "internalType": "uint256",
          "name": "nonce",
          "type": "uint256"
        }
      ],
      "name": "Fill",
      "type": "event"
    },
    {
      "anonymous": false,
      "inputs": [
        {
          "indexed": true,
          "internalType": "address",
          "name": "user",
          "type": "address"
        },
        {
          "indexed": true,
          "internalType": "address",
          "name": "newOwner",
          "type": "address"
        }
      ],
      "name": "OwnershipTransferred",
      "type": "event"
    },
    {
      "anonymous": false,
      "inputs": [
        {
          "indexed": false,
          "internalType": "address",
          "name": "oldFeeController",
          "type": "address"
        },
        {
          "indexed": false,
          "internalType": "address",
          "name": "newFeeController",
          "type": "address"
        }
      ],
      "name": "ProtocolFeeControllerSet",
      "type": "event"
    },
    {
      "inputs": [
        {
          "components": [
            {
              "internalType": "bytes",
              "name": "order",
              "type": "bytes"
            },
            {
              "internalType": "bytes",
              "name": "sig",
              "type": "bytes"
            }
          ],
          "internalType": "struct SignedOrder",
          "name": "order",
          "type": "tuple"
        }
      ],
      "name": "execute",
      "outputs": [],
      "stateMutability": "payable",
      "type": "function"
    },
    {
      "inputs": [
        {
          "components": [
            {
              "internalType": "bytes",
              "name": "order",
              "type": "bytes"
            },
            {
              "internalType": "bytes",
              "name": "sig",
              "type": "bytes"
            }
          ],
          "internalType": "struct SignedOrder[]",
          "name": "orders",
          "type": "tuple[]"
        }
      ],
      "name": "executeBatch",
      "outputs": [],
      "stateMutability": "payable",
      "type": "function"
    },
    {
      "inputs": [
        {
          "components": [
            {
              "internalType": "bytes",
              "name": "order",
              "type": "bytes"
            },
            {
              "internalType": "bytes",
              "name": "sig",
              "type": "bytes"
            }
          ],
          "internalType": "struct SignedOrder[]",
          "name": "orders",
          "type": "tuple[]"
        },
        {
          "internalType": "bytes",
          "name": "callbackData",
          "type": "bytes"
        }
      ],
      "name": "executeBatchWithCallback",
      "outputs": [],
      "stateMutability": "payable",
      "type": "function"
    },
    {
      "inputs": [
        {
          "components": [
            {
              "internalType": "bytes",
              "name": "order",
              "type": "bytes"
            },
            {
              "internalType": "bytes",
              "name": "sig",
              "type": "bytes"
            }
          ],
          "internalType": "struct SignedOrder",
          "name": "order",
          "type": "tuple"
        },
        {
          "internalType": "bytes",
          "name": "callbackData",
          "type": "bytes"
        }
      ],
      "name": "executeWithCallback",
      "outputs": [],
      "stateMutability": "payable",
      "type": "function"
    },
    {
      "inputs": [],
      "name": "feeController",
      "outputs": [
        {
          "internalType": "contract IProtocolFeeController",
          "name": "",
          "type": "address"
        }
      ],
      "stateMutability": "view",
      "type": "function"
    },
    {
      "inputs": [],
      "name": "owner",
      "outputs": [
        {
          "internalType": "address",
          "name": "",
          "type": "address"
        }
      ],
      "stateMutability": "view",
      "type": "function"
    },
    {
      "inputs": [],
      "name": "permit2",
      "outputs": [
        {
          "internalType": "contract IPermit2",
          "name": "",
          "type": "address"
        }
      ],
      "stateMutability": "view",
      "type": "function"
    },
    {
      "inputs": [
        {
          "internalType": "address",
          "name": "_newFeeController",
          "type": "address"
        }
      ],
      "name": "setProtocolFeeController",
      "outputs": [],
      "stateMutability": "nonpayable",
      "type": "function"
    },
    {
      "inputs": [
        {
          "internalType": "address",
          "name": "newOwner",
          "type": "address"
        }
      ],
      "name": "transferOwnership",
      "outputs": [],
      "stateMutability": "nonpayable",
      "type": "function"
    },
    {
      "stateMutability": "payable",
      "type": "receive"
    }
  ],
  "bytecode": "0x60a060405234801561001057600080fd5b50604051613652380380613652833981810160405281019061003291906101b9565b81818080806000806101000a81548173ffffffffffffffffffffffffffffffffffffffff021916908373ffffffffffffffffffffffffffffffffffffffff1602179055508073ffffffffffffffffffffffffffffffffffffffff16600073ffffffffffffffffffffffffffffffffffffffff167f8be0079c531659141344cd1fd0a4f28419497f9722a3daafe3b4186f6b6457e060405160405180910390a3505060016002819055508173ffffffffffffffffffffffffffffffffffffffff1660808173ffffffffffffffffffffffffffffffffffffffff1681525050505050506101f9565b600080fd5b600073ffffffffffffffffffffffffffffffffffffffff82169050919050565b60006101488261011d565b9050919050565b600061015a8261013d565b9050919050565b61016a8161014f565b811461017557600080fd5b50565b60008151905061018781610161565b92915050565b6101968161013d565b81146101a157600080fd5b50565b6000815190506101b38161018d565b92915050565b600080604083850312156101d0576101cf610118565b5b60006101de85828601610178565b92505060206101ef858286016101a4565b9150509250929050565b60805161343761021b600039600081816103df015261126c01526134376000f3fe60806040526004361061008a5760003560e01c80632d771389116100595780632d771389146101155780633f62192e1461013e5780636999b3771461015a5780638da5cb5b14610185578063f2fde38b146101b057610091565b80630d335884146100965780630d7a16c3146100b257806312261ee7146100ce57806313fb72c7146100f957610091565b3661009157005b600080fd5b6100b060048036038101906100ab9190611a98565b6101d9565b005b6100cc60048036038101906100c79190611b6a565b6102f1565b005b3480156100da57600080fd5b506100e36103dd565b6040516100f09190611c36565b60405180910390f35b610113600480360381019061010e9190611c51565b610401565b005b34801561012157600080fd5b5061013c60048036038101906101379190611d10565b61055e565b005b61015860048036038101906101539190611d3d565b610691565b005b34801561016657600080fd5b5061016f610738565b60405161017c9190611da7565b60405180910390f35b34801561019157600080fd5b5061019a61075e565b6040516101a79190611dd1565b60405180910390f35b3480156101bc57600080fd5b506101d760048036038101906101d29190611d10565b610782565b005b6101e16108ad565b6000600167ffffffffffffffff8111156101fe576101fd611dec565b5b60405190808252806020026020018201604052801561023757816020015b61022461183a565b81526020019060019003908161021c5790505b509050610243846108fa565b8160008151811061025757610256611e1b565b5b602002602001018190525061026b816109b8565b3373ffffffffffffffffffffffffffffffffffffffff1663585da6288285856040518463ffffffff1660e01b81526004016102a8939291906122cd565b600060405180830381600087803b1580156102c257600080fd5b505af11580156102d6573d6000803e3d6000fd5b505050506102e381610a21565b506102ec610b8b565b505050565b6102f96108ad565b600082829050905060008167ffffffffffffffff81111561031d5761031c611dec565b5b60405190808252806020026020018201604052801561035657816020015b61034361183a565b81526020019060019003908161033b5790505b50905060005b828110156103bc5761039185858381811061037a57610379611e1b565b5b905060200281019061038c9190612315565b6108fa565b8282815181106103a4576103a3611e1b565b5b6020026020010181905250808060010191505061035c565b506103c6816109b8565b6103cf81610a21565b50506103d9610b8b565b5050565b7f000000000000000000000000000000000000000000000000000000000000000081565b6104096108ad565b600084849050905060008167ffffffffffffffff81111561042d5761042c611dec565b5b60405190808252806020026020018201604052801561046657816020015b61045361183a565b81526020019060019003908161044b5790505b50905060005b828110156104cc576104a187878381811061048a57610489611e1b565b5b905060200281019061049c9190612315565b6108fa565b8282815181106104b4576104b3611e1b565b5b6020026020010181905250808060010191505061046c565b506104d6816109b8565b3373ffffffffffffffffffffffffffffffffffffffff1663585da6288286866040518463ffffffff1660e01b8152600401610513939291906122cd565b600060405180830381600087803b15801561052d57600080fd5b505af1158015610541573d6000803e3d6000fd5b5050505061054e81610a21565b5050610558610b8b565b50505050565b60008054906101000a900473ffffffffffffffffffffffffffffffffffffffff1673ffffffffffffffffffffffffffffffffffffffff163373ffffffffffffffffffffffffffffffffffffffff16146105ec576040517f08c379a00000000000000000000000000000000000000000000000000000000081526004016105e39061239a565b60405180910390fd5b6000600160009054906101000a900473ffffffffffffffffffffffffffffffffffffffff16905081600160006101000a81548173ffffffffffffffffffffffffffffffffffffffff021916908373ffffffffffffffffffffffffffffffffffffffff1602179055507fb904ae9529e373e48bc82df4326cceaf1b4c472babf37f5b7dec46fecc6b53e081836040516106859291906123ba565b60405180910390a15050565b6106996108ad565b6000600167ffffffffffffffff8111156106b6576106b5611dec565b5b6040519080825280602002602001820160405280156106ef57816020015b6106dc61183a565b8152602001906001900390816106d45790505b5090506106fb826108fa565b8160008151811061070f5761070e611e1b565b5b6020026020010181905250610723816109b8565b61072c81610a21565b50610735610b8b565b50565b600160009054906101000a900473ffffffffffffffffffffffffffffffffffffffff1681565b60008054906101000a900473ffffffffffffffffffffffffffffffffffffffff1681565b60008054906101000a900473ffffffffffffffffffffffffffffffffffffffff1673ffffffffffffffffffffffffffffffffffffffff163373ffffffffffffffffffffffffffffffffffffffff1614610810576040517f08c379a00000000000000000000000000000000000000000000000000000000081526004016108079061239a565b60405180910390fd5b806000806101000a81548173ffffffffffffffffffffffffffffffffffffffff021916908373ffffffffffffffffffffffffffffffffffffffff1602179055508073ffffffffffffffffffffffffffffffffffffffff163373ffffffffffffffffffffffffffffffffffffffff167f8be0079c531659141344cd1fd0a4f28419497f9722a3daafe3b4186f6b6457e060405160405180910390a350565b60028054036108f1576040517f08c379a00000000000000000000000000000000000000000000000000000000081526004016108e89061242f565b60405180910390fd5b60028081905550565b61090261183a565b6000828060000190610914919061244f565b8101906109219190612977565b90506040518060a0016040528082600001518152602001826020015181526020018260400151815260200184806020019061095c919061244f565b8080601f016020809104026020016040519081016040528093929190818152602001838380828437600081840152601f19601f8201169050808301925050505050505081526020016109ad83610b95565b815250915050919050565b60008151905060005b81811015610a1c5760008382815181106109de576109dd611e1b565b5b602002602001015190506109f181610c4d565b610a04338261114990919063ffffffff16565b610a0e813361126a565b5080806001019150506109c1565b505050565b60008151905060005b81811015610b72576000838281518110610a4757610a46611e1b565b5b602002602001015190506000816040015151905060005b81811015610ace57600083604001518281518110610a7f57610a7e611e1b565b5b60200260200101519050610ac081604001518260200151836000015173ffffffffffffffffffffffffffffffffffffffff166113b79092919063ffffffff16565b508080600101915050610a5e565b5081600001516020015173ffffffffffffffffffffffffffffffffffffffff163373ffffffffffffffffffffffffffffffffffffffff16868581518110610b1857610b17611e1b565b5b6020026020010151608001517f78ad7ec0e9f89e74012afa58738b6b661c024cb0fd185ee2f616c0a28924bd66856000015160400151604051610b5b91906129cf565b60405180910390a450508080600101915050610a2a565b506000471115610b8757610b863347611407565b5b5050565b6001600281905550565b60006040518060c00160405280608d8152602001613375608d91396040518060600160405280603b815260200161330c603b9139604051602001610bda929190612bad565b60405160208183030381529060405280519060200120610bfd83600001516114af565b836020015160000151846020015160200151610c1c8660400151611529565b604051602001610c30959493929190612c26565b604051602081830303815290604052805190602001209050919050565b600073ffffffffffffffffffffffffffffffffffffffff16600160009054906101000a900473ffffffffffffffffffffffffffffffffffffffff1673ffffffffffffffffffffffffffffffffffffffff160315611146576000600160009054906101000a900473ffffffffffffffffffffffffffffffffffffffff1673ffffffffffffffffffffffffffffffffffffffff16638aa6cf03836040518263ffffffff1660e01b8152600401610d019190612cfd565b600060405180830381865afa158015610d1e573d6000803e3d6000fd5b505050506040513d6000823e3d601f19601f82011682018060405250810190610d479190612e44565b90506000826040015151905060008251905060008183610d679190612ebc565b67ffffffffffffffff811115610d8057610d7f611dec565b5b604051908082528060200260200182016040528015610db957816020015b610da6611878565b815260200190600190039081610d9e5790505b50905060005b83811015610e115785604001518181518110610dde57610ddd611e1b565b5b6020026020010151828281518110610df957610df8611e1b565b5b60200260200101819052508080600101915050610dbf565b5060008060005b84811015611135576000878281518110610e3557610e34611e1b565b5b6020026020010151905060005b82811015610eed57888181518110610e5d57610e5c611e1b565b5b60200260200101516000015173ffffffffffffffffffffffffffffffffffffffff16826000015173ffffffffffffffffffffffffffffffffffffffff1603610ee05781600001516040517ffff08303000000000000000000000000000000000000000000000000000000008152600401610ed79190611dd1565b60405180910390fd5b8080600101915050610e42565b50600080600090505b88811015610fb95760008b604001518281518110610f1757610f16611e1b565b5b60200260200101519050836000015173ffffffffffffffffffffffffffffffffffffffff16816000015173ffffffffffffffffffffffffffffffffffffffff1603610fab578515610f94576040517fedc7e2e400000000000000000000000000000000000000000000000000000000815260040160405180910390fd5b806020015183610fa49190612ebc565b9250600196505b508080600101915050610ef6565b50816000015173ffffffffffffffffffffffffffffffffffffffff168a602001516000015173ffffffffffffffffffffffffffffffffffffffff160361104c578415611031576040517fedc7e2e400000000000000000000000000000000000000000000000000000000815260040160405180910390fd5b896020015160200151816110459190612ebc565b9050600193505b600081036110955781600001516040517feddf07f500000000000000000000000000000000000000000000000000000000815260040161108c9190611dd1565b60405180910390fd5b6110ad6005612710836115dc9092919063ffffffff16565b82602001511115611105578160000151826020015183604001516040517f82e756560000000000000000000000000000000000000000000000000000000081526004016110fc93929190612ef0565b60405180910390fd5b8186848a018151811061111b5761111a611e1b565b5b602002602001018190525050508080600101915050610e18565b508287604001819052505050505050505b50565b81600001516000015173ffffffffffffffffffffffffffffffffffffffff163073ffffffffffffffffffffffffffffffffffffffff16146111b6576040517f4ddf4a6400000000000000000000000000000000000000000000000000000000815260040160405180910390fd5b600073ffffffffffffffffffffffffffffffffffffffff1682600001516080015173ffffffffffffffffffffffffffffffffffffffff16146112665781600001516080015173ffffffffffffffffffffffffffffffffffffffff16636e84ba2b82846040518363ffffffff1660e01b8152600401611235929190612f27565b60006040518083038186803b15801561124d57600080fd5b505afa158015611261573d6000803e3d6000fd5b505050505b5050565b7f000000000000000000000000000000000000000000000000000000000000000073ffffffffffffffffffffffffffffffffffffffff1663137c29fe6112af8461161f565b6112c2848661169390919063ffffffff16565b85600001516020015186608001516040518060c00160405280608d8152602001613375608d91396040518060600160405280603b815260200161330c603b9139604051602001611313929190612bad565b6040516020818303038152906040526040518060600160405280602e8152602001613347602e913960405160200161134c929190612fdf565b60405160208183030381529060405288606001516040518763ffffffff1660e01b815260040161138196959493929190613120565b600060405180830381600087803b15801561139b57600080fd5b505af11580156113af573d6000803e3d6000fd5b505050505050565b6113c0836116d6565b156113d4576113cf8282611407565b611402565b6114013383838673ffffffffffffffffffffffffffffffffffffffff1661170e909392919063ffffffff16565b5b505050565b60008273ffffffffffffffffffffffffffffffffffffffff168260405161142d906131b8565b60006040518083038185875af1925050503d806000811461146a576040519150601f19603f3d011682016040523d82523d6000602084013e61146f565b606091505b50509050806114aa576040517ff4b3b1bc00000000000000000000000000000000000000000000000000000000815260040160405180910390fd5b505050565b60006040518060c00160405280608d8152602001613375608d913980519060200120826000015183602001518460400151856060015186608001518760a001518051906020012060405160200161150c97969594939291906131eb565b604051602081830303815290604052805190602001209050919050565b600080825160200267ffffffffffffffff81111561154a57611549611dec565b5b6040519080825280601f01601f19166020018201604052801561157c5781602001600182028036833780820191505090505b50905060005b83518110156115cb5760006115b08583815181106115a3576115a2611e1b565b5b60200260200101516117d9565b90508060208302602085010152508080600101915050611582565b508080519060200120915050919050565b6000827fffffffffffffffffffffffffffffffffffffffffffffffffffffffffffffffff048411830215820261161157600080fd5b818385020490509392505050565b6116276118c5565b6040518060600160405280604051806040016040528085602001516000015173ffffffffffffffffffffffffffffffffffffffff168152602001856020015160400151815250815260200183600001516040015181526020018360000151606001518152509050919050565b61169b6118ec565b60405180604001604052808373ffffffffffffffffffffffffffffffffffffffff168152602001846020015160200151815250905092915050565b60008073ffffffffffffffffffffffffffffffffffffffff168273ffffffffffffffffffffffffffffffffffffffff16149050919050565b60006040517f23b872dd00000000000000000000000000000000000000000000000000000000815273ffffffffffffffffffffffffffffffffffffffff8516600482015273ffffffffffffffffffffffffffffffffffffffff841660248201528260448201526020600060648360008a5af13d15601f3d11600160005114161716915050806117d2576040517f08c379a00000000000000000000000000000000000000000000000000000000081526004016117c9906132a6565b60405180910390fd5b5050505050565b60006040518060600160405280603b815260200161330c603b91398051906020012082600001518360200151846040015160405160200161181d94939291906132c6565b604051602081830303815290604052805190602001209050919050565b6040518060a0016040528061184d61191c565b815260200161185a611994565b81526020016060815260200160608152602001600080191681525090565b6040518060600160405280600073ffffffffffffffffffffffffffffffffffffffff16815260200160008152602001600073ffffffffffffffffffffffffffffffffffffffff1681525090565b60405180606001604052806118d86119cb565b815260200160008152602001600081525090565b6040518060400160405280600073ffffffffffffffffffffffffffffffffffffffff168152602001600081525090565b6040518060c00160405280600073ffffffffffffffffffffffffffffffffffffffff168152602001600073ffffffffffffffffffffffffffffffffffffffff1681526020016000815260200160008152602001600073ffffffffffffffffffffffffffffffffffffffff168152602001606081525090565b6040518060600160405280600073ffffffffffffffffffffffffffffffffffffffff16815260200160008152602001600081525090565b6040518060400160405280600073ffffffffffffffffffffffffffffffffffffffff168152602001600081525090565b6000604051905090565b600080fd5b600080fd5b600080fd5b600060408284031215611a2a57611a29611a0f565b5b81905092915050565b600080fd5b600080fd5b600080fd5b60008083601f840112611a5857611a57611a33565b5b8235905067ffffffffffffffff811115611a7557611a74611a38565b5b602083019150836001820283011115611a9157611a90611a3d565b5b9250929050565b600080600060408486031215611ab157611ab0611a05565b5b600084013567ffffffffffffffff811115611acf57611ace611a0a565b5b611adb86828701611a14565b935050602084013567ffffffffffffffff811115611afc57611afb611a0a565b5b611b0886828701611a42565b92509250509250925092565b60008083601f840112611b2a57611b29611a33565b5b8235905067ffffffffffffffff811115611b4757611b46611a38565b5b602083019150836020820283011115611b6357611b62611a3d565b5b9250929050565b60008060208385031215611b8157611b80611a05565b5b600083013567ffffffffffffffff811115611b9f57611b9e611a0a565b5b611bab85828601611b14565b92509250509250929050565b600073ffffffffffffffffffffffffffffffffffffffff82169050919050565b6000819050919050565b6000611bfc611bf7611bf284611bb7565b611bd7565b611bb7565b9050919050565b6000611c0e82611be1565b9050919050565b6000611c2082611c03565b9050919050565b611c3081611c15565b82525050565b6000602082019050611c4b6000830184611c27565b92915050565b60008060008060408587031215611c6b57611c6a611a05565b5b600085013567ffffffffffffffff811115611c8957611c88611a0a565b5b611c9587828801611b14565b9450945050602085013567ffffffffffffffff811115611cb857611cb7611a0a565b5b611cc487828801611a42565b925092505092959194509250565b6000611cdd82611bb7565b9050919050565b611ced81611cd2565b8114611cf857600080fd5b50565b600081359050611d0a81611ce4565b92915050565b600060208284031215611d2657611d25611a05565b5b6000611d3484828501611cfb565b91505092915050565b600060208284031215611d5357611d52611a05565b5b600082013567ffffffffffffffff811115611d7157611d70611a0a565b5b611d7d84828501611a14565b91505092915050565b6000611d9182611c03565b9050919050565b611da181611d86565b82525050565b6000602082019050611dbc6000830184611d98565b92915050565b611dcb81611cd2565b82525050565b6000602082019050611de66000830184611dc2565b92915050565b7f4e487b7100000000000000000000000000000000000000000000000000000000600052604160045260246000fd5b7f4e487b7100000000000000000000000000000000000000000000000000000000600052603260045260246000fd5b600081519050919050565b600082825260208201905092915050565b6000819050602082019050919050565b6000611e8182611c03565b9050919050565b611e9181611e76565b82525050565b611ea081611cd2565b82525050565b6000819050919050565b611eb981611ea6565b82525050565b6000611eca82611c03565b9050919050565b611eda81611ebf565b82525050565b600081519050919050565b600082825260208201905092915050565b60005b83811015611f1a578082015181840152602081019050611eff565b60008484015250505050565b6000601f19601f8301169050919050565b6000611f4282611ee0565b611f4c8185611eeb565b9350611f5c818560208601611efc565b611f6581611f26565b840191505092915050565b600060c083016000830151611f886000860182611e88565b506020830151611f9b6020860182611e97565b506040830151611fae6040860182611eb0565b506060830151611fc16060860182611eb0565b506080830151611fd46080860182611ed1565b5060a083015184820360a0860152611fec8282611f37565b9150508091505092915050565b600061200482611c03565b9050919050565b61201481611ff9565b82525050565b606082016000820151612030600085018261200b565b5060208201516120436020850182611eb0565b5060408201516120566040850182611eb0565b50505050565b600081519050919050565b600082825260208201905092915050565b6000819050602082019050919050565b60608201600082015161209e6000850182611e97565b5060208201516120b16020850182611eb0565b5060408201516120c46040850182611e97565b50505050565b60006120d68383612088565b60608301905092915050565b6000602082019050919050565b60006120fa8261205c565b6121048185612067565b935061210f83612078565b8060005b8381101561214057815161212788826120ca565b9750612132836120e2565b925050600181019050612113565b5085935050505092915050565b6000819050919050565b6121608161214d565b82525050565b600060e08301600083015184820360008601526121838282611f70565b9150506020830151612198602086018261201a565b50604083015184820360808601526121b082826120ef565b915050606083015184820360a08601526121ca8282611f37565b91505060808301516121df60c0860182612157565b508091505092915050565b60006121f68383612166565b905092915050565b6000602082019050919050565b600061221682611e4a565b6122208185611e55565b93508360208202850161223285611e66565b8060005b8581101561226e578484038952815161224f85826121ea565b945061225a836121fe565b925060208a01995050600181019050612236565b50829750879550505050505092915050565b600082825260208201905092915050565b82818337600083830152505050565b60006122ac8385612280565b93506122b9838584612291565b6122c283611f26565b840190509392505050565b600060408201905081810360008301526122e7818661220b565b905081810360208301526122fc8184866122a0565b9050949350505050565b600080fd5b600080fd5b600080fd5b60008235600160400383360303811261233157612330612306565b5b80830191505092915050565b600082825260208201905092915050565b7f554e415554484f52495a45440000000000000000000000000000000000000000600082015250565b6000612384600c8361233d565b915061238f8261234e565b602082019050919050565b600060208201905081810360008301526123b381612377565b9050919050565b60006040820190506123cf6000830185611dc2565b6123dc6020830184611dc2565b9392505050565b7f5265656e7472616e637947756172643a207265656e7472616e742063616c6c00600082015250565b6000612419601f8361233d565b9150612424826123e3565b602082019050919050565b600060208201905081810360008301526124488161240c565b9050919050565b6000808335600160200384360303811261246c5761246b612306565b5b80840192508235915067ffffffffffffffff82111561248e5761248d61230b565b5b6020830192506001820236038313156124aa576124a9612310565b5b509250929050565b600080fd5b6124c082611f26565b810181811067ffffffffffffffff821117156124df576124de611dec565b5b80604052505050565b60006124f26119fb565b90506124fe82826124b7565b919050565b600080fd5b600061251382611cd2565b9050919050565b61252381612508565b811461252e57600080fd5b50565b6000813590506125408161251a565b92915050565b61254f81611ea6565b811461255a57600080fd5b50565b60008135905061256c81612546565b92915050565b600061257d82611cd2565b9050919050565b61258d81612572565b811461259857600080fd5b50565b6000813590506125aa81612584565b92915050565b600080fd5b600067ffffffffffffffff8211156125d0576125cf611dec565b5b6125d982611f26565b9050602081019050919050565b60006125f96125f4846125b5565b6124e8565b905082815260208101848484011115612615576126146125b0565b5b612620848285612291565b509392505050565b600082601f83011261263d5761263c611a33565b5b813561264d8482602086016125e6565b91505092915050565b600060c0828403121561266c5761266b6124b2565b5b61267660c06124e8565b9050600061268684828501612531565b600083015250602061269a84828501611cfb565b60208301525060406126ae8482850161255d565b60408301525060606126c28482850161255d565b60608301525060806126d68482850161259b565b60808301525060a082013567ffffffffffffffff8111156126fa576126f9612503565b5b61270684828501612628565b60a08301525092915050565b600061271d82611cd2565b9050919050565b61272d81612712565b811461273857600080fd5b50565b60008135905061274a81612724565b92915050565b600060608284031215612766576127656124b2565b5b61277060606124e8565b905060006127808482850161273b565b60008301525060206127948482850161255d565b60208301525060406127a88482850161255d565b60408301525092915050565b600067ffffffffffffffff8211156127cf576127ce611dec565b5b602082029050602081019050919050565b6000606082840312156127f6576127f56124b2565b5b61280060606124e8565b9050600061281084828501611cfb565b60008301525060206128248482850161255d565b602083015250604061283884828501611cfb565b60408301525092915050565b6000612857612852846127b4565b6124e8565b9050808382526020820190506060840283018581111561287a57612879611a3d565b5b835b818110156128a3578061288f88826127e0565b84526020840193505060608101905061287c565b5050509392505050565b600082601f8301126128c2576128c1611a33565b5b81356128d2848260208601612844565b91505092915050565b600060a082840312156128f1576128f06124b2565b5b6128fb60606124e8565b9050600082013567ffffffffffffffff81111561291b5761291a612503565b5b61292784828501612656565b600083015250602061293b84828501612750565b602083015250608082013567ffffffffffffffff81111561295f5761295e612503565b5b61296b848285016128ad565b60408301525092915050565b60006020828403121561298d5761298c611a05565b5b600082013567ffffffffffffffff8111156129ab576129aa611a0a565b5b6129b7848285016128db565b91505092915050565b6129c981611ea6565b82525050565b60006020820190506129e460008301846129c0565b92915050565b600081905092915050565b7f4c696d69744f7264657228000000000000000000000000000000000000000000600082015250565b6000612a2b600b836129ea565b9150612a36826129f5565b600b82019050919050565b7f4f72646572496e666f20696e666f2c0000000000000000000000000000000000600082015250565b6000612a77600f836129ea565b9150612a8282612a41565b600f82019050919050565b7f6164647265737320696e707574546f6b656e2c00000000000000000000000000600082015250565b6000612ac36013836129ea565b9150612ace82612a8d565b601382019050919050565b7f75696e7432353620696e707574416d6f756e742c000000000000000000000000600082015250565b6000612b0f6014836129ea565b9150612b1a82612ad9565b601482019050919050565b7f4f7574707574546f6b656e5b5d206f7574707574732900000000000000000000600082015250565b6000612b5b6016836129ea565b9150612b6682612b25565b601682019050919050565b600081905092915050565b6000612b8782611ee0565b612b918185612b71565b9350612ba1818560208601611efc565b80840191505092915050565b6000612bb882612a1e565b9150612bc382612a6a565b9150612bce82612ab6565b9150612bd982612b02565b9150612be482612b4e565b9150612bf08285612b7c565b9150612bfc8284612b7c565b91508190509392505050565b612c118161214d565b82525050565b612c2081611ff9565b82525050565b600060a082019050612c3b6000830188612c08565b612c486020830187612c08565b612c556040830186612c17565b612c6260608301856129c0565b612c6f6080830184612c08565b9695505050505050565b600060e0830160008301518482036000860152612c968282611f70565b9150506020830151612cab602086018261201a565b5060408301518482036080860152612cc382826120ef565b915050606083015184820360a0860152612cdd8282611f37565b9150506080830151612cf260c0860182612157565b508091505092915050565b60006020820190508181036000830152612d178184612c79565b905092915050565b600081519050612d2e81611ce4565b92915050565b600081519050612d4381612546565b92915050565b600060608284031215612d5f57612d5e6124b2565b5b612d6960606124e8565b90506000612d7984828501612d1f565b6000830152506020612d8d84828501612d34565b6020830152506040612da184828501612d1f565b60408301525092915050565b6000612dc0612dbb846127b4565b6124e8565b90508083825260208201905060608402830185811115612de357612de2611a3d565b5b835b81811015612e0c5780612df88882612d49565b845260208401935050606081019050612de5565b5050509392505050565b600082601f830112612e2b57612e2a611a33565b5b8151612e3b848260208601612dad565b91505092915050565b600060208284031215612e5a57612e59611a05565b5b600082015167ffffffffffffffff811115612e7857612e77611a0a565b5b612e8484828501612e16565b91505092915050565b7f4e487b7100000000000000000000000000000000000000000000000000000000600052601160045260246000fd5b6000612ec782611ea6565b9150612ed283611ea6565b9250828201905080821115612eea57612ee9612e8d565b5b92915050565b6000606082019050612f056000830186611dc2565b612f1260208301856129c0565b612f1f6040830184611dc2565b949350505050565b6000604082019050612f3c6000830185611dc2565b8181036020830152612f4e8184612c79565b90509392505050565b7f4c696d69744f72646572207769746e6573732900000000000000000000000000600082015250565b6000612f8d6013836129ea565b9150612f9882612f57565b601382019050919050565b600081519050919050565b6000612fb982612fa3565b612fc381856129ea565b9350612fd3818560208601611efc565b80840191505092915050565b6000612fea82612f80565b9150612ff68285612b7c565b91506130028284612fae565b91508190509392505050565b6040820160008201516130246000850182611e97565b5060208201516130376020850182611eb0565b50505050565b608082016000820151613053600085018261300e565b5060208201516130666040850182611eb0565b5060408201516130796060850182611eb0565b50505050565b6040820160008201516130956000850182611e97565b5060208201516130a86020850182611eb0565b50505050565b60006130b982612fa3565b6130c3818561233d565b93506130d3818560208601611efc565b6130dc81611f26565b840191505092915050565b60006130f282611ee0565b6130fc8185612280565b935061310c818560208601611efc565b61311581611f26565b840191505092915050565b600061014082019050613136600083018961303d565b613143608083018861307f565b61315060c0830187611dc2565b61315d60e0830186612c08565b81810361010083015261317081856130ae565b905081810361012083015261318581846130e7565b9050979650505050505050565b50565b60006131a2600083612b71565b91506131ad82613192565b600082019050919050565b60006131c382613195565b9150819050919050565b6131d681611e76565b82525050565b6131e581611ebf565b82525050565b600060e082019050613200600083018a612c08565b61320d60208301896131cd565b61321a6040830188611dc2565b61322760608301876129c0565b61323460808301866129c0565b61324160a08301856131dc565b61324e60c0830184612c08565b98975050505050505050565b7f5452414e534645525f46524f4d5f4641494c4544000000000000000000000000600082015250565b600061329060148361233d565b915061329b8261325a565b602082019050919050565b600060208201905081810360008301526132bf81613283565b9050919050565b60006080820190506132db6000830187612c08565b6132e86020830186611dc2565b6132f560408301856129c0565b6133026060830184611dc2565b9594505050505056fe4f7574707574546f6b656e286164647265737320746f6b656e2c75696e7432353620616d6f756e742c6164647265737320726563697069656e7429546f6b656e5065726d697373696f6e73286164647265737320746f6b656e2c75696e7432353620616d6f756e74294f72646572496e666f28616464726573732072656163746f722c6164647265737320737761707065722c75696e74323536206e6f6e63652c75696e7432353620646561646c696e652c61646472657373206164646974696f6e616c56616c69646174696f6e436f6e74726163742c6279746573206164646974696f6e616c56616c69646174696f6e4461746129a2646970667358221220487712364e73cb719113a8f4fd72f40f1fc67b74f92c880147bb13463f12bebf64736f6c634300081c0033",
  "linkReferences": {},
  "deployedLinkReferences": {}
}