{
  "_format": "hh-sol-artifact-1",
  "contractName": "ExclusiveFillerValidation",
  "sourceName": "src/sample-validation-contracts/ExclusiveFillerValidation.sol",
  "abi": [
    {
      "inputs": [
        {
          "internalType": "address",
          "name": "filler",
          "type": "address"
        }
      ],
      "name": "NotExclusiveFiller",
      "type": "error"
    },
    {
      "inputs": [
        {
          "internalType": "address",
          "name": "filler",
          "type": "address"
        },
        {
          "components": [
            {
              "components": [
                {
                  "internalType": "contract IReactor",
                  "name": "reactor",
                  "type": "address"
                },
                {
                  "internalType": "address",
                  "name": "swapper",
                  "type": "address"
                },
                {
                  "internalType": "uint256",
                  "name": "nonce",
                  "type": "uint256"
                },
                {
                  "internalType": "uint256",
                  "name": "deadline",
                  "type": "uint256"
                },
                {
                  "internalType": "contract IValidationCallback",
                  "name": "additionalValidationContract",
                  "type": "address"
                },
                {
                  "internalType": "bytes",
                  "name": "additionalValidationData",
                  "type": "bytes"
                }
              ],
              "internalType": "struct OrderInfo",
              "name": "info",
              "type": "tuple"
            },
            {
              "components": [
                {
                  "internalType": "contract ERC20",
                  "name": "token",
                  "type": "address"
                },
                {
                  "internalType": "uint256",
                  "name": "amount",
                  "type": "uint256"
                },
                {
                  "internalType": "uint256",
                  "name": "maxAmount",
                  "type": "uint256"
                }
              ],
              "internalType": "struct InputToken",
              "name": "input",
              "type": "tuple"
            },
            {
              "components": [
                {
                  "internalType": "address",
                  "name": "token",
                  "type": "address"
                },
                {
                  "internalType": "uint256",
                  "name": "amount",
                  "type": "uint256"
                },
                {
                  "internalType": "address",
                  "name": "recipient",
                  "type": "address"
                }
              ],
              "internalType": "struct OutputToken[]",
              "name": "outputs",
              "type": "tuple[]"
            },
            {
              "internalType": "bytes",
              "name": "sig",
              "type": "bytes"
            },
            {
              "internalType": "bytes32",
              "name": "hash",
              "type": "bytes32"
            }
          ],
          "internalType": "struct ResolvedOrder",
          "name": "resolvedOrder",
          "type": "tuple"
        }
      ],
      "name": "validate",
      "outputs": [],
      "stateMutability": "view",
      "type": "function"
    }
  ],
  "bytecode": "0x6080604052348015600f57600080fd5b506103998061001f6000396000f3fe608060405234801561001057600080fd5b506004361061002b5760003560e01c80636e84ba2b14610030575b600080fd5b61004a6004803603810190610045919061018f565b61004c565b005b60008082806000019061005f91906101fa565b8060a0019061006e9190610222565b81019061007b91906102f9565b915091504281101580156100bb57508173ffffffffffffffffffffffffffffffffffffffff168473ffffffffffffffffffffffffffffffffffffffff1614155b156100fd57836040517f75c1bb140000000000000000000000000000000000000000000000000000000081526004016100f49190610348565b60405180910390fd5b50505050565b600080fd5b600080fd5b600073ffffffffffffffffffffffffffffffffffffffff82169050919050565b60006101388261010d565b9050919050565b6101488161012d565b811461015357600080fd5b50565b6000813590506101658161013f565b92915050565b600080fd5b600060e082840312156101865761018561016b565b5b81905092915050565b600080604083850312156101a6576101a5610103565b5b60006101b485828601610156565b925050602083013567ffffffffffffffff8111156101d5576101d4610108565b5b6101e185828601610170565b9150509250929050565b600080fd5b600080fd5b600080fd5b60008235600160c003833603038112610216576102156101eb565b5b80830191505092915050565b6000808335600160200384360303811261023f5761023e6101eb565b5b80840192508235915067ffffffffffffffff821115610261576102606101f0565b5b60208301925060018202360383131561027d5761027c6101f5565b5b509250929050565b60006102908261010d565b9050919050565b6102a081610285565b81146102ab57600080fd5b50565b6000813590506102bd81610297565b92915050565b6000819050919050565b6102d6816102c3565b81146102e157600080fd5b50565b6000813590506102f3816102cd565b92915050565b600080604083850312156103105761030f610103565b5b600061031e858286016102ae565b925050602061032f858286016102e4565b9150509250929050565b6103428161012d565b82525050565b600060208201905061035d6000830184610339565b9291505056fea26469706673582212204458e79aa15ab292e694a8c4f4bae16dde431348a8ecbf7027c18015f67387e964736f6c634300081c0033",
  "linkReferences": {},
  "deployedLinkReferences": {}
}