{
  "_format": "hh-sol-artifact-1",
  "contractName": "SwapRouter02Executor",
  "sourceName": "src/sample-executors/SwapRouter02Executor.sol",
  "abi": [
    {
      "inputs": [
        {
          "internalType": "address",
          "name": "_whitelistedCaller",
          "type": "address"
        },
        {
          "internalType": "contract IReactor",
          "name": "_reactor",
          "type": "address"
        },
        {
          "internalType": "address",
          "name": "_owner",
          "type": "address"
        },
        {
          "internalType": "contract ISwapRouter02",
          "name": "_swapRouter02",
          "type": "address"
        }
      ],
      "stateMutability": "nonpayable",
      "type": "constructor"
    },
    {
      "inputs": [],
      "name": "CallerNotWhitelisted",
      "type": "error"
    },
    {
      "inputs": [],
      "name": "MsgSenderNotReactor",
      "type": "error"
    },
    {
      "inputs": [],
      "name": "NativeTransferFailed",
      "type": "error"
    },
    {
      "anonymous": false,
      "inputs": [
        {
          "indexed": true,
          "internalType": "address",
          "name": "user",
          "type": "address"
        },
        {
          "indexed": true,
          "internalType": "address",
          "name": "newOwner",
          "type": "address"
        }
      ],
      "name": "OwnershipTransferred",
      "type": "event"
    },
    {
      "inputs": [
        {
          "components": [
            {
              "internalType": "bytes",
              "name": "order",
              "type": "bytes"
            },
            {
              "internalType": "bytes",
              "name": "sig",
              "type": "bytes"
            }
          ],
          "internalType": "struct SignedOrder",
          "name": "order",
          "type": "tuple"
        },
        {
          "internalType": "bytes",
          "name": "callbackData",
          "type": "bytes"
        }
      ],
      "name": "execute",
      "outputs": [],
      "stateMutability": "nonpayable",
      "type": "function"
    },
    {
      "inputs": [
        {
          "components": [
            {
              "internalType": "bytes",
              "name": "order",
              "type": "bytes"
            },
            {
              "internalType": "bytes",
              "name": "sig",
              "type": "bytes"
            }
          ],
          "internalType": "struct SignedOrder[]",
          "name": "orders",
          "type": "tuple[]"
        },
        {
          "internalType": "bytes",
          "name": "callbackData",
          "type": "bytes"
        }
      ],
      "name": "executeBatch",
      "outputs": [],
      "stateMutability": "nonpayable",
      "type": "function"
    },
    {
      "inputs": [
        {
          "internalType": "address",
          "name": "caller",
          "type": "address"
        },
        {
          "internalType": "address",
          "name": "token",
          "type": "address"
        },
        {
          "internalType": "uint256",
          "name": "amount",
          "type": "uint256"
        },
        {
          "internalType": "bool",
          "name": "isProfit",
          "type": "bool"
        }
      ],
      "name": "handlePNL",
      "outputs": [],
      "stateMutability": "nonpayable",
      "type": "function"
    },
    {
      "inputs": [
        {
          "internalType": "contract ERC20[]",
          "name": "tokensToApprove",
          "type": "address[]"
        },
        {
          "internalType": "bytes[]",
          "name": "multicallData",
          "type": "bytes[]"
        }
      ],
      "name": "multicall",
      "outputs": [],
      "stateMutability": "nonpayable",
      "type": "function"
    },
    {
      "inputs": [],
      "name": "owner",
      "outputs": [
        {
          "internalType": "address",
          "name": "",
          "type": "address"
        }
      ],
      "stateMutability": "view",
      "type": "function"
    },
    {
      "inputs": [
        {
          "components": [
            {
              "components": [
                {
                  "internalType": "contract IReactor",
                  "name": "reactor",
                  "type": "address"
                },
                {
                  "internalType": "address",
                  "name": "swapper",
                  "type": "address"
                },
                {
                  "internalType": "uint256",
                  "name": "nonce",
                  "type": "uint256"
                },
                {
                  "internalType": "uint256",
                  "name": "deadline",
                  "type": "uint256"
                },
                {
                  "internalType": "contract IValidationCallback",
                  "name": "additionalValidationContract",
                  "type": "address"
                },
                {
                  "internalType": "bytes",
                  "name": "additionalValidationData",
                  "type": "bytes"
                }
              ],
              "internalType": "struct OrderInfo",
              "name": "info",
              "type": "tuple"
            },
            {
              "components": [
                {
                  "internalType": "contract ERC20",
                  "name": "token",
                  "type": "address"
                },
                {
                  "internalType": "uint256",
                  "name": "amount",
                  "type": "uint256"
                },
                {
                  "internalType": "uint256",
                  "name": "maxAmount",
                  "type": "uint256"
                }
              ],
              "internalType": "struct InputToken",
              "name": "input",
              "type": "tuple"
            },
            {
              "components": [
                {
                  "internalType": "address",
                  "name": "token",
                  "type": "address"
                },
                {
                  "internalType": "uint256",
                  "name": "amount",
                  "type": "uint256"
                },
                {
                  "internalType": "address",
                  "name": "recipient",
                  "type": "address"
                }
              ],
              "internalType": "struct OutputToken[]",
              "name": "outputs",
              "type": "tuple[]"
            },
            {
              "internalType": "bytes",
              "name": "sig",
              "type": "bytes"
            },
            {
              "internalType": "bytes32",
              "name": "hash",
              "type": "bytes32"
            }
          ],
          "internalType": "struct ResolvedOrder[]",
          "name": "",
          "type": "tuple[]"
        },
        {
          "internalType": "bytes",
          "name": "callbackData",
          "type": "bytes"
        }
      ],
      "name": "reactorCallback",
      "outputs": [],
      "stateMutability": "nonpayable",
      "type": "function"
    },
    {
      "inputs": [
        {
          "internalType": "address",
          "name": "newOwner",
          "type": "address"
        }
      ],
      "name": "transferOwnership",
      "outputs": [],
      "stateMutability": "nonpayable",
      "type": "function"
    },
    {
      "inputs": [
        {
          "internalType": "address",
          "name": "recipient",
          "type": "address"
        }
      ],
      "name": "unwrapWETH",
      "outputs": [],
      "stateMutability": "nonpayable",
      "type": "function"
    },
    {
      "inputs": [
        {
          "internalType": "address",
          "name": "recipient",
          "type": "address"
        }
      ],
      "name": "withdrawETH",
      "outputs": [],
      "stateMutability": "nonpayable",
      "type": "function"
    },
    {
      "stateMutability": "payable",
      "type": "receive"
    }
  ],
  "bytecode": "0x61010060405234801561001157600080fd5b50604051612835380380612835833981810160405281019061003391906102f6565b81806000806101000a81548173ffffffffffffffffffffffffffffffffffffffff021916908373ffffffffffffffffffffffffffffffffffffffff1602179055508073ffffffffffffffffffffffffffffffffffffffff16600073ffffffffffffffffffffffffffffffffffffffff167f8be0079c531659141344cd1fd0a4f28419497f9722a3daafe3b4186f6b6457e060405160405180910390a3508373ffffffffffffffffffffffffffffffffffffffff1660a08173ffffffffffffffffffffffffffffffffffffffff16815250508273ffffffffffffffffffffffffffffffffffffffff1660c08173ffffffffffffffffffffffffffffffffffffffff16815250508073ffffffffffffffffffffffffffffffffffffffff1660808173ffffffffffffffffffffffffffffffffffffffff16815250508073ffffffffffffffffffffffffffffffffffffffff16634aa4a4fc6040518163ffffffff1660e01b8152600401602060405180830381865afa1580156101b7573d6000803e3d6000fd5b505050506040513d601f19601f820116820180604052508101906101db919061035d565b73ffffffffffffffffffffffffffffffffffffffff1660e08173ffffffffffffffffffffffffffffffffffffffff16815250505050505061038a565b600080fd5b600073ffffffffffffffffffffffffffffffffffffffff82169050919050565b60006102478261021c565b9050919050565b6102578161023c565b811461026257600080fd5b50565b6000815190506102748161024e565b92915050565b60006102858261023c565b9050919050565b6102958161027a565b81146102a057600080fd5b50565b6000815190506102b28161028c565b92915050565b60006102c38261023c565b9050919050565b6102d3816102b8565b81146102de57600080fd5b50565b6000815190506102f0816102ca565b92915050565b600080600080608085870312156103105761030f610217565b5b600061031e87828801610265565b945050602061032f878288016102a3565b935050604061034087828801610265565b9250506060610351878288016102e1565b91505092959194509250565b60006020828403121561037357610372610217565b5b600061038184828501610265565b91505092915050565b60805160a05160c05160e0516124336104026000396000818161091401526109b001526000818161020b01528181610358015281816104b801528181610af20152610c0b015260008181610a6d0152610b860152600081816102b9015281816103e801528181610588015261062501526124336000f3fe60806040526004361061008a5760003560e01c806389a3f1361161005957806389a3f1361461013a5780638da5cb5b14610163578063d0f2d8ac1461018e578063e5135ec6146101b7578063f2fde38b146101e057610091565b8063585da6281461009657806363fb0b96146100bf578063690d8320146100e85780636c2624051461011157610091565b3661009157005b600080fd5b3480156100a257600080fd5b506100bd60048036038101906100b891906111bc565b610209565b005b3480156100cb57600080fd5b506100e660048036038101906100e191906112e9565b6104e7565b005b3480156100f457600080fd5b5061010f600480360381019061010a91906113c8565b6106ef565b005b34801561011d57600080fd5b5061013860048036038101906101339190611463565b61078a565b005b34801561014657600080fd5b50610161600480360381019061015c91906113c8565b610882565b005b34801561016f57600080fd5b50610178610a47565b60405161018591906114d9565b60405180910390f35b34801561019a57600080fd5b506101b560048036038101906101b09190611518565b610a6b565b005b3480156101c357600080fd5b506101de60048036038101906101d991906115ea565b610b84565b005b3480156101ec57600080fd5b50610207600480360381019061020291906113c8565b610ca0565b005b7f000000000000000000000000000000000000000000000000000000000000000073ffffffffffffffffffffffffffffffffffffffff163373ffffffffffffffffffffffffffffffffffffffff161461028e576040517f933fe52f00000000000000000000000000000000000000000000000000000000815260040160405180910390fd5b600080600084848101906102a29190611950565b92509250925060005b8351811015610346576103397f00000000000000000000000000000000000000000000000000000000000000007fffffffffffffffffffffffffffffffffffffffffffffffffffffffffffffffff86848151811061030c5761030b6119f7565b5b602002602001015173ffffffffffffffffffffffffffffffffffffffff16610dcb9092919063ffffffff16565b80806001019150506102ab565b5060005b82518110156103e5576103d87f00000000000000000000000000000000000000000000000000000000000000007fffffffffffffffffffffffffffffffffffffffffffffffffffffffffffffffff8584815181106103ab576103aa6119f7565b5b602002602001015173ffffffffffffffffffffffffffffffffffffffff16610dcb9092919063ffffffff16565b808060010191505061034a565b507f000000000000000000000000000000000000000000000000000000000000000073ffffffffffffffffffffffffffffffffffffffff16635ae401dc7fffffffffffffffffffffffffffffffffffffffffffffffffffffffffffffffff836040518363ffffffff1660e01b8152600401610461929190611b76565b6000604051808303816000875af1158015610480573d6000803e3d6000fd5b505050506040513d6000823e3d601f19601f820116820180604052508101906104a99190611ccb565b5060004711156104de576104dd7f000000000000000000000000000000000000000000000000000000000000000047610e79565b5b50505050505050565b60008054906101000a900473ffffffffffffffffffffffffffffffffffffffff1673ffffffffffffffffffffffffffffffffffffffff163373ffffffffffffffffffffffffffffffffffffffff1614610575576040517f08c379a000000000000000000000000000000000000000000000000000000000815260040161056c90611d71565b60405180910390fd5b60005b84849050811015610622576106157f00000000000000000000000000000000000000000000000000000000000000007fffffffffffffffffffffffffffffffffffffffffffffffffffffffffffffffff8787858181106105db576105da6119f7565b5b90506020020160208101906105f09190611dcf565b73ffffffffffffffffffffffffffffffffffffffff16610dcb9092919063ffffffff16565b8080600101915050610578565b507f000000000000000000000000000000000000000000000000000000000000000073ffffffffffffffffffffffffffffffffffffffff16635ae401dc7fffffffffffffffffffffffffffffffffffffffffffffffffffffffffffffffff84846040518463ffffffff1660e01b81526004016106a093929190611f3e565b6000604051808303816000875af11580156106bf573d6000803e3d6000fd5b505050506040513d6000823e3d601f19601f820116820180604052508101906106e89190611ccb565b5050505050565b60008054906101000a900473ffffffffffffffffffffffffffffffffffffffff1673ffffffffffffffffffffffffffffffffffffffff163373ffffffffffffffffffffffffffffffffffffffff161461077d576040517f08c379a000000000000000000000000000000000000000000000000000000000815260040161077490611d71565b60405180910390fd5b6107878147610f21565b50565b60008054906101000a900473ffffffffffffffffffffffffffffffffffffffff1673ffffffffffffffffffffffffffffffffffffffff163373ffffffffffffffffffffffffffffffffffffffff1614610818576040517f08c379a000000000000000000000000000000000000000000000000000000000815260040161080f90611d71565b60405180910390fd5b801561084e5761084984838573ffffffffffffffffffffffffffffffffffffffff16610f749092919063ffffffff16565b61087c565b61087b8430848673ffffffffffffffffffffffffffffffffffffffff16611022909392919063ffffffff16565b5b50505050565b60008054906101000a900473ffffffffffffffffffffffffffffffffffffffff1673ffffffffffffffffffffffffffffffffffffffff163373ffffffffffffffffffffffffffffffffffffffff1614610910576040517f08c379a000000000000000000000000000000000000000000000000000000000815260040161090790611d71565b60405180910390fd5b60007f000000000000000000000000000000000000000000000000000000000000000073ffffffffffffffffffffffffffffffffffffffff166370a08231306040518263ffffffff1660e01b815260040161096b91906114d9565b602060405180830381865afa158015610988573d6000803e3d6000fd5b505050506040513d601f19601f820116820180604052508101906109ac9190611f85565b90507f000000000000000000000000000000000000000000000000000000000000000073ffffffffffffffffffffffffffffffffffffffff16632e1a7d4d826040518263ffffffff1660e01b8152600401610a079190611fb2565b600060405180830381600087803b158015610a2157600080fd5b505af1158015610a35573d6000803e3d6000fd5b50505050610a438247610f21565b5050565b60008054906101000a900473ffffffffffffffffffffffffffffffffffffffff1681565b7f000000000000000000000000000000000000000000000000000000000000000073ffffffffffffffffffffffffffffffffffffffff163373ffffffffffffffffffffffffffffffffffffffff1614610af0576040517f8c6e5d7100000000000000000000000000000000000000000000000000000000815260040160405180910390fd5b7f000000000000000000000000000000000000000000000000000000000000000073ffffffffffffffffffffffffffffffffffffffff16630d3358848484846040518463ffffffff1660e01b8152600401610b4d93929190612063565b600060405180830381600087803b158015610b6757600080fd5b505af1158015610b7b573d6000803e3d6000fd5b50505050505050565b7f000000000000000000000000000000000000000000000000000000000000000073ffffffffffffffffffffffffffffffffffffffff163373ffffffffffffffffffffffffffffffffffffffff1614610c09576040517f8c6e5d7100000000000000000000000000000000000000000000000000000000815260040160405180910390fd5b7f000000000000000000000000000000000000000000000000000000000000000073ffffffffffffffffffffffffffffffffffffffff166313fb72c7858585856040518563ffffffff1660e01b8152600401610c6894939291906121cc565b600060405180830381600087803b158015610c8257600080fd5b505af1158015610c96573d6000803e3d6000fd5b5050505050505050565b60008054906101000a900473ffffffffffffffffffffffffffffffffffffffff1673ffffffffffffffffffffffffffffffffffffffff163373ffffffffffffffffffffffffffffffffffffffff1614610d2e576040517f08c379a0000000000000000000000000000000000000000000000000000000008152600401610d2590611d71565b60405180910390fd5b806000806101000a81548173ffffffffffffffffffffffffffffffffffffffff021916908373ffffffffffffffffffffffffffffffffffffffff1602179055508073ffffffffffffffffffffffffffffffffffffffff163373ffffffffffffffffffffffffffffffffffffffff167f8be0079c531659141344cd1fd0a4f28419497f9722a3daafe3b4186f6b6457e060405160405180910390a350565b60006040517f095ea7b300000000000000000000000000000000000000000000000000000000815273ffffffffffffffffffffffffffffffffffffffff84166004820152826024820152602060006044836000895af13d15601f3d1160016000511416171691505080610e73576040517f08c379a0000000000000000000000000000000000000000000000000000000008152600401610e6a90612253565b60405180910390fd5b50505050565b60008273ffffffffffffffffffffffffffffffffffffffff1682604051610e9f906122a4565b60006040518083038185875af1925050503d8060008114610edc576040519150601f19603f3d011682016040523d82523d6000602084013e610ee1565b606091505b5050905080610f1c576040517ff4b3b1bc00000000000000000000000000000000000000000000000000000000815260040160405180910390fd5b505050565b600080600080600085875af1905080610f6f576040517f08c379a0000000000000000000000000000000000000000000000000000000008152600401610f6690612305565b60405180910390fd5b505050565b60006040517fa9059cbb00000000000000000000000000000000000000000000000000000000815273ffffffffffffffffffffffffffffffffffffffff84166004820152826024820152602060006044836000895af13d15601f3d116001600051141617169150508061101c576040517f08c379a000000000000000000000000000000000000000000000000000000000815260040161101390612371565b60405180910390fd5b50505050565b60006040517f23b872dd00000000000000000000000000000000000000000000000000000000815273ffffffffffffffffffffffffffffffffffffffff8516600482015273ffffffffffffffffffffffffffffffffffffffff841660248201528260448201526020600060648360008a5af13d15601f3d11600160005114161716915050806110e6576040517f08c379a00000000000000000000000000000000000000000000000000000000081526004016110dd906123dd565b60405180910390fd5b5050505050565b6000604051905090565b600080fd5b600080fd5b600080fd5b600080fd5b600080fd5b60008083601f84011261112657611125611101565b5b8235905067ffffffffffffffff81111561114357611142611106565b5b60208301915083602082028301111561115f5761115e61110b565b5b9250929050565b60008083601f84011261117c5761117b611101565b5b8235905067ffffffffffffffff81111561119957611198611106565b5b6020830191508360018202830111156111b5576111b461110b565b5b9250929050565b600080600080604085870312156111d6576111d56110f7565b5b600085013567ffffffffffffffff8111156111f4576111f36110fc565b5b61120087828801611110565b9450945050602085013567ffffffffffffffff811115611223576112226110fc565b5b61122f87828801611166565b925092505092959194509250565b60008083601f84011261125357611252611101565b5b8235905067ffffffffffffffff8111156112705761126f611106565b5b60208301915083602082028301111561128c5761128b61110b565b5b9250929050565b60008083601f8401126112a9576112a8611101565b5b8235905067ffffffffffffffff8111156112c6576112c5611106565b5b6020830191508360208202830111156112e2576112e161110b565b5b9250929050565b60008060008060408587031215611303576113026110f7565b5b600085013567ffffffffffffffff811115611321576113206110fc565b5b61132d8782880161123d565b9450945050602085013567ffffffffffffffff8111156113505761134f6110fc565b5b61135c87828801611293565b925092505092959194509250565b600073ffffffffffffffffffffffffffffffffffffffff82169050919050565b60006113958261136a565b9050919050565b6113a58161138a565b81146113b057600080fd5b50565b6000813590506113c28161139c565b92915050565b6000602082840312156113de576113dd6110f7565b5b60006113ec848285016113b3565b91505092915050565b6000819050919050565b611408816113f5565b811461141357600080fd5b50565b600081359050611425816113ff565b92915050565b60008115159050919050565b6114408161142b565b811461144b57600080fd5b50565b60008135905061145d81611437565b92915050565b6000806000806080858703121561147d5761147c6110f7565b5b600061148b878288016113b3565b945050602061149c878288016113b3565b93505060406114ad87828801611416565b92505060606114be8782880161144e565b91505092959194509250565b6114d38161138a565b82525050565b60006020820190506114ee60008301846114ca565b92915050565b600080fd5b60006040828403121561150f5761150e6114f4565b5b81905092915050565b600080600060408486031215611531576115306110f7565b5b600084013567ffffffffffffffff81111561154f5761154e6110fc565b5b61155b868287016114f9565b935050602084013567ffffffffffffffff81111561157c5761157b6110fc565b5b61158886828701611166565b92509250509250925092565b60008083601f8401126115aa576115a9611101565b5b8235905067ffffffffffffffff8111156115c7576115c6611106565b5b6020830191508360208202830111156115e3576115e261110b565b5b9250929050565b60008060008060408587031215611604576116036110f7565b5b600085013567ffffffffffffffff811115611622576116216110fc565b5b61162e87828801611594565b9450945050602085013567ffffffffffffffff811115611651576116506110fc565b5b61165d87828801611166565b925092505092959194509250565b6000601f19601f8301169050919050565b7f4e487b7100000000000000000000000000000000000000000000000000000000600052604160045260246000fd5b6116b48261166b565b810181811067ffffffffffffffff821117156116d3576116d261167c565b5b80604052505050565b60006116e66110ed565b90506116f282826116ab565b919050565b600067ffffffffffffffff8211156117125761171161167c565b5b602082029050602081019050919050565b6000611736611731846116f7565b6116dc565b905080838252602082019050602084028301858111156117595761175861110b565b5b835b81811015611782578061176e88826113b3565b84526020840193505060208101905061175b565b5050509392505050565b600082601f8301126117a1576117a0611101565b5b81356117b1848260208601611723565b91505092915050565b600067ffffffffffffffff8211156117d5576117d461167c565b5b602082029050602081019050919050565b600080fd5b600067ffffffffffffffff8211156118065761180561167c565b5b61180f8261166b565b9050602081019050919050565b82818337600083830152505050565b600061183e611839846117eb565b6116dc565b90508281526020810184848401111561185a576118596117e6565b5b61186584828561181c565b509392505050565b600082601f83011261188257611881611101565b5b813561189284826020860161182b565b91505092915050565b60006118ae6118a9846117ba565b6116dc565b905080838252602082019050602084028301858111156118d1576118d061110b565b5b835b8181101561191857803567ffffffffffffffff8111156118f6576118f5611101565b5b808601611903898261186d565b855260208501945050506020810190506118d3565b5050509392505050565b600082601f83011261193757611936611101565b5b813561194784826020860161189b565b91505092915050565b600080600060608486031215611969576119686110f7565b5b600084013567ffffffffffffffff811115611987576119866110fc565b5b6119938682870161178c565b935050602084013567ffffffffffffffff8111156119b4576119b36110fc565b5b6119c08682870161178c565b925050604084013567ffffffffffffffff8111156119e1576119e06110fc565b5b6119ed86828701611922565b9150509250925092565b7f4e487b7100000000000000000000000000000000000000000000000000000000600052603260045260246000fd5b611a2f816113f5565b82525050565b600081519050919050565b600082825260208201905092915050565b6000819050602082019050919050565b600081519050919050565b600082825260208201905092915050565b60005b83811015611a9b578082015181840152602081019050611a80565b60008484015250505050565b6000611ab282611a61565b611abc8185611a6c565b9350611acc818560208601611a7d565b611ad58161166b565b840191505092915050565b6000611aec8383611aa7565b905092915050565b6000602082019050919050565b6000611b0c82611a35565b611b168185611a40565b935083602082028501611b2885611a51565b8060005b85811015611b645784840389528151611b458582611ae0565b9450611b5083611af4565b925060208a01995050600181019050611b2c565b50829750879550505050505092915050565b6000604082019050611b8b6000830185611a26565b8181036020830152611b9d8184611b01565b90509392505050565b6000611bb9611bb4846117eb565b6116dc565b905082815260208101848484011115611bd557611bd46117e6565b5b611be0848285611a7d565b509392505050565b600082601f830112611bfd57611bfc611101565b5b8151611c0d848260208601611ba6565b91505092915050565b6000611c29611c24846117ba565b6116dc565b90508083825260208201905060208402830185811115611c4c57611c4b61110b565b5b835b81811015611c9357805167ffffffffffffffff811115611c7157611c70611101565b5b808601611c7e8982611be8565b85526020850194505050602081019050611c4e565b5050509392505050565b600082601f830112611cb257611cb1611101565b5b8151611cc2848260208601611c16565b91505092915050565b600060208284031215611ce157611ce06110f7565b5b600082015167ffffffffffffffff811115611cff57611cfe6110fc565b5b611d0b84828501611c9d565b91505092915050565b600082825260208201905092915050565b7f554e415554484f52495a45440000000000000000000000000000000000000000600082015250565b6000611d5b600c83611d14565b9150611d6682611d25565b602082019050919050565b60006020820190508181036000830152611d8a81611d4e565b9050919050565b6000611d9c8261138a565b9050919050565b611dac81611d91565b8114611db757600080fd5b50565b600081359050611dc981611da3565b92915050565b600060208284031215611de557611de46110f7565b5b6000611df384828501611dba565b91505092915050565b6000819050919050565b6000611e128385611a6c565b9350611e1f83858461181c565b611e288361166b565b840190509392505050565b6000611e40848484611e06565b90509392505050565b600080fd5b600080fd5b600080fd5b60008083356001602003843603038112611e7557611e74611e53565b5b83810192508235915060208301925067ffffffffffffffff821115611e9d57611e9c611e49565b5b600182023603831315611eb357611eb2611e4e565b5b509250929050565b6000602082019050919050565b6000611ed48385611a40565b935083602084028501611ee684611dfc565b8060005b87811015611f2c578484038952611f018284611e58565b611f0c868284611e33565b9550611f1784611ebb565b935060208b019a505050600181019050611eea565b50829750879450505050509392505050565b6000604082019050611f536000830186611a26565b8181036020830152611f66818486611ec8565b9050949350505050565b600081519050611f7f816113ff565b92915050565b600060208284031215611f9b57611f9a6110f7565b5b6000611fa984828501611f70565b91505092915050565b6000602082019050611fc76000830184611a26565b92915050565b600060408301611fe06000840184611e58565b8583036000870152611ff3838284611e06565b925050506120046020840184611e58565b8583036020870152612017838284611e06565b925050508091505092915050565b600082825260208201905092915050565b60006120428385612025565b935061204f83858461181c565b6120588361166b565b840190509392505050565b6000604082019050818103600083015261207d8186611fcd565b90508181036020830152612092818486612036565b9050949350505050565b600082825260208201905092915050565b6000819050919050565b6000604083016120ca6000840184611e58565b85830360008701526120dd838284611e06565b925050506120ee6020840184611e58565b8583036020870152612101838284611e06565b925050508091505092915050565b600061211b83836120b7565b905092915050565b60008235600160400383360303811261213f5761213e611e53565b5b82810191505092915050565b6000602082019050919050565b6000612164838561209c565b935083602084028501612176846120ad565b8060005b878110156121ba5784840389526121918284612123565b61219b858261210f565b94506121a68361214b565b925060208a0199505060018101905061217a565b50829750879450505050509392505050565b600060408201905081810360008301526121e7818688612158565b905081810360208301526121fc818486612036565b905095945050505050565b7f415050524f56455f4641494c4544000000000000000000000000000000000000600082015250565b600061223d600e83611d14565b915061224882612207565b602082019050919050565b6000602082019050818103600083015261226c81612230565b9050919050565b600081905092915050565b50565b600061228e600083612273565b91506122998261227e565b600082019050919050565b60006122af82612281565b9150819050919050565b7f4554485f5452414e534645525f4641494c454400000000000000000000000000600082015250565b60006122ef601383611d14565b91506122fa826122b9565b602082019050919050565b6000602082019050818103600083015261231e816122e2565b9050919050565b7f5452414e534645525f4641494c45440000000000000000000000000000000000600082015250565b600061235b600f83611d14565b915061236682612325565b602082019050919050565b6000602082019050818103600083015261238a8161234e565b9050919050565b7f5452414e534645525f46524f4d5f4641494c4544000000000000000000000000600082015250565b60006123c7601483611d14565b91506123d282612391565b602082019050919050565b600060208201905081810360008301526123f6816123ba565b905091905056fea26469706673582212202c6642895a23b6140629c9e74047f564ca0178a4f1584f2d8b69a95b403b502264736f6c634300081c0033",
  "linkReferences": {},
  "deployedLinkReferences": {}
}