{
  "_format": "hh-sol-artifact-1",
  "contractName": "BebopExecutor",
  "sourceName": "src/sample-executors/BebopExecutor.sol",
  "abi": [
    {
      "inputs": [
        {
          "internalType": "address",
          "name": "_whitelistedCaller",
          "type": "address"
        },
        {
          "internalType": "contract IReactor",
          "name": "_reactor",
          "type": "address"
        },
        {
          "internalType": "address",
          "name": "_owner",
          "type": "address"
        },
        {
          "internalType": "contract ISwapRouter02",
          "name": "_swapRouter02",
          "type": "address"
        }
      ],
      "stateMutability": "nonpayable",
      "type": "constructor"
    },
    {
      "inputs": [],
      "name": "CallerNotWhitelisted",
      "type": "error"
    },
    {
      "inputs": [],
      "name": "MsgSenderNotReactor",
      "type": "error"
    },
    {
      "inputs": [],
      "name": "NativeTransferFailed",
      "type": "error"
    },
    {
      "anonymous": false,
      "inputs": [
        {
          "indexed": true,
          "internalType": "address",
          "name": "user",
          "type": "address"
        },
        {
          "indexed": true,
          "internalType": "address",
          "name": "newOwner",
          "type": "address"
        }
      ],
      "name": "OwnershipTransferred",
      "type": "event"
    },
    {
      "inputs": [
        {
          "components": [
            {
              "internalType": "bytes",
              "name": "order",
              "type": "bytes"
            },
            {
              "internalType": "bytes",
              "name": "sig",
              "type": "bytes"
            }
          ],
          "internalType": "struct SignedOrder",
          "name": "order",
          "type": "tuple"
        },
        {
          "internalType": "bytes",
          "name": "callbackData",
          "type": "bytes"
        }
      ],
      "name": "execute",
      "outputs": [],
      "stateMutability": "nonpayable",
      "type": "function"
    },
    {
      "inputs": [
        {
          "components": [
            {
              "internalType": "bytes",
              "name": "order",
              "type": "bytes"
            },
            {
              "internalType": "bytes",
              "name": "sig",
              "type": "bytes"
            }
          ],
          "internalType": "struct SignedOrder[]",
          "name": "orders",
          "type": "tuple[]"
        },
        {
          "internalType": "bytes",
          "name": "callbackData",
          "type": "bytes"
        }
      ],
      "name": "executeBatch",
      "outputs": [],
      "stateMutability": "nonpayable",
      "type": "function"
    },
    {
      "inputs": [
        {
          "internalType": "contract ERC20[]",
          "name": "tokensToApprove",
          "type": "address[]"
        },
        {
          "internalType": "bytes[]",
          "name": "multicallData",
          "type": "bytes[]"
        }
      ],
      "name": "multicall",
      "outputs": [],
      "stateMutability": "nonpayable",
      "type": "function"
    },
    {
      "inputs": [],
      "name": "owner",
      "outputs": [
        {
          "internalType": "address",
          "name": "",
          "type": "address"
        }
      ],
      "stateMutability": "view",
      "type": "function"
    },
    {
      "inputs": [
        {
          "components": [
            {
              "components": [
                {
                  "internalType": "contract IReactor",
                  "name": "reactor",
                  "type": "address"
                },
                {
                  "internalType": "address",
                  "name": "swapper",
                  "type": "address"
                },
                {
                  "internalType": "uint256",
                  "name": "nonce",
                  "type": "uint256"
                },
                {
                  "internalType": "uint256",
                  "name": "deadline",
                  "type": "uint256"
                },
                {
                  "internalType": "contract IValidationCallback",
                  "name": "additionalValidationContract",
                  "type": "address"
                },
                {
                  "internalType": "bytes",
                  "name": "additionalValidationData",
                  "type": "bytes"
                }
              ],
              "internalType": "struct OrderInfo",
              "name": "info",
              "type": "tuple"
            },
            {
              "components": [
                {
                  "internalType": "contract ERC20",
                  "name": "token",
                  "type": "address"
                },
                {
                  "internalType": "uint256",
                  "name": "amount",
                  "type": "uint256"
                },
                {
                  "internalType": "uint256",
                  "name": "maxAmount",
                  "type": "uint256"
                }
              ],
              "internalType": "struct InputToken",
              "name": "input",
              "type": "tuple"
            },
            {
              "components": [
                {
                  "internalType": "address",
                  "name": "token",
                  "type": "address"
                },
                {
                  "internalType": "uint256",
                  "name": "amount",
                  "type": "uint256"
                },
                {
                  "internalType": "address",
                  "name": "recipient",
                  "type": "address"
                }
              ],
              "internalType": "struct OutputToken[]",
              "name": "outputs",
              "type": "tuple[]"
            },
            {
              "internalType": "bytes",
              "name": "sig",
              "type": "bytes"
            },
            {
              "internalType": "bytes32",
              "name": "hash",
              "type": "bytes32"
            }
          ],
          "internalType": "struct ResolvedOrder[]",
          "name": "",
          "type": "tuple[]"
        },
        {
          "internalType": "bytes",
          "name": "callbackData",
          "type": "bytes"
        }
      ],
      "name": "reactorCallback",
      "outputs": [],
      "stateMutability": "nonpayable",
      "type": "function"
    },
    {
      "inputs": [
        {
          "internalType": "address",
          "name": "newOwner",
          "type": "address"
        }
      ],
      "name": "transferOwnership",
      "outputs": [],
      "stateMutability": "nonpayable",
      "type": "function"
    },
    {
      "inputs": [
        {
          "internalType": "address",
          "name": "recipient",
          "type": "address"
        }
      ],
      "name": "unwrapWETH",
      "outputs": [],
      "stateMutability": "nonpayable",
      "type": "function"
    },
    {
      "inputs": [
        {
          "internalType": "address",
          "name": "recipient",
          "type": "address"
        }
      ],
      "name": "withdrawETH",
      "outputs": [],
      "stateMutability": "nonpayable",
      "type": "function"
    },
    {
      "stateMutability": "payable",
      "type": "receive"
    }
  ],
  "bytecode": "0x61010060405234801561001157600080fd5b50604051612404380380612404833981810160405281019061003391906102f6565b81806000806101000a81548173ffffffffffffffffffffffffffffffffffffffff021916908373ffffffffffffffffffffffffffffffffffffffff1602179055508073ffffffffffffffffffffffffffffffffffffffff16600073ffffffffffffffffffffffffffffffffffffffff167f8be0079c531659141344cd1fd0a4f28419497f9722a3daafe3b4186f6b6457e060405160405180910390a3508373ffffffffffffffffffffffffffffffffffffffff1660a08173ffffffffffffffffffffffffffffffffffffffff16815250508273ffffffffffffffffffffffffffffffffffffffff1660c08173ffffffffffffffffffffffffffffffffffffffff16815250508073ffffffffffffffffffffffffffffffffffffffff1660808173ffffffffffffffffffffffffffffffffffffffff16815250508073ffffffffffffffffffffffffffffffffffffffff16634aa4a4fc6040518163ffffffff1660e01b8152600401602060405180830381865afa1580156101b7573d6000803e3d6000fd5b505050506040513d601f19601f820116820180604052508101906101db919061035d565b73ffffffffffffffffffffffffffffffffffffffff1660e08173ffffffffffffffffffffffffffffffffffffffff16815250505050505061038a565b600080fd5b600073ffffffffffffffffffffffffffffffffffffffff82169050919050565b60006102478261021c565b9050919050565b6102578161023c565b811461026257600080fd5b50565b6000815190506102748161024e565b92915050565b60006102858261023c565b9050919050565b6102958161027a565b81146102a057600080fd5b50565b6000815190506102b28161028c565b92915050565b60006102c38261023c565b9050919050565b6102d3816102b8565b81146102de57600080fd5b50565b6000815190506102f0816102ca565b92915050565b600080600080608085870312156103105761030f610217565b5b600061031e87828801610265565b945050602061032f878288016102a3565b935050604061034087828801610265565b9250506060610351878288016102e1565b91505092959194509250565b60006020828403121561037357610372610217565b5b600061038184828501610265565b91505092915050565b60805160a05160c05160e051612002610402600039600081816107e801526108840152600081816101d70152818161032401528181610484015281816109c60152610adf0152600081816109410152610a5a015260008181610285015281816103b40152818161055401526105f101526120026000f3fe60806040526004361061007f5760003560e01c80638da5cb5b1161004e5780638da5cb5b1461012f578063d0f2d8ac1461015a578063e5135ec614610183578063f2fde38b146101ac57610086565b8063585da6281461008b57806363fb0b96146100b4578063690d8320146100dd57806389a3f1361461010657610086565b3661008657005b600080fd5b34801561009757600080fd5b506100b260048036038101906100ad9190610f17565b6101d5565b005b3480156100c057600080fd5b506100db60048036038101906100d69190611044565b6104b3565b005b3480156100e957600080fd5b5061010460048036038101906100ff9190611123565b6106bb565b005b34801561011257600080fd5b5061012d60048036038101906101289190611123565b610756565b005b34801561013b57600080fd5b5061014461091b565b604051610151919061115f565b60405180910390f35b34801561016657600080fd5b50610181600480360381019061017c919061119e565b61093f565b005b34801561018f57600080fd5b506101aa60048036038101906101a59190611270565b610a58565b005b3480156101b857600080fd5b506101d360048036038101906101ce9190611123565b610b74565b005b7f000000000000000000000000000000000000000000000000000000000000000073ffffffffffffffffffffffffffffffffffffffff163373ffffffffffffffffffffffffffffffffffffffff161461025a576040517f933fe52f00000000000000000000000000000000000000000000000000000000815260040160405180910390fd5b6000806000848481019061026e91906115d6565b92509250925060005b8351811015610312576103057f00000000000000000000000000000000000000000000000000000000000000007fffffffffffffffffffffffffffffffffffffffffffffffffffffffffffffffff8684815181106102d8576102d761167d565b5b602002602001015173ffffffffffffffffffffffffffffffffffffffff16610c9f9092919063ffffffff16565b8080600101915050610277565b5060005b82518110156103b1576103a47f00000000000000000000000000000000000000000000000000000000000000007fffffffffffffffffffffffffffffffffffffffffffffffffffffffffffffffff8584815181106103775761037661167d565b5b602002602001015173ffffffffffffffffffffffffffffffffffffffff16610c9f9092919063ffffffff16565b8080600101915050610316565b507f000000000000000000000000000000000000000000000000000000000000000073ffffffffffffffffffffffffffffffffffffffff16635ae401dc7fffffffffffffffffffffffffffffffffffffffffffffffffffffffffffffffff836040518363ffffffff1660e01b815260040161042d929190611806565b6000604051808303816000875af115801561044c573d6000803e3d6000fd5b505050506040513d6000823e3d601f19601f82011682018060405250810190610475919061195b565b5060004711156104aa576104a97f000000000000000000000000000000000000000000000000000000000000000047610d4d565b5b50505050505050565b60008054906101000a900473ffffffffffffffffffffffffffffffffffffffff1673ffffffffffffffffffffffffffffffffffffffff163373ffffffffffffffffffffffffffffffffffffffff1614610541576040517f08c379a000000000000000000000000000000000000000000000000000000000815260040161053890611a01565b60405180910390fd5b60005b848490508110156105ee576105e17f00000000000000000000000000000000000000000000000000000000000000007fffffffffffffffffffffffffffffffffffffffffffffffffffffffffffffffff8787858181106105a7576105a661167d565b5b90506020020160208101906105bc9190611a5f565b73ffffffffffffffffffffffffffffffffffffffff16610c9f9092919063ffffffff16565b8080600101915050610544565b507f000000000000000000000000000000000000000000000000000000000000000073ffffffffffffffffffffffffffffffffffffffff16635ae401dc7fffffffffffffffffffffffffffffffffffffffffffffffffffffffffffffffff84846040518463ffffffff1660e01b815260040161066c93929190611bce565b6000604051808303816000875af115801561068b573d6000803e3d6000fd5b505050506040513d6000823e3d601f19601f820116820180604052508101906106b4919061195b565b5050505050565b60008054906101000a900473ffffffffffffffffffffffffffffffffffffffff1673ffffffffffffffffffffffffffffffffffffffff163373ffffffffffffffffffffffffffffffffffffffff1614610749576040517f08c379a000000000000000000000000000000000000000000000000000000000815260040161074090611a01565b60405180910390fd5b6107538147610df5565b50565b60008054906101000a900473ffffffffffffffffffffffffffffffffffffffff1673ffffffffffffffffffffffffffffffffffffffff163373ffffffffffffffffffffffffffffffffffffffff16146107e4576040517f08c379a00000000000000000000000000000000000000000000000000000000081526004016107db90611a01565b60405180910390fd5b60007f000000000000000000000000000000000000000000000000000000000000000073ffffffffffffffffffffffffffffffffffffffff166370a08231306040518263ffffffff1660e01b815260040161083f919061115f565b602060405180830381865afa15801561085c573d6000803e3d6000fd5b505050506040513d601f19601f820116820180604052508101906108809190611c2c565b90507f000000000000000000000000000000000000000000000000000000000000000073ffffffffffffffffffffffffffffffffffffffff16632e1a7d4d826040518263ffffffff1660e01b81526004016108db9190611c59565b600060405180830381600087803b1580156108f557600080fd5b505af1158015610909573d6000803e3d6000fd5b505050506109178247610df5565b5050565b60008054906101000a900473ffffffffffffffffffffffffffffffffffffffff1681565b7f000000000000000000000000000000000000000000000000000000000000000073ffffffffffffffffffffffffffffffffffffffff163373ffffffffffffffffffffffffffffffffffffffff16146109c4576040517f8c6e5d7100000000000000000000000000000000000000000000000000000000815260040160405180910390fd5b7f000000000000000000000000000000000000000000000000000000000000000073ffffffffffffffffffffffffffffffffffffffff16630d3358848484846040518463ffffffff1660e01b8152600401610a2193929190611d0a565b600060405180830381600087803b158015610a3b57600080fd5b505af1158015610a4f573d6000803e3d6000fd5b50505050505050565b7f000000000000000000000000000000000000000000000000000000000000000073ffffffffffffffffffffffffffffffffffffffff163373ffffffffffffffffffffffffffffffffffffffff1614610add576040517f8c6e5d7100000000000000000000000000000000000000000000000000000000815260040160405180910390fd5b7f000000000000000000000000000000000000000000000000000000000000000073ffffffffffffffffffffffffffffffffffffffff166313fb72c7858585856040518563ffffffff1660e01b8152600401610b3c9493929190611e73565b600060405180830381600087803b158015610b5657600080fd5b505af1158015610b6a573d6000803e3d6000fd5b5050505050505050565b60008054906101000a900473ffffffffffffffffffffffffffffffffffffffff1673ffffffffffffffffffffffffffffffffffffffff163373ffffffffffffffffffffffffffffffffffffffff1614610c02576040517f08c379a0000000000000000000000000000000000000000000000000000000008152600401610bf990611a01565b60405180910390fd5b806000806101000a81548173ffffffffffffffffffffffffffffffffffffffff021916908373ffffffffffffffffffffffffffffffffffffffff1602179055508073ffffffffffffffffffffffffffffffffffffffff163373ffffffffffffffffffffffffffffffffffffffff167f8be0079c531659141344cd1fd0a4f28419497f9722a3daafe3b4186f6b6457e060405160405180910390a350565b60006040517f095ea7b300000000000000000000000000000000000000000000000000000000815273ffffffffffffffffffffffffffffffffffffffff84166004820152826024820152602060006044836000895af13d15601f3d1160016000511416171691505080610d47576040517f08c379a0000000000000000000000000000000000000000000000000000000008152600401610d3e90611efa565b60405180910390fd5b50505050565b60008273ffffffffffffffffffffffffffffffffffffffff1682604051610d7390611f4b565b60006040518083038185875af1925050503d8060008114610db0576040519150601f19603f3d011682016040523d82523d6000602084013e610db5565b606091505b5050905080610df0576040517ff4b3b1bc00000000000000000000000000000000000000000000000000000000815260040160405180910390fd5b505050565b600080600080600085875af1905080610e43576040517f08c379a0000000000000000000000000000000000000000000000000000000008152600401610e3a90611fac565b60405180910390fd5b505050565b6000604051905090565b600080fd5b600080fd5b600080fd5b600080fd5b600080fd5b60008083601f840112610e8157610e80610e5c565b5b8235905067ffffffffffffffff811115610e9e57610e9d610e61565b5b602083019150836020820283011115610eba57610eb9610e66565b5b9250929050565b60008083601f840112610ed757610ed6610e5c565b5b8235905067ffffffffffffffff811115610ef457610ef3610e61565b5b602083019150836001820283011115610f1057610f0f610e66565b5b9250929050565b60008060008060408587031215610f3157610f30610e52565b5b600085013567ffffffffffffffff811115610f4f57610f4e610e57565b5b610f5b87828801610e6b565b9450945050602085013567ffffffffffffffff811115610f7e57610f7d610e57565b5b610f8a87828801610ec1565b925092505092959194509250565b60008083601f840112610fae57610fad610e5c565b5b8235905067ffffffffffffffff811115610fcb57610fca610e61565b5b602083019150836020820283011115610fe757610fe6610e66565b5b9250929050565b60008083601f84011261100457611003610e5c565b5b8235905067ffffffffffffffff81111561102157611020610e61565b5b60208301915083602082028301111561103d5761103c610e66565b5b9250929050565b6000806000806040858703121561105e5761105d610e52565b5b600085013567ffffffffffffffff81111561107c5761107b610e57565b5b61108887828801610f98565b9450945050602085013567ffffffffffffffff8111156110ab576110aa610e57565b5b6110b787828801610fee565b925092505092959194509250565b600073ffffffffffffffffffffffffffffffffffffffff82169050919050565b60006110f0826110c5565b9050919050565b611100816110e5565b811461110b57600080fd5b50565b60008135905061111d816110f7565b92915050565b60006020828403121561113957611138610e52565b5b60006111478482850161110e565b91505092915050565b611159816110e5565b82525050565b60006020820190506111746000830184611150565b92915050565b600080fd5b6000604082840312156111955761119461117a565b5b81905092915050565b6000806000604084860312156111b7576111b6610e52565b5b600084013567ffffffffffffffff8111156111d5576111d4610e57565b5b6111e18682870161117f565b935050602084013567ffffffffffffffff81111561120257611201610e57565b5b61120e86828701610ec1565b92509250509250925092565b60008083601f8401126112305761122f610e5c565b5b8235905067ffffffffffffffff81111561124d5761124c610e61565b5b60208301915083602082028301111561126957611268610e66565b5b9250929050565b6000806000806040858703121561128a57611289610e52565b5b600085013567ffffffffffffffff8111156112a8576112a7610e57565b5b6112b48782880161121a565b9450945050602085013567ffffffffffffffff8111156112d7576112d6610e57565b5b6112e387828801610ec1565b925092505092959194509250565b6000601f19601f8301169050919050565b7f4e487b7100000000000000000000000000000000000000000000000000000000600052604160045260246000fd5b61133a826112f1565b810181811067ffffffffffffffff8211171561135957611358611302565b5b80604052505050565b600061136c610e48565b90506113788282611331565b919050565b600067ffffffffffffffff82111561139857611397611302565b5b602082029050602081019050919050565b60006113bc6113b78461137d565b611362565b905080838252602082019050602084028301858111156113df576113de610e66565b5b835b8181101561140857806113f4888261110e565b8452602084019350506020810190506113e1565b5050509392505050565b600082601f83011261142757611426610e5c565b5b81356114378482602086016113a9565b91505092915050565b600067ffffffffffffffff82111561145b5761145a611302565b5b602082029050602081019050919050565b600080fd5b600067ffffffffffffffff82111561148c5761148b611302565b5b611495826112f1565b9050602081019050919050565b82818337600083830152505050565b60006114c46114bf84611471565b611362565b9050828152602081018484840111156114e0576114df61146c565b5b6114eb8482856114a2565b509392505050565b600082601f83011261150857611507610e5c565b5b81356115188482602086016114b1565b91505092915050565b600061153461152f84611440565b611362565b9050808382526020820190506020840283018581111561155757611556610e66565b5b835b8181101561159e57803567ffffffffffffffff81111561157c5761157b610e5c565b5b80860161158989826114f3565b85526020850194505050602081019050611559565b5050509392505050565b600082601f8301126115bd576115bc610e5c565b5b81356115cd848260208601611521565b91505092915050565b6000806000606084860312156115ef576115ee610e52565b5b600084013567ffffffffffffffff81111561160d5761160c610e57565b5b61161986828701611412565b935050602084013567ffffffffffffffff81111561163a57611639610e57565b5b61164686828701611412565b925050604084013567ffffffffffffffff81111561166757611666610e57565b5b611673868287016115a8565b9150509250925092565b7f4e487b7100000000000000000000000000000000000000000000000000000000600052603260045260246000fd5b6000819050919050565b6116bf816116ac565b82525050565b600081519050919050565b600082825260208201905092915050565b6000819050602082019050919050565b600081519050919050565b600082825260208201905092915050565b60005b8381101561172b578082015181840152602081019050611710565b60008484015250505050565b6000611742826116f1565b61174c81856116fc565b935061175c81856020860161170d565b611765816112f1565b840191505092915050565b600061177c8383611737565b905092915050565b6000602082019050919050565b600061179c826116c5565b6117a681856116d0565b9350836020820285016117b8856116e1565b8060005b858110156117f457848403895281516117d58582611770565b94506117e083611784565b925060208a019950506001810190506117bc565b50829750879550505050505092915050565b600060408201905061181b60008301856116b6565b818103602083015261182d8184611791565b90509392505050565b600061184961184484611471565b611362565b9050828152602081018484840111156118655761186461146c565b5b61187084828561170d565b509392505050565b600082601f83011261188d5761188c610e5c565b5b815161189d848260208601611836565b91505092915050565b60006118b96118b484611440565b611362565b905080838252602082019050602084028301858111156118dc576118db610e66565b5b835b8181101561192357805167ffffffffffffffff81111561190157611900610e5c565b5b80860161190e8982611878565b855260208501945050506020810190506118de565b5050509392505050565b600082601f83011261194257611941610e5c565b5b81516119528482602086016118a6565b91505092915050565b60006020828403121561197157611970610e52565b5b600082015167ffffffffffffffff81111561198f5761198e610e57565b5b61199b8482850161192d565b91505092915050565b600082825260208201905092915050565b7f554e415554484f52495a45440000000000000000000000000000000000000000600082015250565b60006119eb600c836119a4565b91506119f6826119b5565b602082019050919050565b60006020820190508181036000830152611a1a816119de565b9050919050565b6000611a2c826110e5565b9050919050565b611a3c81611a21565b8114611a4757600080fd5b50565b600081359050611a5981611a33565b92915050565b600060208284031215611a7557611a74610e52565b5b6000611a8384828501611a4a565b91505092915050565b6000819050919050565b6000611aa283856116fc565b9350611aaf8385846114a2565b611ab8836112f1565b840190509392505050565b6000611ad0848484611a96565b90509392505050565b600080fd5b600080fd5b600080fd5b60008083356001602003843603038112611b0557611b04611ae3565b5b83810192508235915060208301925067ffffffffffffffff821115611b2d57611b2c611ad9565b5b600182023603831315611b4357611b42611ade565b5b509250929050565b6000602082019050919050565b6000611b6483856116d0565b935083602084028501611b7684611a8c565b8060005b87811015611bbc578484038952611b918284611ae8565b611b9c868284611ac3565b9550611ba784611b4b565b935060208b019a505050600181019050611b7a565b50829750879450505050509392505050565b6000604082019050611be360008301866116b6565b8181036020830152611bf6818486611b58565b9050949350505050565b611c09816116ac565b8114611c1457600080fd5b50565b600081519050611c2681611c00565b92915050565b600060208284031215611c4257611c41610e52565b5b6000611c5084828501611c17565b91505092915050565b6000602082019050611c6e60008301846116b6565b92915050565b600060408301611c876000840184611ae8565b8583036000870152611c9a838284611a96565b92505050611cab6020840184611ae8565b8583036020870152611cbe838284611a96565b925050508091505092915050565b600082825260208201905092915050565b6000611ce98385611ccc565b9350611cf68385846114a2565b611cff836112f1565b840190509392505050565b60006040820190508181036000830152611d248186611c74565b90508181036020830152611d39818486611cdd565b9050949350505050565b600082825260208201905092915050565b6000819050919050565b600060408301611d716000840184611ae8565b8583036000870152611d84838284611a96565b92505050611d956020840184611ae8565b8583036020870152611da8838284611a96565b925050508091505092915050565b6000611dc28383611d5e565b905092915050565b600082356001604003833603038112611de657611de5611ae3565b5b82810191505092915050565b6000602082019050919050565b6000611e0b8385611d43565b935083602084028501611e1d84611d54565b8060005b87811015611e61578484038952611e388284611dca565b611e428582611db6565b9450611e4d83611df2565b925060208a01995050600181019050611e21565b50829750879450505050509392505050565b60006040820190508181036000830152611e8e818688611dff565b90508181036020830152611ea3818486611cdd565b905095945050505050565b7f415050524f56455f4641494c4544000000000000000000000000000000000000600082015250565b6000611ee4600e836119a4565b9150611eef82611eae565b602082019050919050565b60006020820190508181036000830152611f1381611ed7565b9050919050565b600081905092915050565b50565b6000611f35600083611f1a565b9150611f4082611f25565b600082019050919050565b6000611f5682611f28565b9150819050919050565b7f4554485f5452414e534645525f4641494c454400000000000000000000000000600082015250565b6000611f966013836119a4565b9150611fa182611f60565b602082019050919050565b60006020820190508181036000830152611fc581611f89565b905091905056fea26469706673582212206273294ac9dc1ed0d654ecf769bc42bed68e474eac11fc1563f77c7c8fa83c3d64736f6c634300081c0033",
  "linkReferences": {},
  "deployedLinkReferences": {}
}