{
  "_format": "hh-sol-artifact-1",
  "contractName": "MultiFillerSwapRouter02Executor",
  "sourceName": "src/sample-executors/MultiFillerSwapRouter02Executor.sol",
  "abi": [
    {
      "inputs": [
        {
          "internalType": "address[]",
          "name": "_whitelistedCallers",
          "type": "address[]"
        },
        {
          "internalType": "contract IReactor",
          "name": "_reactor",
          "type": "address"
        },
        {
          "internalType": "address",
          "name": "_owner",
          "type": "address"
        },
        {
          "internalType": "contract ISwapRouter02",
          "name": "_swapRouter02",
          "type": "address"
        }
      ],
      "stateMutability": "nonpayable",
      "type": "constructor"
    },
    {
      "inputs": [],
      "name": "CallerNotWhitelisted",
      "type": "error"
    },
    {
      "inputs": [],
      "name": "MsgSenderNotReactor",
      "type": "error"
    },
    {
      "inputs": [],
      "name": "NativeTransferFailed",
      "type": "error"
    },
    {
      "anonymous": false,
      "inputs": [
        {
          "indexed": true,
          "internalType": "address",
          "name": "user",
          "type": "address"
        },
        {
          "indexed": true,
          "internalType": "address",
          "name": "newOwner",
          "type": "address"
        }
      ],
      "name": "OwnershipTransferred",
      "type": "event"
    },
    {
      "anonymous": false,
      "inputs": [
        {
          "indexed": false,
          "internalType": "address",
          "name": "newReactor",
          "type": "address"
        },
        {
          "indexed": false,
          "internalType": "address",
          "name": "oldReactor",
          "type": "address"
        }
      ],
      "name": "ReactorChanged",
      "type": "event"
    },
    {
      "inputs": [
        {
          "components": [
            {
              "internalType": "bytes",
              "name": "order",
              "type": "bytes"
            },
            {
              "internalType": "bytes",
              "name": "sig",
              "type": "bytes"
            }
          ],
          "internalType": "struct SignedOrder",
          "name": "order",
          "type": "tuple"
        },
        {
          "internalType": "bytes",
          "name": "callbackData",
          "type": "bytes"
        }
      ],
      "name": "execute",
      "outputs": [],
      "stateMutability": "nonpayable",
      "type": "function"
    },
    {
      "inputs": [
        {
          "components": [
            {
              "internalType": "bytes",
              "name": "order",
              "type": "bytes"
            },
            {
              "internalType": "bytes",
              "name": "sig",
              "type": "bytes"
            }
          ],
          "internalType": "struct SignedOrder[]",
          "name": "orders",
          "type": "tuple[]"
        },
        {
          "internalType": "bytes",
          "name": "callbackData",
          "type": "bytes"
        }
      ],
      "name": "executeBatch",
      "outputs": [],
      "stateMutability": "nonpayable",
      "type": "function"
    },
    {
      "inputs": [
        {
          "internalType": "contract ERC20[]",
          "name": "tokensToApprove",
          "type": "address[]"
        },
        {
          "internalType": "bytes[]",
          "name": "multicallData",
          "type": "bytes[]"
        }
      ],
      "name": "multicall",
      "outputs": [],
      "stateMutability": "nonpayable",
      "type": "function"
    },
    {
      "inputs": [],
      "name": "owner",
      "outputs": [
        {
          "internalType": "address",
          "name": "",
          "type": "address"
        }
      ],
      "stateMutability": "view",
      "type": "function"
    },
    {
      "inputs": [],
      "name": "reactor",
      "outputs": [
        {
          "internalType": "contract IReactor",
          "name": "",
          "type": "address"
        }
      ],
      "stateMutability": "view",
      "type": "function"
    },
    {
      "inputs": [
        {
          "components": [
            {
              "components": [
                {
                  "internalType": "contract IReactor",
                  "name": "reactor",
                  "type": "address"
                },
                {
                  "internalType": "address",
                  "name": "swapper",
                  "type": "address"
                },
                {
                  "internalType": "uint256",
                  "name": "nonce",
                  "type": "uint256"
                },
                {
                  "internalType": "uint256",
                  "name": "deadline",
                  "type": "uint256"
                },
                {
                  "internalType": "contract IValidationCallback",
                  "name": "additionalValidationContract",
                  "type": "address"
                },
                {
                  "internalType": "bytes",
                  "name": "additionalValidationData",
                  "type": "bytes"
                }
              ],
              "internalType": "struct OrderInfo",
              "name": "info",
              "type": "tuple"
            },
            {
              "components": [
                {
                  "internalType": "contract ERC20",
                  "name": "token",
                  "type": "address"
                },
                {
                  "internalType": "uint256",
                  "name": "amount",
                  "type": "uint256"
                },
                {
                  "internalType": "uint256",
                  "name": "maxAmount",
                  "type": "uint256"
                }
              ],
              "internalType": "struct InputToken",
              "name": "input",
              "type": "tuple"
            },
            {
              "components": [
                {
                  "internalType": "address",
                  "name": "token",
                  "type": "address"
                },
                {
                  "internalType": "uint256",
                  "name": "amount",
                  "type": "uint256"
                },
                {
                  "internalType": "address",
                  "name": "recipient",
                  "type": "address"
                }
              ],
              "internalType": "struct OutputToken[]",
              "name": "outputs",
              "type": "tuple[]"
            },
            {
              "internalType": "bytes",
              "name": "sig",
              "type": "bytes"
            },
            {
              "internalType": "bytes32",
              "name": "hash",
              "type": "bytes32"
            }
          ],
          "internalType": "struct ResolvedOrder[]",
          "name": "",
          "type": "tuple[]"
        },
        {
          "internalType": "bytes",
          "name": "callbackData",
          "type": "bytes"
        }
      ],
      "name": "reactorCallback",
      "outputs": [],
      "stateMutability": "nonpayable",
      "type": "function"
    },
    {
      "inputs": [
        {
          "internalType": "address",
          "name": "newOwner",
          "type": "address"
        }
      ],
      "name": "transferOwnership",
      "outputs": [],
      "stateMutability": "nonpayable",
      "type": "function"
    },
    {
      "inputs": [
        {
          "internalType": "address",
          "name": "recipient",
          "type": "address"
        }
      ],
      "name": "unwrapWETH",
      "outputs": [],
      "stateMutability": "nonpayable",
      "type": "function"
    },
    {
      "inputs": [
        {
          "internalType": "contract IReactor",
          "name": "_reactor",
          "type": "address"
        }
      ],
      "name": "updateReactor",
      "outputs": [],
      "stateMutability": "nonpayable",
      "type": "function"
    },
    {
      "inputs": [
        {
          "internalType": "contract ERC20",
          "name": "token",
          "type": "address"
        },
        {
          "internalType": "address",
          "name": "to",
          "type": "address"
        }
      ],
      "name": "withdrawERC20",
      "outputs": [],
      "stateMutability": "nonpayable",
      "type": "function"
    },
    {
      "inputs": [
        {
          "internalType": "address",
          "name": "recipient",
          "type": "address"
        }
      ],
      "name": "withdrawETH",
      "outputs": [],
      "stateMutability": "nonpayable",
      "type": "function"
    },
    {
      "stateMutability": "payable",
      "type": "receive"
    }
  ],
  "bytecode": "0x60c060405234801561001057600080fd5b50604051612b86380380612b86833981810160405281019061003291906104c1565b81806000806101000a81548173ffffffffffffffffffffffffffffffffffffffff021916908373ffffffffffffffffffffffffffffffffffffffff1602179055508073ffffffffffffffffffffffffffffffffffffffff16600073ffffffffffffffffffffffffffffffffffffffff167f8be0079c531659141344cd1fd0a4f28419497f9722a3daafe3b4186f6b6457e060405160405180910390a35060005b84518110156101595760018060008784815181106100f3576100f2610544565b5b602002602001015173ffffffffffffffffffffffffffffffffffffffff1673ffffffffffffffffffffffffffffffffffffffff16815260200190815260200160002060006101000a81548160ff02191690831515021790555080806001019150506100d2565b5082600260006101000a81548173ffffffffffffffffffffffffffffffffffffffff021916908373ffffffffffffffffffffffffffffffffffffffff1602179055508073ffffffffffffffffffffffffffffffffffffffff1660808173ffffffffffffffffffffffffffffffffffffffff16815250508073ffffffffffffffffffffffffffffffffffffffff16634aa4a4fc6040518163ffffffff1660e01b8152600401602060405180830381865afa15801561021a573d6000803e3d6000fd5b505050506040513d601f19601f8201168201806040525081019061023e9190610573565b73ffffffffffffffffffffffffffffffffffffffff1660a08173ffffffffffffffffffffffffffffffffffffffff1681525050505050506105a0565b6000604051905090565b600080fd5b600080fd5b600080fd5b6000601f19601f8301169050919050565b7f4e487b7100000000000000000000000000000000000000000000000000000000600052604160045260246000fd5b6102dc82610293565b810181811067ffffffffffffffff821117156102fb576102fa6102a4565b5b80604052505050565b600061030e61027a565b905061031a82826102d3565b919050565b600067ffffffffffffffff82111561033a576103396102a4565b5b602082029050602081019050919050565b600080fd5b600073ffffffffffffffffffffffffffffffffffffffff82169050919050565b600061037b82610350565b9050919050565b61038b81610370565b811461039657600080fd5b50565b6000815190506103a881610382565b92915050565b60006103c16103bc8461031f565b610304565b905080838252602082019050602084028301858111156103e4576103e361034b565b5b835b8181101561040d57806103f98882610399565b8452602084019350506020810190506103e6565b5050509392505050565b600082601f83011261042c5761042b61028e565b5b815161043c8482602086016103ae565b91505092915050565b600061045082610370565b9050919050565b61046081610445565b811461046b57600080fd5b50565b60008151905061047d81610457565b92915050565b600061048e82610370565b9050919050565b61049e81610483565b81146104a957600080fd5b50565b6000815190506104bb81610495565b92915050565b600080600080608085870312156104db576104da610284565b5b600085015167ffffffffffffffff8111156104f9576104f8610289565b5b61050587828801610417565b94505060206105168782880161046e565b935050604061052787828801610399565b9250506060610538878288016104ac565b91505092959194509250565b7f4e487b7100000000000000000000000000000000000000000000000000000000600052603260045260246000fd5b60006020828403121561058957610588610284565b5b600061059784828501610399565b91505092915050565b60805160a0516125a56105e1600039600081816109b90152610a55015260008181610325015281816104560152818161072501526107c201526125a56000f3fe6080604052600436106100a05760003560e01c80638da5cb5b116100645780638da5cb5b146101795780639456fbcc146101a4578063ab572650146101cd578063d0f2d8ac146101f8578063e5135ec614610221578063f2fde38b1461024a576100a7565b8063585da628146100ac5780635c8f9bf6146100d557806363fb0b96146100fe578063690d83201461012757806389a3f13614610150576100a7565b366100a757005b600080fd5b3480156100b857600080fd5b506100d360048036038101906100ce9190611300565b610273565b005b3480156100e157600080fd5b506100fc60048036038101906100f791906113f1565b610557565b005b34801561010a57600080fd5b50610125600480360381019061012091906114ca565b610684565b005b34801561013357600080fd5b5061014e60048036038101906101499190611577565b61088c565b005b34801561015c57600080fd5b5061017760048036038101906101729190611577565b610927565b005b34801561018557600080fd5b5061018e610aec565b60405161019b91906115b3565b60405180910390f35b3480156101b057600080fd5b506101cb60048036038101906101c6919061160c565b610b10565b005b3480156101d957600080fd5b506101e2610c46565b6040516101ef91906116ab565b60405180910390f35b34801561020457600080fd5b5061021f600480360381019061021a91906116ea565b610c6c565b005b34801561022d57600080fd5b50610248600480360381019061024391906117bc565b610d8c565b005b34801561025657600080fd5b50610271600480360381019061026c9190611577565b610eaf565b005b600260009054906101000a900473ffffffffffffffffffffffffffffffffffffffff1673ffffffffffffffffffffffffffffffffffffffff163373ffffffffffffffffffffffffffffffffffffffff16146102fa576040517f933fe52f00000000000000000000000000000000000000000000000000000000815260040160405180910390fd5b6000806000848481019061030e9190611b22565b92509250925060005b83518110156103b2576103a57f00000000000000000000000000000000000000000000000000000000000000007fffffffffffffffffffffffffffffffffffffffffffffffffffffffffffffffff86848151811061037857610377611bc9565b5b602002602001015173ffffffffffffffffffffffffffffffffffffffff16610fda9092919063ffffffff16565b8080600101915050610317565b5060005b825181101561045357610446600260009054906101000a900473ffffffffffffffffffffffffffffffffffffffff167fffffffffffffffffffffffffffffffffffffffffffffffffffffffffffffffff85848151811061041957610418611bc9565b5b602002602001015173ffffffffffffffffffffffffffffffffffffffff16610fda9092919063ffffffff16565b80806001019150506103b6565b507f000000000000000000000000000000000000000000000000000000000000000073ffffffffffffffffffffffffffffffffffffffff16635ae401dc7fffffffffffffffffffffffffffffffffffffffffffffffffffffffffffffffff836040518363ffffffff1660e01b81526004016104cf929190611d52565b6000604051808303816000875af11580156104ee573d6000803e3d6000fd5b505050506040513d6000823e3d601f19601f820116820180604052508101906105179190611ea7565b50600047111561054e5761054d600260009054906101000a900473ffffffffffffffffffffffffffffffffffffffff1647611088565b5b50505050505050565b60008054906101000a900473ffffffffffffffffffffffffffffffffffffffff1673ffffffffffffffffffffffffffffffffffffffff163373ffffffffffffffffffffffffffffffffffffffff16146105e5576040517f08c379a00000000000000000000000000000000000000000000000000000000081526004016105dc90611f4d565b60405180910390fd5b7f3f4769cb66e42c90998090277d5d72ee683ef176a1f56fb185328f554a2ab7dc81600260009054906101000a900473ffffffffffffffffffffffffffffffffffffffff16604051610638929190611f6d565b60405180910390a180600260006101000a81548173ffffffffffffffffffffffffffffffffffffffff021916908373ffffffffffffffffffffffffffffffffffffffff16021790555050565b60008054906101000a900473ffffffffffffffffffffffffffffffffffffffff1673ffffffffffffffffffffffffffffffffffffffff163373ffffffffffffffffffffffffffffffffffffffff1614610712576040517f08c379a000000000000000000000000000000000000000000000000000000000815260040161070990611f4d565b60405180910390fd5b60005b848490508110156107bf576107b27f00000000000000000000000000000000000000000000000000000000000000007fffffffffffffffffffffffffffffffffffffffffffffffffffffffffffffffff87878581811061077857610777611bc9565b5b905060200201602081019061078d9190611f96565b73ffffffffffffffffffffffffffffffffffffffff16610fda9092919063ffffffff16565b8080600101915050610715565b507f000000000000000000000000000000000000000000000000000000000000000073ffffffffffffffffffffffffffffffffffffffff16635ae401dc7fffffffffffffffffffffffffffffffffffffffffffffffffffffffffffffffff84846040518463ffffffff1660e01b815260040161083d93929190612105565b6000604051808303816000875af115801561085c573d6000803e3d6000fd5b505050506040513d6000823e3d601f19601f820116820180604052508101906108859190611ea7565b5050505050565b60008054906101000a900473ffffffffffffffffffffffffffffffffffffffff1673ffffffffffffffffffffffffffffffffffffffff163373ffffffffffffffffffffffffffffffffffffffff161461091a576040517f08c379a000000000000000000000000000000000000000000000000000000000815260040161091190611f4d565b60405180910390fd5b6109248147611130565b50565b60008054906101000a900473ffffffffffffffffffffffffffffffffffffffff1673ffffffffffffffffffffffffffffffffffffffff163373ffffffffffffffffffffffffffffffffffffffff16146109b5576040517f08c379a00000000000000000000000000000000000000000000000000000000081526004016109ac90611f4d565b60405180910390fd5b60007f000000000000000000000000000000000000000000000000000000000000000073ffffffffffffffffffffffffffffffffffffffff166370a08231306040518263ffffffff1660e01b8152600401610a1091906115b3565b602060405180830381865afa158015610a2d573d6000803e3d6000fd5b505050506040513d601f19601f82011682018060405250810190610a519190612163565b90507f000000000000000000000000000000000000000000000000000000000000000073ffffffffffffffffffffffffffffffffffffffff16632e1a7d4d826040518263ffffffff1660e01b8152600401610aac9190612190565b600060405180830381600087803b158015610ac657600080fd5b505af1158015610ada573d6000803e3d6000fd5b50505050610ae88247611130565b5050565b60008054906101000a900473ffffffffffffffffffffffffffffffffffffffff1681565b60008054906101000a900473ffffffffffffffffffffffffffffffffffffffff1673ffffffffffffffffffffffffffffffffffffffff163373ffffffffffffffffffffffffffffffffffffffff1614610b9e576040517f08c379a0000000000000000000000000000000000000000000000000000000008152600401610b9590611f4d565b60405180910390fd5b610c42818373ffffffffffffffffffffffffffffffffffffffff166370a08231306040518263ffffffff1660e01b8152600401610bdb91906115b3565b602060405180830381865afa158015610bf8573d6000803e3d6000fd5b505050506040513d601f19601f82011682018060405250810190610c1c9190612163565b8473ffffffffffffffffffffffffffffffffffffffff166111839092919063ffffffff16565b5050565b600260009054906101000a900473ffffffffffffffffffffffffffffffffffffffff1681565b60001515600160003373ffffffffffffffffffffffffffffffffffffffff1673ffffffffffffffffffffffffffffffffffffffff16815260200190815260200160002060009054906101000a900460ff16151503610cf6576040517f8c6e5d7100000000000000000000000000000000000000000000000000000000815260040160405180910390fd5b600260009054906101000a900473ffffffffffffffffffffffffffffffffffffffff1673ffffffffffffffffffffffffffffffffffffffff16630d3358848484846040518463ffffffff1660e01b8152600401610d5593929190612241565b600060405180830381600087803b158015610d6f57600080fd5b505af1158015610d83573d6000803e3d6000fd5b50505050505050565b60001515600160003373ffffffffffffffffffffffffffffffffffffffff1673ffffffffffffffffffffffffffffffffffffffff16815260200190815260200160002060009054906101000a900460ff16151503610e16576040517f8c6e5d7100000000000000000000000000000000000000000000000000000000815260040160405180910390fd5b600260009054906101000a900473ffffffffffffffffffffffffffffffffffffffff1673ffffffffffffffffffffffffffffffffffffffff166313fb72c7858585856040518563ffffffff1660e01b8152600401610e7794939291906123aa565b600060405180830381600087803b158015610e9157600080fd5b505af1158015610ea5573d6000803e3d6000fd5b5050505050505050565b60008054906101000a900473ffffffffffffffffffffffffffffffffffffffff1673ffffffffffffffffffffffffffffffffffffffff163373ffffffffffffffffffffffffffffffffffffffff1614610f3d576040517f08c379a0000000000000000000000000000000000000000000000000000000008152600401610f3490611f4d565b60405180910390fd5b806000806101000a81548173ffffffffffffffffffffffffffffffffffffffff021916908373ffffffffffffffffffffffffffffffffffffffff1602179055508073ffffffffffffffffffffffffffffffffffffffff163373ffffffffffffffffffffffffffffffffffffffff167f8be0079c531659141344cd1fd0a4f28419497f9722a3daafe3b4186f6b6457e060405160405180910390a350565b60006040517f095ea7b300000000000000000000000000000000000000000000000000000000815273ffffffffffffffffffffffffffffffffffffffff84166004820152826024820152602060006044836000895af13d15601f3d1160016000511416171691505080611082576040517f08c379a000000000000000000000000000000000000000000000000000000000815260040161107990612431565b60405180910390fd5b50505050565b60008273ffffffffffffffffffffffffffffffffffffffff16826040516110ae90612482565b60006040518083038185875af1925050503d80600081146110eb576040519150601f19603f3d011682016040523d82523d6000602084013e6110f0565b606091505b505090508061112b576040517ff4b3b1bc00000000000000000000000000000000000000000000000000000000815260040160405180910390fd5b505050565b600080600080600085875af190508061117e576040517f08c379a0000000000000000000000000000000000000000000000000000000008152600401611175906124e3565b60405180910390fd5b505050565b60006040517fa9059cbb00000000000000000000000000000000000000000000000000000000815273ffffffffffffffffffffffffffffffffffffffff84166004820152826024820152602060006044836000895af13d15601f3d116001600051141617169150508061122b576040517f08c379a00000000000000000000000000000000000000000000000000000000081526004016112229061254f565b60405180910390fd5b50505050565b6000604051905090565b600080fd5b600080fd5b600080fd5b600080fd5b600080fd5b60008083601f84011261126a57611269611245565b5b8235905067ffffffffffffffff8111156112875761128661124a565b5b6020830191508360208202830111156112a3576112a261124f565b5b9250929050565b60008083601f8401126112c0576112bf611245565b5b8235905067ffffffffffffffff8111156112dd576112dc61124a565b5b6020830191508360018202830111156112f9576112f861124f565b5b9250929050565b6000806000806040858703121561131a5761131961123b565b5b600085013567ffffffffffffffff81111561133857611337611240565b5b61134487828801611254565b9450945050602085013567ffffffffffffffff81111561136757611366611240565b5b611373878288016112aa565b925092505092959194509250565b600073ffffffffffffffffffffffffffffffffffffffff82169050919050565b60006113ac82611381565b9050919050565b60006113be826113a1565b9050919050565b6113ce816113b3565b81146113d957600080fd5b50565b6000813590506113eb816113c5565b92915050565b6000602082840312156114075761140661123b565b5b6000611415848285016113dc565b91505092915050565b60008083601f84011261143457611433611245565b5b8235905067ffffffffffffffff8111156114515761145061124a565b5b60208301915083602082028301111561146d5761146c61124f565b5b9250929050565b60008083601f84011261148a57611489611245565b5b8235905067ffffffffffffffff8111156114a7576114a661124a565b5b6020830191508360208202830111156114c3576114c261124f565b5b9250929050565b600080600080604085870312156114e4576114e361123b565b5b600085013567ffffffffffffffff81111561150257611501611240565b5b61150e8782880161141e565b9450945050602085013567ffffffffffffffff81111561153157611530611240565b5b61153d87828801611474565b925092505092959194509250565b611554816113a1565b811461155f57600080fd5b50565b6000813590506115718161154b565b92915050565b60006020828403121561158d5761158c61123b565b5b600061159b84828501611562565b91505092915050565b6115ad816113a1565b82525050565b60006020820190506115c860008301846115a4565b92915050565b60006115d9826113a1565b9050919050565b6115e9816115ce565b81146115f457600080fd5b50565b600081359050611606816115e0565b92915050565b600080604083850312156116235761162261123b565b5b6000611631858286016115f7565b925050602061164285828601611562565b9150509250929050565b6000819050919050565b600061167161166c61166784611381565b61164c565b611381565b9050919050565b600061168382611656565b9050919050565b600061169582611678565b9050919050565b6116a58161168a565b82525050565b60006020820190506116c0600083018461169c565b92915050565b600080fd5b6000604082840312156116e1576116e06116c6565b5b81905092915050565b6000806000604084860312156117035761170261123b565b5b600084013567ffffffffffffffff81111561172157611720611240565b5b61172d868287016116cb565b935050602084013567ffffffffffffffff81111561174e5761174d611240565b5b61175a868287016112aa565b92509250509250925092565b60008083601f84011261177c5761177b611245565b5b8235905067ffffffffffffffff8111156117995761179861124a565b5b6020830191508360208202830111156117b5576117b461124f565b5b9250929050565b600080600080604085870312156117d6576117d561123b565b5b600085013567ffffffffffffffff8111156117f4576117f3611240565b5b61180087828801611766565b9450945050602085013567ffffffffffffffff81111561182357611822611240565b5b61182f878288016112aa565b925092505092959194509250565b6000601f19601f8301169050919050565b7f4e487b7100000000000000000000000000000000000000000000000000000000600052604160045260246000fd5b6118868261183d565b810181811067ffffffffffffffff821117156118a5576118a461184e565b5b80604052505050565b60006118b8611231565b90506118c4828261187d565b919050565b600067ffffffffffffffff8211156118e4576118e361184e565b5b602082029050602081019050919050565b6000611908611903846118c9565b6118ae565b9050808382526020820190506020840283018581111561192b5761192a61124f565b5b835b8181101561195457806119408882611562565b84526020840193505060208101905061192d565b5050509392505050565b600082601f83011261197357611972611245565b5b81356119838482602086016118f5565b91505092915050565b600067ffffffffffffffff8211156119a7576119a661184e565b5b602082029050602081019050919050565b600080fd5b600067ffffffffffffffff8211156119d8576119d761184e565b5b6119e18261183d565b9050602081019050919050565b82818337600083830152505050565b6000611a10611a0b846119bd565b6118ae565b905082815260208101848484011115611a2c57611a2b6119b8565b5b611a378482856119ee565b509392505050565b600082601f830112611a5457611a53611245565b5b8135611a648482602086016119fd565b91505092915050565b6000611a80611a7b8461198c565b6118ae565b90508083825260208201905060208402830185811115611aa357611aa261124f565b5b835b81811015611aea57803567ffffffffffffffff811115611ac857611ac7611245565b5b808601611ad58982611a3f565b85526020850194505050602081019050611aa5565b5050509392505050565b600082601f830112611b0957611b08611245565b5b8135611b19848260208601611a6d565b91505092915050565b600080600060608486031215611b3b57611b3a61123b565b5b600084013567ffffffffffffffff811115611b5957611b58611240565b5b611b658682870161195e565b935050602084013567ffffffffffffffff811115611b8657611b85611240565b5b611b928682870161195e565b925050604084013567ffffffffffffffff811115611bb357611bb2611240565b5b611bbf86828701611af4565b9150509250925092565b7f4e487b7100000000000000000000000000000000000000000000000000000000600052603260045260246000fd5b6000819050919050565b611c0b81611bf8565b82525050565b600081519050919050565b600082825260208201905092915050565b6000819050602082019050919050565b600081519050919050565b600082825260208201905092915050565b60005b83811015611c77578082015181840152602081019050611c5c565b60008484015250505050565b6000611c8e82611c3d565b611c988185611c48565b9350611ca8818560208601611c59565b611cb18161183d565b840191505092915050565b6000611cc88383611c83565b905092915050565b6000602082019050919050565b6000611ce882611c11565b611cf28185611c1c565b935083602082028501611d0485611c2d565b8060005b85811015611d405784840389528151611d218582611cbc565b9450611d2c83611cd0565b925060208a01995050600181019050611d08565b50829750879550505050505092915050565b6000604082019050611d676000830185611c02565b8181036020830152611d798184611cdd565b90509392505050565b6000611d95611d90846119bd565b6118ae565b905082815260208101848484011115611db157611db06119b8565b5b611dbc848285611c59565b509392505050565b600082601f830112611dd957611dd8611245565b5b8151611de9848260208601611d82565b91505092915050565b6000611e05611e008461198c565b6118ae565b90508083825260208201905060208402830185811115611e2857611e2761124f565b5b835b81811015611e6f57805167ffffffffffffffff811115611e4d57611e4c611245565b5b808601611e5a8982611dc4565b85526020850194505050602081019050611e2a565b5050509392505050565b600082601f830112611e8e57611e8d611245565b5b8151611e9e848260208601611df2565b91505092915050565b600060208284031215611ebd57611ebc61123b565b5b600082015167ffffffffffffffff811115611edb57611eda611240565b5b611ee784828501611e79565b91505092915050565b600082825260208201905092915050565b7f554e415554484f52495a45440000000000000000000000000000000000000000600082015250565b6000611f37600c83611ef0565b9150611f4282611f01565b602082019050919050565b60006020820190508181036000830152611f6681611f2a565b9050919050565b6000604082019050611f8260008301856115a4565b611f8f60208301846115a4565b9392505050565b600060208284031215611fac57611fab61123b565b5b6000611fba848285016115f7565b91505092915050565b6000819050919050565b6000611fd98385611c48565b9350611fe68385846119ee565b611fef8361183d565b840190509392505050565b6000612007848484611fcd565b90509392505050565b600080fd5b600080fd5b600080fd5b6000808335600160200384360303811261203c5761203b61201a565b5b83810192508235915060208301925067ffffffffffffffff82111561206457612063612010565b5b60018202360383131561207a57612079612015565b5b509250929050565b6000602082019050919050565b600061209b8385611c1c565b9350836020840285016120ad84611fc3565b8060005b878110156120f35784840389526120c8828461201f565b6120d3868284611ffa565b95506120de84612082565b935060208b019a5050506001810190506120b1565b50829750879450505050509392505050565b600060408201905061211a6000830186611c02565b818103602083015261212d81848661208f565b9050949350505050565b61214081611bf8565b811461214b57600080fd5b50565b60008151905061215d81612137565b92915050565b6000602082840312156121795761217861123b565b5b60006121878482850161214e565b91505092915050565b60006020820190506121a56000830184611c02565b92915050565b6000604083016121be600084018461201f565b85830360008701526121d1838284611fcd565b925050506121e2602084018461201f565b85830360208701526121f5838284611fcd565b925050508091505092915050565b600082825260208201905092915050565b60006122208385612203565b935061222d8385846119ee565b6122368361183d565b840190509392505050565b6000604082019050818103600083015261225b81866121ab565b90508181036020830152612270818486612214565b9050949350505050565b600082825260208201905092915050565b6000819050919050565b6000604083016122a8600084018461201f565b85830360008701526122bb838284611fcd565b925050506122cc602084018461201f565b85830360208701526122df838284611fcd565b925050508091505092915050565b60006122f98383612295565b905092915050565b60008235600160400383360303811261231d5761231c61201a565b5b82810191505092915050565b6000602082019050919050565b6000612342838561227a565b9350836020840285016123548461228b565b8060005b8781101561239857848403895261236f8284612301565b61237985826122ed565b945061238483612329565b925060208a01995050600181019050612358565b50829750879450505050509392505050565b600060408201905081810360008301526123c5818688612336565b905081810360208301526123da818486612214565b905095945050505050565b7f415050524f56455f4641494c4544000000000000000000000000000000000000600082015250565b600061241b600e83611ef0565b9150612426826123e5565b602082019050919050565b6000602082019050818103600083015261244a8161240e565b9050919050565b600081905092915050565b50565b600061246c600083612451565b91506124778261245c565b600082019050919050565b600061248d8261245f565b9150819050919050565b7f4554485f5452414e534645525f4641494c454400000000000000000000000000600082015250565b60006124cd601383611ef0565b91506124d882612497565b602082019050919050565b600060208201905081810360008301526124fc816124c0565b9050919050565b7f5452414e534645525f4641494c45440000000000000000000000000000000000600082015250565b6000612539600f83611ef0565b915061254482612503565b602082019050919050565b600060208201905081810360008301526125688161252c565b905091905056fea2646970667358221220d9f3eb034d27273ae6d574c031f98e53e8a4680793b2f42a717ca3bd134e316164736f6c634300081c0033",
  "linkReferences": {},
  "deployedLinkReferences": {}
}